{
  "contractName": "Bank",
  "abi": [
    {
      "inputs": [],
      "payable": false,
      "stateMutability": "nonpayable",
      "type": "constructor"
    },
    {
      "anonymous": false,
      "inputs": [
        {
          "indexed": true,
          "internalType": "uint256",
          "name": "id",
          "type": "uint256"
        },
        {
          "indexed": true,
          "internalType": "address",
          "name": "killer",
          "type": "address"
        },
        {
          "indexed": false,
          "internalType": "uint256",
          "name": "prize",
          "type": "uint256"
        },
        {
          "indexed": false,
          "internalType": "uint256",
          "name": "left",
          "type": "uint256"
        }
      ],
      "name": "Liquidate",
      "type": "event"
    },
    {
      "anonymous": false,
      "inputs": [
        {
          "indexed": true,
          "internalType": "uint256",
          "name": "id",
          "type": "uint256"
        },
        {
          "indexed": false,
          "internalType": "uint256",
          "name": "debt",
          "type": "uint256"
        },
        {
          "indexed": false,
          "internalType": "uint256",
          "name": "back",
          "type": "uint256"
        }
      ],
      "name": "OpPosition",
      "type": "event"
    },
    {
      "anonymous": false,
      "inputs": [
        {
          "indexed": true,
          "internalType": "address",
          "name": "previousOwner",
          "type": "address"
        },
        {
          "indexed": true,
          "internalType": "address",
          "name": "newOwner",
          "type": "address"
        }
      ],
      "name": "OwnershipTransferred",
      "type": "event"
    },
    {
      "payable": true,
      "stateMutability": "payable",
      "type": "fallback"
    },
    {
      "constant": true,
      "inputs": [
        {
          "internalType": "address",
          "name": "",
          "type": "address"
        }
      ],
      "name": "banks",
      "outputs": [
        {
          "internalType": "address",
          "name": "tokenAddr",
          "type": "address"
        },
        {
          "internalType": "address",
          "name": "pTokenAddr",
          "type": "address"
        },
        {
          "internalType": "bool",
          "name": "isOpen",
          "type": "bool"
        },
        {
          "internalType": "bool",
          "name": "canDeposit",
          "type": "bool"
        },
        {
          "internalType": "bool",
          "name": "canWithdraw",
          "type": "bool"
        },
        {
          "internalType": "uint256",
          "name": "totalVal",
          "type": "uint256"
        },
        {
          "internalType": "uint256",
          "name": "totalDebt",
          "type": "uint256"
        },
        {
          "internalType": "uint256",
          "name": "totalDebtShare",
          "type": "uint256"
        },
        {
          "internalType": "uint256",
          "name": "totalReserve",
          "type": "uint256"
        },
        {
          "internalType": "uint256",
          "name": "lastInterestTime",
          "type": "uint256"
        }
      ],
      "payable": false,
      "stateMutability": "view",
      "type": "function"
    },
    {
      "constant": true,
      "inputs": [],
      "name": "currentPid",
      "outputs": [
        {
          "internalType": "uint256",
          "name": "",
          "type": "uint256"
        }
      ],
      "payable": false,
      "stateMutability": "view",
      "type": "function"
    },
    {
      "constant": true,
      "inputs": [],
      "name": "currentPos",
      "outputs": [
        {
          "internalType": "uint256",
          "name": "",
          "type": "uint256"
        }
      ],
      "payable": false,
      "stateMutability": "view",
      "type": "function"
    },
    {
      "constant": false,
      "inputs": [
        {
          "internalType": "string",
          "name": "_symbol",
          "type": "string"
        }
      ],
      "name": "genPToken",
      "outputs": [
        {
          "internalType": "address",
          "name": "",
          "type": "address"
        }
      ],
      "payable": false,
      "stateMutability": "nonpayable",
      "type": "function"
    },
    {
      "constant": true,
      "inputs": [],
      "name": "isOwner",
      "outputs": [
        {
          "internalType": "bool",
          "name": "",
          "type": "bool"
        }
      ],
      "payable": false,
      "stateMutability": "view",
      "type": "function"
    },
    {
      "constant": true,
      "inputs": [],
      "name": "owner",
      "outputs": [
        {
          "internalType": "address",
          "name": "",
          "type": "address"
        }
      ],
      "payable": false,
      "stateMutability": "view",
      "type": "function"
    },
    {
      "constant": true,
      "inputs": [
        {
          "internalType": "uint256",
          "name": "",
          "type": "uint256"
        }
      ],
      "name": "positions",
      "outputs": [
        {
          "internalType": "address",
          "name": "owner",
          "type": "address"
        },
        {
          "internalType": "uint256",
          "name": "productionId",
          "type": "uint256"
        },
        {
          "internalType": "uint256",
          "name": "debtShare",
          "type": "uint256"
        }
      ],
      "payable": false,
      "stateMutability": "view",
      "type": "function"
    },
    {
      "constant": true,
      "inputs": [
        {
          "internalType": "uint256",
          "name": "",
          "type": "uint256"
        }
      ],
      "name": "productions",
      "outputs": [
        {
          "internalType": "address",
          "name": "coinToken",
          "type": "address"
        },
        {
          "internalType": "address",
          "name": "currencyToken",
          "type": "address"
        },
        {
          "internalType": "address",
          "name": "borrowToken",
          "type": "address"
        },
        {
          "internalType": "bool",
          "name": "isOpen",
          "type": "bool"
        },
        {
          "internalType": "bool",
          "name": "canBorrow",
          "type": "bool"
        },
        {
          "internalType": "address",
          "name": "goblin",
          "type": "address"
        },
        {
          "internalType": "uint256",
          "name": "minDebt",
          "type": "uint256"
        },
        {
          "internalType": "uint256",
          "name": "openFactor",
          "type": "uint256"
        },
        {
          "internalType": "uint256",
          "name": "liquidateFactor",
          "type": "uint256"
        }
      ],
      "payable": false,
      "stateMutability": "view",
      "type": "function"
    },
    {
      "constant": false,
      "inputs": [],
      "name": "renounceOwnership",
      "outputs": [],
      "payable": false,
      "stateMutability": "nonpayable",
      "type": "function"
    },
    {
      "constant": false,
      "inputs": [
        {
          "internalType": "address",
          "name": "newOwner",
          "type": "address"
        }
      ],
      "name": "transferOwnership",
      "outputs": [],
      "payable": false,
      "stateMutability": "nonpayable",
      "type": "function"
    },
    {
      "constant": true,
      "inputs": [
        {
          "internalType": "uint256",
          "name": "posId",
          "type": "uint256"
        }
      ],
      "name": "positionInfo",
      "outputs": [
        {
          "internalType": "uint256",
          "name": "",
          "type": "uint256"
        },
        {
          "internalType": "uint256",
          "name": "",
          "type": "uint256"
        },
        {
          "internalType": "uint256",
          "name": "",
          "type": "uint256"
        },
        {
          "internalType": "address",
          "name": "",
          "type": "address"
        }
      ],
      "payable": false,
      "stateMutability": "view",
      "type": "function"
    },
    {
      "constant": true,
      "inputs": [
        {
          "internalType": "address",
          "name": "token",
          "type": "address"
        }
      ],
      "name": "totalToken",
      "outputs": [
        {
          "internalType": "uint256",
          "name": "",
          "type": "uint256"
        }
      ],
      "payable": false,
      "stateMutability": "view",
      "type": "function"
    },
    {
      "constant": true,
      "inputs": [
        {
          "internalType": "address",
          "name": "token",
          "type": "address"
        },
        {
          "internalType": "uint256",
          "name": "debtShare",
          "type": "uint256"
        }
      ],
      "name": "debtShareToVal",
      "outputs": [
        {
          "internalType": "uint256",
          "name": "",
          "type": "uint256"
        }
      ],
      "payable": false,
      "stateMutability": "view",
      "type": "function"
    },
    {
      "constant": true,
      "inputs": [
        {
          "internalType": "address",
          "name": "token",
          "type": "address"
        },
        {
          "internalType": "uint256",
          "name": "debtVal",
          "type": "uint256"
        }
      ],
      "name": "debtValToShare",
      "outputs": [
        {
          "internalType": "uint256",
          "name": "",
          "type": "uint256"
        }
      ],
      "payable": false,
      "stateMutability": "view",
      "type": "function"
    },
    {
      "constant": false,
      "inputs": [
        {
          "internalType": "address",
          "name": "token",
          "type": "address"
        },
        {
          "internalType": "uint256",
          "name": "amount",
          "type": "uint256"
        }
      ],
      "name": "deposit",
      "outputs": [],
      "payable": true,
      "stateMutability": "payable",
      "type": "function"
    },
    {
      "constant": false,
      "inputs": [
        {
          "internalType": "address",
          "name": "token",
          "type": "address"
        },
        {
          "internalType": "uint256",
          "name": "pAmount",
          "type": "uint256"
        }
      ],
      "name": "withdraw",
      "outputs": [],
      "payable": false,
      "stateMutability": "nonpayable",
      "type": "function"
    },
    {
      "constant": false,
      "inputs": [
        {
          "internalType": "uint256",
          "name": "posId",
          "type": "uint256"
        },
        {
          "internalType": "uint256",
          "name": "pid",
          "type": "uint256"
        },
        {
          "internalType": "uint256",
          "name": "borrow",
          "type": "uint256"
        },
        {
          "internalType": "bytes",
          "name": "data",
          "type": "bytes"
        }
      ],
      "name": "opPosition",
      "outputs": [],
      "payable": true,
      "stateMutability": "payable",
      "type": "function"
    },
    {
      "constant": false,
      "inputs": [
        {
          "internalType": "uint256",
          "name": "posId",
          "type": "uint256"
        }
      ],
      "name": "liquidate",
      "outputs": [],
      "payable": true,
      "stateMutability": "payable",
      "type": "function"
    },
    {
      "constant": false,
      "inputs": [
        {
          "internalType": "contract IBankConfig",
          "name": "_config",
          "type": "address"
        }
      ],
      "name": "updateConfig",
      "outputs": [],
      "payable": false,
      "stateMutability": "nonpayable",
      "type": "function"
    },
    {
      "constant": false,
      "inputs": [
        {
          "internalType": "address",
          "name": "token",
          "type": "address"
        },
        {
          "internalType": "string",
          "name": "_symbol",
          "type": "string"
        }
      ],
      "name": "addToken",
      "outputs": [],
      "payable": false,
      "stateMutability": "nonpayable",
      "type": "function"
    },
    {
      "constant": false,
      "inputs": [
        {
          "internalType": "address",
          "name": "token",
          "type": "address"
        },
        {
          "internalType": "bool",
          "name": "canDeposit",
          "type": "bool"
        },
        {
          "internalType": "bool",
          "name": "canWithdraw",
          "type": "bool"
        }
      ],
      "name": "updateToken",
      "outputs": [],
      "payable": false,
      "stateMutability": "nonpayable",
      "type": "function"
    },
    {
      "constant": false,
      "inputs": [
        {
          "internalType": "uint256",
          "name": "pid",
          "type": "uint256"
        },
        {
          "internalType": "bool",
          "name": "isOpen",
          "type": "bool"
        },
        {
          "internalType": "bool",
          "name": "canBorrow",
          "type": "bool"
        },
        {
          "internalType": "address",
          "name": "coinToken",
          "type": "address"
        },
        {
          "internalType": "address",
          "name": "currencyToken",
          "type": "address"
        },
        {
          "internalType": "address",
          "name": "borrowToken",
          "type": "address"
        },
        {
          "internalType": "address",
          "name": "goblin",
          "type": "address"
        },
        {
          "internalType": "uint256",
          "name": "minDebt",
          "type": "uint256"
        },
        {
          "internalType": "uint256",
          "name": "openFactor",
          "type": "uint256"
        },
        {
          "internalType": "uint256",
          "name": "liquidateFactor",
          "type": "uint256"
        }
      ],
      "name": "opProduction",
      "outputs": [],
      "payable": false,
      "stateMutability": "nonpayable",
      "type": "function"
    },
    {
      "constant": false,
      "inputs": [
        {
          "internalType": "address",
          "name": "token",
          "type": "address"
        }
      ],
      "name": "calInterest",
      "outputs": [],
      "payable": false,
      "stateMutability": "nonpayable",
      "type": "function"
    },
    {
      "constant": false,
      "inputs": [
        {
          "internalType": "address",
          "name": "token",
          "type": "address"
        },
        {
          "internalType": "address",
          "name": "to",
          "type": "address"
        },
        {
          "internalType": "uint256",
          "name": "value",
          "type": "uint256"
        }
      ],
      "name": "withdrawReserve",
      "outputs": [],
      "payable": false,
      "stateMutability": "nonpayable",
      "type": "function"
    }
  ],
  "bytecode": "0x60806040526001600555600160075534801561001a57600080fd5b50336000806101000a81548173ffffffffffffffffffffffffffffffffffffffff021916908373ffffffffffffffffffffffffffffffffffffffff1602179055506000809054906101000a900473ffffffffffffffffffffffffffffffffffffffff1673ffffffffffffffffffffffffffffffffffffffff16600073ffffffffffffffffffffffffffffffffffffffff167f8be0079c531659141344cd1fd0a4f28419497f9722a3daafe3b4186f6b6457e060405160405180910390a360018081905550616f7380620000ee6000396000f3fe6080604052600436106200016a5760003560e01c806380c3b8c211620000c75780639f776b6a11620000795780639f776b6a1462000b46578063ae1914f81462000b74578063b2fd231f1462000bf3578063c879d8c61462000c21578063f2fde38b1462000c94578063f3fef3a31462000ce9576200016a565b806380c3b8c2146200079757806389097a6a14620008a35780638bc6715e14620009375780638da5cb5b1462000a2d5780638f32d59b1462000a8757806399fbab881462000ab9576200016a565b8063415f12401162000121578063415f124014620005d057806347e7ef2414620006015780635cf3b15f14620006525780636cc919c814620006bb578063715018a614620007105780637db2768c146200072a576200016a565b806306175e9f146200016c57806315292f53146200027b5780632512c19514620003be5780632c8da560146200043157806330c426f814620004de5780633e834e03146200057b575b005b3480156200017957600080fd5b5062000239600480360360208110156200019257600080fd5b8101908080359060200190640100000000811115620001b057600080fd5b820183602082011115620001c357600080fd5b80359060200191846001830284011164010000000083111715620001e657600080fd5b91908080601f016020809104026020016040519081016040528093929190818152602001838380828437600081840152601f19601f82011690508083019250505050505050919291929050505062000d48565b604051808273ffffffffffffffffffffffffffffffffffffffff1673ffffffffffffffffffffffffffffffffffffffff16815260200191505060405180910390f35b3480156200028857600080fd5b50620002b860048036036020811015620002a157600080fd5b810190808035906020019092919050505062000df0565b604051808a73ffffffffffffffffffffffffffffffffffffffff1673ffffffffffffffffffffffffffffffffffffffff1681526020018973ffffffffffffffffffffffffffffffffffffffff1673ffffffffffffffffffffffffffffffffffffffff1681526020018873ffffffffffffffffffffffffffffffffffffffff1673ffffffffffffffffffffffffffffffffffffffff16815260200187151515158152602001861515151581526020018573ffffffffffffffffffffffffffffffffffffffff1673ffffffffffffffffffffffffffffffffffffffff168152602001848152602001838152602001828152602001995050505050505050505060405180910390f35b348015620003cb57600080fd5b506200041b60048036036040811015620003e457600080fd5b81019080803573ffffffffffffffffffffffffffffffffffffffff1690602001909291908035906020019092919050505062000ed8565b6040518082815260200191505060405180910390f35b3480156200043e57600080fd5b50620004dc600480360360408110156200045757600080fd5b81019080803573ffffffffffffffffffffffffffffffffffffffff169060200190929190803590602001906401000000008111156200049557600080fd5b820183602082011115620004a857600080fd5b80359060200191846001830284011164010000000083111715620004cb57600080fd5b909192939192939050505062000ff4565b005b6200057960048036036080811015620004f657600080fd5b81019080803590602001909291908035906020019092919080359060200190929190803590602001906401000000008111156200053257600080fd5b8201836020820111156200054557600080fd5b803590602001918460018302840111640100000000831117156200056857600080fd5b9091929391929390505050620012a2565b005b3480156200058857600080fd5b50620005ce60048036036020811015620005a157600080fd5b81019080803573ffffffffffffffffffffffffffffffffffffffff16906020019092919050505062001f5a565b005b620005ff60048036036020811015620005e857600080fd5b810190808035906020019092919050505062002294565b005b62000650600480360360408110156200061957600080fd5b81019080803573ffffffffffffffffffffffffffffffffffffffff1690602001909291908035906020019092919050505062002bc4565b005b3480156200065f57600080fd5b50620006a5600480360360208110156200067857600080fd5b81019080803573ffffffffffffffffffffffffffffffffffffffff16906020019092919050505062002f7a565b6040518082815260200191505060405180910390f35b348015620006c857600080fd5b506200070e60048036036020811015620006e157600080fd5b81019080803573ffffffffffffffffffffffffffffffffffffffff169060200190929190505050620030e3565b005b3480156200071d57600080fd5b5062000728620031a4565b005b3480156200073757600080fd5b5062000795600480360360608110156200075057600080fd5b81019080803573ffffffffffffffffffffffffffffffffffffffff169060200190929190803515159060200190929190803515159060200190929190505050620032e0565b005b348015620007a457600080fd5b50620007ea60048036036020811015620007bd57600080fd5b81019080803573ffffffffffffffffffffffffffffffffffffffff16906020019092919050505062003463565b604051808b73ffffffffffffffffffffffffffffffffffffffff1673ffffffffffffffffffffffffffffffffffffffff1681526020018a73ffffffffffffffffffffffffffffffffffffffff1673ffffffffffffffffffffffffffffffffffffffff1681526020018915151515815260200188151515158152602001871515151581526020018681526020018581526020018481526020018381526020018281526020019a505050505050505050505060405180910390f35b348015620008b057600080fd5b50620008e060048036036020811015620008c957600080fd5b81019080803590602001909291905050506200351e565b604051808581526020018481526020018381526020018273ffffffffffffffffffffffffffffffffffffffff1673ffffffffffffffffffffffffffffffffffffffff16815260200194505050505060405180910390f35b3480156200094457600080fd5b5062000a2b60048036036101408110156200095e57600080fd5b8101908080359060200190929190803515159060200190929190803515159060200190929190803573ffffffffffffffffffffffffffffffffffffffff169060200190929190803573ffffffffffffffffffffffffffffffffffffffff169060200190929190803573ffffffffffffffffffffffffffffffffffffffff169060200190929190803573ffffffffffffffffffffffffffffffffffffffff169060200190929190803590602001909291908035906020019092919080359060200190929190505050620036d0565b005b34801562000a3a57600080fd5b5062000a4562003970565b604051808273ffffffffffffffffffffffffffffffffffffffff1673ffffffffffffffffffffffffffffffffffffffff16815260200191505060405180910390f35b34801562000a9457600080fd5b5062000a9f62003999565b604051808215151515815260200191505060405180910390f35b34801562000ac657600080fd5b5062000af66004803603602081101562000adf57600080fd5b8101908080359060200190929190505050620039f0565b604051808473ffffffffffffffffffffffffffffffffffffffff1673ffffffffffffffffffffffffffffffffffffffff168152602001838152602001828152602001935050505060405180910390f35b34801562000b5357600080fd5b5062000b5e62003a3a565b6040518082815260200191505060405180910390f35b34801562000b8157600080fd5b5062000bf16004803603606081101562000b9a57600080fd5b81019080803573ffffffffffffffffffffffffffffffffffffffff169060200190929190803573ffffffffffffffffffffffffffffffffffffffff1690602001909291908035906020019092919050505062003a40565b005b34801562000c0057600080fd5b5062000c0b62003d26565b6040518082815260200191505060405180910390f35b34801562000c2e57600080fd5b5062000c7e6004803603604081101562000c4757600080fd5b81019080803573ffffffffffffffffffffffffffffffffffffffff1690602001909291908035906020019092919050505062003d2c565b6040518082815260200191505060405180910390f35b34801562000ca157600080fd5b5062000ce76004803603602081101562000cba57600080fd5b81019080803573ffffffffffffffffffffffffffffffffffffffff16906020019092919050505062003e48565b005b34801562000cf657600080fd5b5062000d466004803603604081101562000d0f57600080fd5b81019080803573ffffffffffffffffffffffffffffffffffffffff1690602001909291908035906020019092919050505062003ed3565b005b60008160405162000d59906200509d565b8080602001828103825283818151815260200191508051906020019080838360005b8381101562000d9857808201518184015260208101905062000d7b565b50505050905090810190601f16801562000dc65780820380516001836020036101000a031916815260200191505b5092505050604051809103906000f08015801562000de8573d6000803e3d6000fd5b509050919050565b60046020528060005260406000206000915090508060000160009054906101000a900473ffffffffffffffffffffffffffffffffffffffff16908060010160009054906101000a900473ffffffffffffffffffffffffffffffffffffffff16908060020160009054906101000a900473ffffffffffffffffffffffffffffffffffffffff16908060020160149054906101000a900460ff16908060020160159054906101000a900460ff16908060030160009054906101000a900473ffffffffffffffffffffffffffffffffffffffff16908060040154908060050154908060060154905089565b600080600360008573ffffffffffffffffffffffffffffffffffffffff1673ffffffffffffffffffffffffffffffffffffffff16815260200190815260200160002090508060010160149054906101000a900460ff1662000fa1576040517f08c379a00000000000000000000000000000000000000000000000000000000081526004018080602001828103825260108152602001807f746f6b656e206e6f74206578697374730000000000000000000000000000000081525060200191505060405180910390fd5b60008160040154141562000fb9578291505062000fee565b62000fea816004015462000fdb8360030154866200425590919063ffffffff16565b620042e090919063ffffffff16565b9150505b92915050565b62000ffe62003999565b62001071576040517f08c379a00000000000000000000000000000000000000000000000000000000081526004018080602001828103825260208152602001807f4f776e61626c653a2063616c6c6572206973206e6f7420746865206f776e657281525060200191505060405180910390fd5b6000600360008573ffffffffffffffffffffffffffffffffffffffff1673ffffffffffffffffffffffffffffffffffffffff16815260200190815260200160002090508060010160149054906101000a900460ff16156200113a576040517f08c379a00000000000000000000000000000000000000000000000000000000081526004018080602001828103825260148152602001807f746f6b656e20616c72656164792065786973747300000000000000000000000081525060200191505060405180910390fd5b60018160010160146101000a81548160ff0219169083151502179055506000620011a884848080601f016020809104026020016040519081016040528093929190818152602001838380828437600081840152601f19601f8201169050808301925050505050505062000d48565b9050848260000160006101000a81548173ffffffffffffffffffffffffffffffffffffffff021916908373ffffffffffffffffffffffffffffffffffffffff160217905550808260010160006101000a81548173ffffffffffffffffffffffffffffffffffffffff021916908373ffffffffffffffffffffffffffffffffffffffff16021790555060018260010160156101000a81548160ff02191690831515021790555060018260010160166101000a81548160ff021916908315150217905550600082600201819055506000826003018190555060008260040181905550600082600501819055504282600601819055505050505050565b3273ffffffffffffffffffffffffffffffffffffffff163373ffffffffffffffffffffffffffffffffffffffff161462001344576040517f08c379a00000000000000000000000000000000000000000000000000000000081526004018080602001828103825260078152602001807f6e6f7420656f610000000000000000000000000000000000000000000000000081525060200191505060405180910390fd5b60018060008282540192505081905550600060015490506000861415620013f2576007549550600760008154809291906001019190505550336006600088815260200190815260200160002060000160006101000a81548173ffffffffffffffffffffffffffffffffffffffff021916908373ffffffffffffffffffffffffffffffffffffffff1602179055508460066000888152602001908152602001600020600101819055506200155c565b60075486106200146a576040517f08c379a000000000000000000000000000000000000000000000000000000000815260040180806020018281038252600f8152602001807f62616420706f736974696f6e206964000000000000000000000000000000000081525060200191505060405180910390fd5b3373ffffffffffffffffffffffffffffffffffffffff166006600088815260200190815260200160002060000160009054906101000a900473ffffffffffffffffffffffffffffffffffffffff1673ffffffffffffffffffffffffffffffffffffffff161462001542576040517f08c379a00000000000000000000000000000000000000000000000000000000081526004018080602001828103825260128152602001807f6e6f7420706f736974696f6e206f776e6572000000000000000000000000000081525060200191505060405180910390fd5b600660008781526020019081526020016000206001015494505b60006004600087815260200190815260200160002090508060020160149054906101000a900460ff16620015f8576040517f08c379a00000000000000000000000000000000000000000000000000000000081526004018080602001828103825260158152602001807f50726f64756374696f6e206e6f7420657869737473000000000000000000000081525060200191505060405180910390fd5b60008514806200161657508060020160159054906101000a900460ff165b62001689576040517f08c379a00000000000000000000000000000000000000000000000000000000081526004018080602001828103825260198152602001807f50726f64756374696f6e2063616e206e6f7420626f72726f770000000000000081525060200191505060405180910390fd5b620016b88160020160009054906101000a900473ffffffffffffffffffffffffffffffffffffffff1662001f5a565b6000620016ec86620016dd600660008c81526020019081526020016000208562004371565b620044a690919063ffffffff16565b905060008073ffffffffffffffffffffffffffffffffffffffff168360020160009054906101000a900473ffffffffffffffffffffffffffffffffffffffff1673ffffffffffffffffffffffffffffffffffffffff1614905060003490506000809050821562001874576200176b8983620044a690919063ffffffff16565b9150478211158015620017e45750600360008660020160009054906101000a900473ffffffffffffffffffffffffffffffffffffffff1673ffffffffffffffffffffffffffffffffffffffff1673ffffffffffffffffffffffffffffffffffffffff168152602001908152602001600020600201548411155b62001857576040517f08c379a000000000000000000000000000000000000000000000000000000000815260040180806020018281038252601b8152602001807f696e73756666696369656e7420485420696e207468652062616e6b000000000081525060200191505060405180910390fd5b6200186c82476200452f90919063ffffffff16565b9050620019e0565b620018a38560020160009054906101000a900473ffffffffffffffffffffffffffffffffffffffff16620045b9565b90508089111580156200191c5750600360008660020160009054906101000a900473ffffffffffffffffffffffffffffffffffffffff1673ffffffffffffffffffffffffffffffffffffffff1673ffffffffffffffffffffffffffffffffffffffff168152602001908152602001600020600201548411155b62001973576040517f08c379a000000000000000000000000000000000000000000000000000000000815260040180806020018281038252602481526020018062006f1b6024913960400191505060405180910390fd5b6200198889826200452f90919063ffffffff16565b9050620019df8560020160009054906101000a900473ffffffffffffffffffffffffffffffffffffffff168660030160009054906101000a900473ffffffffffffffffffffffffffffffffffffffff168b6200467d565b5b8460030160009054906101000a900473ffffffffffffffffffffffffffffffffffffffff1673ffffffffffffffffffffffffffffffffffffffff166362896f1e838d338960020160009054906101000a900473ffffffffffffffffffffffffffffffffffffffff168e8a8f8f6040518963ffffffff1660e01b8152600401808881526020018773ffffffffffffffffffffffffffffffffffffffff1673ffffffffffffffffffffffffffffffffffffffff1681526020018673ffffffffffffffffffffffffffffffffffffffff1673ffffffffffffffffffffffffffffffffffffffff168152602001858152602001848152602001806020018281038252848482818152602001925080828437600081840152601f19601f820116905080830192505050985050505050505050506000604051808303818588803b15801562001b2857600080fd5b505af115801562001b3d573d6000803e3d6000fd5b505050505060008362001b935762001b8d8262001b7e8860020160009054906101000a900473ffffffffffffffffffffffffffffffffffffffff16620045b9565b6200452f90919063ffffffff16565b62001ba9565b62001ba882476200452f90919063ffffffff16565b5b90508481111562001c1f5762001bc985826200452f90919063ffffffff16565b9050600094508362001c0c5762001c068660020160009054906101000a900473ffffffffffffffffffffffffffffffffffffffff1633836200487e565b62001c19565b62001c18338262004a7f565b5b62001e94565b8085111562001e935762001c3d81866200452f90919063ffffffff16565b945060009050856004015485101562001cbe576040517f08c379a00000000000000000000000000000000000000000000000000000000081526004018080602001828103825260138152602001807f746f6f20736d616c6c20646562742073697a650000000000000000000000000081525060200191505060405180910390fd5b60008660030160009054906101000a900473ffffffffffffffffffffffffffffffffffffffff1673ffffffffffffffffffffffffffffffffffffffff1663ee9e9bc98e8960020160009054906101000a900473ffffffffffffffffffffffffffffffffffffffff166040518363ffffffff1660e01b8152600401808381526020018273ffffffffffffffffffffffffffffffffffffffff1673ffffffffffffffffffffffffffffffffffffffff1681526020019250505060206040518083038186803b15801562001d8e57600080fd5b505afa15801562001da3573d6000803e3d6000fd5b505050506040513d602081101562001dba57600080fd5b8101908080519060200190929190505050905062001de4612710876200425590919063ffffffff16565b62001dfd8860050154836200425590919063ffffffff16565b101562001e72576040517f08c379a000000000000000000000000000000000000000000000000000000000815260040180806020018281038252600f8152602001807f62616420776f726b20666163746f72000000000000000000000000000000000081525060200191505060405180910390fd5b62001e91600660008f8152602001908152602001600020888862004bea565b505b5b8b7f1d2404099727da061c9dd3ca867e4296c2a118f3cf04d89ccb4a6163f442290a8683604051808381526020018281526020019250505060405180910390a2505050505050600154811462001f52576040517f08c379a000000000000000000000000000000000000000000000000000000000815260040180806020018281038252601f8152602001807f5265656e7472616e637947756172643a207265656e7472616e742063616c6c0081525060200191505060405180910390fd5b505050505050565b6000600360008373ffffffffffffffffffffffffffffffffffffffff1673ffffffffffffffffffffffffffffffffffffffff16815260200190815260200160002090508060010160149054906101000a900460ff1662002022576040517f08c379a00000000000000000000000000000000000000000000000000000000081526004018080602001828103825260108152602001807f746f6b656e206e6f74206578697374730000000000000000000000000000000081525060200191505060405180910390fd5b8060060154421115620022905760006200204a8260060154426200452f90919063ffffffff16565b90506000826003015490506000620020628562002f7a565b90506000600260009054906101000a900473ffffffffffffffffffffffffffffffffffffffff1673ffffffffffffffffffffffffffffffffffffffff1663c6dfa13f84846040518363ffffffff1660e01b8152600401808381526020018281526020019250505060206040518083038186803b158015620020e257600080fd5b505afa158015620020f7573d6000803e3d6000fd5b505050506040513d60208110156200210e57600080fd5b81019080805190602001909291905050509050600062002168670de0b6b3a764000062002159866200214a89876200425590919063ffffffff16565b6200425590919063ffffffff16565b620042e090919063ffffffff16565b905060006200223c6127106200222d600260009054906101000a900473ffffffffffffffffffffffffffffffffffffffff1673ffffffffffffffffffffffffffffffffffffffff1663249c11bd6040518163ffffffff1660e01b815260040160206040518083038186803b158015620021e057600080fd5b505afa158015620021f5573d6000803e3d6000fd5b505050506040513d60208110156200220c57600080fd5b8101908080519060200190929190505050856200425590919063ffffffff16565b620042e090919063ffffffff16565b905062002257818860050154620044a690919063ffffffff16565b876005018190555062002278828860030154620044a690919063ffffffff16565b87600301819055504287600601819055505050505050505b5050565b3273ffffffffffffffffffffffffffffffffffffffff163373ffffffffffffffffffffffffffffffffffffffff161462002336576040517f08c379a00000000000000000000000000000000000000000000000000000000081526004018080602001828103825260078152602001807f6e6f7420656f610000000000000000000000000000000000000000000000000081525060200191505060405180910390fd5b600180600082825401925050819055506000600154905060006006600084815260200190815260200160002090506000816002015411620023df576040517f08c379a00000000000000000000000000000000000000000000000000000000081526004018080602001828103825260078152602001807f6e6f20646562740000000000000000000000000000000000000000000000000081525060200191505060405180910390fd5b600060046000836001015481526020019081526020016000209050600062002408838362004371565b905060008260030160009054906101000a900473ffffffffffffffffffffffffffffffffffffffff1673ffffffffffffffffffffffffffffffffffffffff1663ee9e9bc9878560020160009054906101000a900473ffffffffffffffffffffffffffffffffffffffff166040518363ffffffff1660e01b8152600401808381526020018273ffffffffffffffffffffffffffffffffffffffff1673ffffffffffffffffffffffffffffffffffffffff1681526020019250505060206040518083038186803b158015620024da57600080fd5b505afa158015620024ef573d6000803e3d6000fd5b505050506040513d60208110156200250657600080fd5b8101908080519060200190929190505050905062002530612710836200425590919063ffffffff16565b620025498460060154836200425590919063ffffffff16565b10620025bd576040517f08c379a000000000000000000000000000000000000000000000000000000000815260040180806020018281038252600f8152602001807f63616e2774206c6971756964617465000000000000000000000000000000000081525060200191505060405180910390fd5b60008073ffffffffffffffffffffffffffffffffffffffff168460020160009054906101000a900473ffffffffffffffffffffffffffffffffffffffff1673ffffffffffffffffffffffffffffffffffffffff1614905060008162002651576200264b8560020160009054906101000a900473ffffffffffffffffffffffffffffffffffffffff16620045b9565b62002653565b475b90508460030160009054906101000a900473ffffffffffffffffffffffffffffffffffffffff1673ffffffffffffffffffffffffffffffffffffffff1663060336ec898860000160009054906101000a900473ffffffffffffffffffffffffffffffffffffffff168860020160009054906101000a900473ffffffffffffffffffffffffffffffffffffffff166040518463ffffffff1660e01b8152600401808481526020018373ffffffffffffffffffffffffffffffffffffffff1673ffffffffffffffffffffffffffffffffffffffff1681526020018273ffffffffffffffffffffffffffffffffffffffff1673ffffffffffffffffffffffffffffffffffffffff1681526020019350505050600060405180830381600087803b1580156200277d57600080fd5b505af115801562002792573d6000803e3d6000fd5b50505050600082620027d357620027cd8660020160009054906101000a900473ffffffffffffffffffffffffffffffffffffffff16620045b9565b620027d5565b475b9050620027ec82826200452f90919063ffffffff16565b90506000620028c0612710620028b1600260009054906101000a900473ffffffffffffffffffffffffffffffffffffffff1673ffffffffffffffffffffffffffffffffffffffff1663c8792e246040518163ffffffff1660e01b815260040160206040518083038186803b1580156200286457600080fd5b505afa15801562002879573d6000803e3d6000fd5b505050506040513d60208110156200289057600080fd5b8101908080519060200190929190505050856200425590919063ffffffff16565b620042e090919063ffffffff16565b90506000620028d982846200452f90919063ffffffff16565b9050600080905060008311156200293557856200292757620029218960020160009054906101000a900473ffffffffffffffffffffffffffffffffffffffff1633856200487e565b62002934565b62002933338462004a7f565b5b5b87821115620029ed576200295388836200452f90919063ffffffff16565b905085620029b657620029b08960020160009054906101000a900473ffffffffffffffffffffffffffffffffffffffff168b60000160009054906101000a900473ffffffffffffffffffffffffffffffffffffffff16836200487e565b620029e7565b620029e68a60000160009054906101000a900473ffffffffffffffffffffffffffffffffffffffff168262004a7f565b5b62002ae7565b62002a7c8262002a6d8a600360008e60020160009054906101000a900473ffffffffffffffffffffffffffffffffffffffff1673ffffffffffffffffffffffffffffffffffffffff1673ffffffffffffffffffffffffffffffffffffffff168152602001908152602001600020600201546200452f90919063ffffffff16565b620044a690919063ffffffff16565b600360008b60020160009054906101000a900473ffffffffffffffffffffffffffffffffffffffff1673ffffffffffffffffffffffffffffffffffffffff1673ffffffffffffffffffffffffffffffffffffffff168152602001908152602001600020600201819055505b3373ffffffffffffffffffffffffffffffffffffffff168c7fd47e75cd6a3c0e59e63919b525eb69ce3bfd7f8de011363e440f2c58273f74d98584604051808381526020018281526020019250505060405180910390a350505050505050505050600154811462002bc0576040517f08c379a000000000000000000000000000000000000000000000000000000000815260040180806020018281038252601f8152602001807f5265656e7472616e637947756172643a207265656e7472616e742063616c6c0081525060200191505060405180910390fd5b5050565b60018060008282540192505081905550600060015490506000600360008573ffffffffffffffffffffffffffffffffffffffff1673ffffffffffffffffffffffffffffffffffffffff16815260200190815260200160002090508060010160149054906101000a900460ff16801562002c4b57508060010160159054906101000a900460ff165b62002ca2576040517f08c379a000000000000000000000000000000000000000000000000000000000815260040180806020018281038252602181526020018062006ed96021913960400191505060405180910390fd5b62002cad8462001f5a565b600073ffffffffffffffffffffffffffffffffffffffff168473ffffffffffffffffffffffffffffffffffffffff16141562002cec5734925062002cfb565b62002cfa8433308662004d21565b5b62002d14838260020154620044a690919063ffffffff16565b8160020181905550600062002d3d8462002d2e8762002f7a565b6200452f90919063ffffffff16565b905060008260010160009054906101000a900473ffffffffffffffffffffffffffffffffffffffff1673ffffffffffffffffffffffffffffffffffffffff166318160ddd6040518163ffffffff1660e01b815260040160206040518083038186803b15801562002dac57600080fd5b505afa15801562002dc1573d6000803e3d6000fd5b505050506040513d602081101562002dd857600080fd5b8101908080519060200190929190505050905060008083148062002dfc5750600082145b62002e305762002e2a8362002e1b84896200425590919063ffffffff16565b620042e090919063ffffffff16565b62002e32565b855b90508360010160009054906101000a900473ffffffffffffffffffffffffffffffffffffffff1673ffffffffffffffffffffffffffffffffffffffff166340c10f1933836040518363ffffffff1660e01b8152600401808373ffffffffffffffffffffffffffffffffffffffff1673ffffffffffffffffffffffffffffffffffffffff16815260200182815260200192505050600060405180830381600087803b15801562002ee057600080fd5b505af115801562002ef5573d6000803e3d6000fd5b5050505050505050600154811462002f75576040517f08c379a000000000000000000000000000000000000000000000000000000000815260040180806020018281038252601f8152602001807f5265656e7472616e637947756172643a207265656e7472616e742063616c6c0081525060200191505060405180910390fd5b505050565b600080600360008473ffffffffffffffffffffffffffffffffffffffff1673ffffffffffffffffffffffffffffffffffffffff16815260200190815260200160002090508060010160149054906101000a900460ff1662003043576040517f08c379a00000000000000000000000000000000000000000000000000000000081526004018080602001828103825260108152602001807f746f6b656e206e6f74206578697374730000000000000000000000000000000081525060200191505060405180910390fd5b60008073ffffffffffffffffffffffffffffffffffffffff168473ffffffffffffffffffffffffffffffffffffffff16146200308a576200308484620045b9565b6200308c565b475b905080826002015410620030a15780620030a7565b81600201545b9050620030da8260050154620030cb846003015484620044a690919063ffffffff16565b6200452f90919063ffffffff16565b92505050919050565b620030ed62003999565b62003160576040517f08c379a00000000000000000000000000000000000000000000000000000000081526004018080602001828103825260208152602001807f4f776e61626c653a2063616c6c6572206973206e6f7420746865206f776e657281525060200191505060405180910390fd5b80600260006101000a81548173ffffffffffffffffffffffffffffffffffffffff021916908373ffffffffffffffffffffffffffffffffffffffff16021790555050565b620031ae62003999565b62003221576040517f08c379a00000000000000000000000000000000000000000000000000000000081526004018080602001828103825260208152602001807f4f776e61626c653a2063616c6c6572206973206e6f7420746865206f776e657281525060200191505060405180910390fd5b600073ffffffffffffffffffffffffffffffffffffffff166000809054906101000a900473ffffffffffffffffffffffffffffffffffffffff1673ffffffffffffffffffffffffffffffffffffffff167f8be0079c531659141344cd1fd0a4f28419497f9722a3daafe3b4186f6b6457e060405160405180910390a360008060006101000a81548173ffffffffffffffffffffffffffffffffffffffff021916908373ffffffffffffffffffffffffffffffffffffffff160217905550565b620032ea62003999565b6200335d576040517f08c379a00000000000000000000000000000000000000000000000000000000081526004018080602001828103825260208152602001807f4f776e61626c653a2063616c6c6572206973206e6f7420746865206f776e657281525060200191505060405180910390fd5b6000600360008573ffffffffffffffffffffffffffffffffffffffff1673ffffffffffffffffffffffffffffffffffffffff16815260200190815260200160002090508060010160149054906101000a900460ff1662003425576040517f08c379a00000000000000000000000000000000000000000000000000000000081526004018080602001828103825260108152602001807f746f6b656e206e6f74206578697374730000000000000000000000000000000081525060200191505060405180910390fd5b828160010160156101000a81548160ff021916908315150217905550818160010160166101000a81548160ff02191690831515021790555050505050565b60036020528060005260406000206000915090508060000160009054906101000a900473ffffffffffffffffffffffffffffffffffffffff16908060010160009054906101000a900473ffffffffffffffffffffffffffffffffffffffff16908060010160149054906101000a900460ff16908060010160159054906101000a900460ff16908060010160169054906101000a900460ff1690806002015490806003015490806004015490806005015490806006015490508a565b600080600080600060066000878152602001908152602001600020905060006004600083600101548152602001908152602001600020905081600101548160030160009054906101000a900473ffffffffffffffffffffffffffffffffffffffff1673ffffffffffffffffffffffffffffffffffffffff1663ee9e9bc9898460020160009054906101000a900473ffffffffffffffffffffffffffffffffffffffff166040518363ffffffff1660e01b8152600401808381526020018273ffffffffffffffffffffffffffffffffffffffff1673ffffffffffffffffffffffffffffffffffffffff1681526020019250505060206040518083038186803b1580156200362957600080fd5b505afa1580156200363e573d6000803e3d6000fd5b505050506040513d60208110156200365557600080fd5b81019080805190602001909291905050506200369a8360020160009054906101000a900473ffffffffffffffffffffffffffffffffffffffff16856002015462000ed8565b8460000160009054906101000a900473ffffffffffffffffffffffffffffffffffffffff16955095509550955050509193509193565b620036da62003999565b6200374d576040517f08c379a00000000000000000000000000000000000000000000000000000000081526004018080602001828103825260208152602001807f4f776e61626c653a2063616c6c6572206973206e6f7420746865206f776e657281525060200191505060405180910390fd5b60008a141562003774576005549950600560008154809291906001019190505550620037ed565b6005548a10620037ec576040517f08c379a00000000000000000000000000000000000000000000000000000000081526004018080602001828103825260118152602001807f6261642070726f64756374696f6e20696400000000000000000000000000000081525060200191505060405180910390fd5b5b6000600460008c81526020019081526020016000209050898160020160146101000a81548160ff021916908315150217905550888160020160156101000a81548160ff021916908315150217905550878160000160006101000a81548173ffffffffffffffffffffffffffffffffffffffff021916908373ffffffffffffffffffffffffffffffffffffffff160217905550868160010160006101000a81548173ffffffffffffffffffffffffffffffffffffffff021916908373ffffffffffffffffffffffffffffffffffffffff160217905550858160020160006101000a81548173ffffffffffffffffffffffffffffffffffffffff021916908373ffffffffffffffffffffffffffffffffffffffff160217905550848160030160006101000a81548173ffffffffffffffffffffffffffffffffffffffff021916908373ffffffffffffffffffffffffffffffffffffffff1602179055508381600401819055508281600501819055508181600601819055505050505050505050505050565b60008060009054906101000a900473ffffffffffffffffffffffffffffffffffffffff16905090565b60008060009054906101000a900473ffffffffffffffffffffffffffffffffffffffff1673ffffffffffffffffffffffffffffffffffffffff163373ffffffffffffffffffffffffffffffffffffffff1614905090565b60066020528060005260406000206000915090508060000160009054906101000a900473ffffffffffffffffffffffffffffffffffffffff16908060010154908060020154905083565b60075481565b62003a4a62003999565b62003abd576040517f08c379a00000000000000000000000000000000000000000000000000000000081526004018080602001828103825260208152602001807f4f776e61626c653a2063616c6c6572206973206e6f7420746865206f776e657281525060200191505060405180910390fd5b60018060008282540192505081905550600060015490506000600360008673ffffffffffffffffffffffffffffffffffffffff1673ffffffffffffffffffffffffffffffffffffffff16815260200190815260200160002090508060010160149054906101000a900460ff1662003b9c576040517f08c379a00000000000000000000000000000000000000000000000000000000081526004018080602001828103825260108152602001807f746f6b656e206e6f74206578697374730000000000000000000000000000000081525060200191505060405180910390fd5b60008073ffffffffffffffffffffffffffffffffffffffff168673ffffffffffffffffffffffffffffffffffffffff161462003be35762003bdd86620045b9565b62003be5565b475b905062003c00848360020154620044a690919063ffffffff16565b811062003c0d5762003c50565b62003c268483600501546200452f90919063ffffffff16565b826005018190555062003c478483600201546200452f90919063ffffffff16565b82600201819055505b600073ffffffffffffffffffffffffffffffffffffffff168673ffffffffffffffffffffffffffffffffffffffff16141562003c985762003c92858562004a7f565b62003ca6565b62003ca58686866200487e565b5b5050600154811462003d20576040517f08c379a000000000000000000000000000000000000000000000000000000000815260040180806020018281038252601f8152602001807f5265656e7472616e637947756172643a207265656e7472616e742063616c6c0081525060200191505060405180910390fd5b50505050565b60055481565b600080600360008573ffffffffffffffffffffffffffffffffffffffff1673ffffffffffffffffffffffffffffffffffffffff16815260200190815260200160002090508060010160149054906101000a900460ff1662003df5576040517f08c379a00000000000000000000000000000000000000000000000000000000081526004018080602001828103825260108152602001807f746f6b656e206e6f74206578697374730000000000000000000000000000000081525060200191505060405180910390fd5b60008160030154141562003e0d578291505062003e42565b62003e3e816003015462003e2f8360040154866200425590919063ffffffff16565b620042e090919063ffffffff16565b9150505b92915050565b62003e5262003999565b62003ec5576040517f08c379a00000000000000000000000000000000000000000000000000000000081526004018080602001828103825260208152602001807f4f776e61626c653a2063616c6c6572206973206e6f7420746865206f776e657281525060200191505060405180910390fd5b62003ed08162004f57565b50565b60018060008282540192505081905550600060015490506000600360008573ffffffffffffffffffffffffffffffffffffffff1673ffffffffffffffffffffffffffffffffffffffff16815260200190815260200160002090508060010160149054906101000a900460ff16801562003f5a57508060010160169054906101000a900460ff165b62003fb1576040517f08c379a000000000000000000000000000000000000000000000000000000000815260040180806020018281038252602281526020018062006e916022913960400191505060405180910390fd5b62003fbc8462001f5a565b6000620040988260010160009054906101000a900473ffffffffffffffffffffffffffffffffffffffff1673ffffffffffffffffffffffffffffffffffffffff166318160ddd6040518163ffffffff1660e01b815260040160206040518083038186803b1580156200402d57600080fd5b505afa15801562004042573d6000803e3d6000fd5b505050506040513d60208110156200405957600080fd5b810190808051906020019092919050505062004089620040798862002f7a565b876200425590919063ffffffff16565b620042e090919063ffffffff16565b9050620040b38183600201546200452f90919063ffffffff16565b82600201819055508160010160009054906101000a900473ffffffffffffffffffffffffffffffffffffffff1673ffffffffffffffffffffffffffffffffffffffff16639dc29fac33866040518363ffffffff1660e01b8152600401808373ffffffffffffffffffffffffffffffffffffffff1673ffffffffffffffffffffffffffffffffffffffff16815260200182815260200192505050600060405180830381600087803b1580156200416757600080fd5b505af11580156200417c573d6000803e3d6000fd5b50505050600073ffffffffffffffffffffffffffffffffffffffff168573ffffffffffffffffffffffffffffffffffffffff161415620041c857620041c2338262004a7f565b620041d6565b620041d58533836200487e565b5b5050600154811462004250576040517f08c379a000000000000000000000000000000000000000000000000000000000815260040180806020018281038252601f8152602001807f5265656e7472616e637947756172643a207265656e7472616e742063616c6c0081525060200191505060405180910390fd5b505050565b6000808314156200426a5760009050620042da565b60008284029050828482816200427c57fe5b0414620042d5576040517f08c379a000000000000000000000000000000000000000000000000000000000815260040180806020018281038252602181526020018062006efa6021913960400191505060405180910390fd5b809150505b92915050565b600080821162004358576040517f08c379a000000000000000000000000000000000000000000000000000000000815260040180806020018281038252601a8152602001807f536166654d6174683a206469766973696f6e206279207a65726f00000000000081525060200191505060405180910390fd5b60008284816200436457fe5b0490508091505092915050565b600080600360008460020160009054906101000a900473ffffffffffffffffffffffffffffffffffffffff1673ffffffffffffffffffffffffffffffffffffffff1673ffffffffffffffffffffffffffffffffffffffff16815260200190815260200160002090506000846002015490506000811115620044995760006200441e8560020160009054906101000a900473ffffffffffffffffffffffffffffffffffffffff168362000ed8565b90506000866002018190555062004443818460020154620044a690919063ffffffff16565b8360020181905550620044648284600401546200452f90919063ffffffff16565b8360040181905550620044858184600301546200452f90919063ffffffff16565b8360030181905550809350505050620044a0565b6000925050505b92915050565b60008082840190508381101562004525576040517f08c379a000000000000000000000000000000000000000000000000000000000815260040180806020018281038252601b8152602001807f536166654d6174683a206164646974696f6e206f766572666c6f77000000000081525060200191505060405180910390fd5b8091505092915050565b600082821115620045a8576040517f08c379a000000000000000000000000000000000000000000000000000000000815260040180806020018281038252601e8152602001807f536166654d6174683a207375627472616374696f6e206f766572666c6f77000081525060200191505060405180910390fd5b600082840390508091505092915050565b60008173ffffffffffffffffffffffffffffffffffffffff166370a08231306040518263ffffffff1660e01b8152600401808273ffffffffffffffffffffffffffffffffffffffff1673ffffffffffffffffffffffffffffffffffffffff16815260200191505060206040518083038186803b1580156200463957600080fd5b505afa1580156200464e573d6000803e3d6000fd5b505050506040513d60208110156200466557600080fd5b81019080805190602001909291905050509050919050565b600060608473ffffffffffffffffffffffffffffffffffffffff1663095ea7b38585604051602401808373ffffffffffffffffffffffffffffffffffffffff1673ffffffffffffffffffffffffffffffffffffffff168152602001828152602001925050506040516020818303038152906040529060e01b6020820180517bffffffffffffffffffffffffffffffffffffffffffffffffffffffff83818316178352505050506040518082805190602001908083835b6020831062004758578051825260208201915060208101905060208303925062004733565b6001836020036101000a0380198251168184511680821785525050505050509050019150506000604051808303816000865af19150503d8060008114620047bc576040519150601f19603f3d011682016040523d82523d6000602084013e620047c1565b606091505b5091509150818015620048045750600081511480620048035750808060200190516020811015620047f157600080fd5b81019080805190602001909291905050505b5b62004877576040517f08c379a000000000000000000000000000000000000000000000000000000000815260040180806020018281038252600c8152602001807f2173616665417070726f7665000000000000000000000000000000000000000081525060200191505060405180910390fd5b5050505050565b600060608473ffffffffffffffffffffffffffffffffffffffff1663a9059cbb8585604051602401808373ffffffffffffffffffffffffffffffffffffffff1673ffffffffffffffffffffffffffffffffffffffff168152602001828152602001925050506040516020818303038152906040529060e01b6020820180517bffffffffffffffffffffffffffffffffffffffffffffffffffffffff83818316178352505050506040518082805190602001908083835b6020831062004959578051825260208201915060208101905060208303925062004934565b6001836020036101000a0380198251168184511680821785525050505050509050019150506000604051808303816000865af19150503d8060008114620049bd576040519150601f19603f3d011682016040523d82523d6000602084013e620049c2565b606091505b509150915081801562004a05575060008151148062004a045750808060200190516020811015620049f257600080fd5b81019080805190602001909291905050505b5b62004a78576040517f08c379a000000000000000000000000000000000000000000000000000000000815260040180806020018281038252600d8152602001807f21736166655472616e736665720000000000000000000000000000000000000081525060200191505060405180910390fd5b5050505050565b60008273ffffffffffffffffffffffffffffffffffffffff168260006040519080825280601f01601f19166020018201604052801562004ace5781602001600182028038833980820191505090505b506040518082805190602001908083835b6020831062004b04578051825260208201915060208101905060208303925062004adf565b6001836020036101000a03801982511681845116808217855250505050505090500191505060006040518083038185875af1925050503d806000811462004b68576040519150601f19603f3d011682016040523d82523d6000602084013e62004b6d565b606091505b505090508062004be5576040517f08c379a00000000000000000000000000000000000000000000000000000000081526004018080602001828103825260108152602001807f21736166655472616e736665724554480000000000000000000000000000000081525060200191505060405180910390fd5b505050565b600081141562004bfa5762004d1c565b6000600360008460020160009054906101000a900473ffffffffffffffffffffffffffffffffffffffff1673ffffffffffffffffffffffffffffffffffffffff1673ffffffffffffffffffffffffffffffffffffffff1681526020019081526020016000209050600062004c938460020160009054906101000a900473ffffffffffffffffffffffffffffffffffffffff168462003d2c565b905062004cae818660020154620044a690919063ffffffff16565b856002018190555062004ccf8383600201546200452f90919063ffffffff16565b826002018190555062004cf0818360040154620044a690919063ffffffff16565b826004018190555062004d11838360030154620044a690919063ffffffff16565b826003018190555050505b505050565b600060608573ffffffffffffffffffffffffffffffffffffffff166323b872dd868686604051602401808473ffffffffffffffffffffffffffffffffffffffff1673ffffffffffffffffffffffffffffffffffffffff1681526020018373ffffffffffffffffffffffffffffffffffffffff1673ffffffffffffffffffffffffffffffffffffffff16815260200182815260200193505050506040516020818303038152906040529060e01b6020820180517bffffffffffffffffffffffffffffffffffffffffffffffffffffffff83818316178352505050506040518082805190602001908083835b6020831062004e30578051825260208201915060208101905060208303925062004e0b565b6001836020036101000a0380198251168184511680821785525050505050509050019150506000604051808303816000865af19150503d806000811462004e94576040519150601f19603f3d011682016040523d82523d6000602084013e62004e99565b606091505b509150915081801562004edc575060008151148062004edb575080806020019051602081101562004ec957600080fd5b81019080805190602001909291905050505b5b62004f4f576040517f08c379a00000000000000000000000000000000000000000000000000000000081526004018080602001828103825260118152602001807f21736166655472616e7366657246726f6d00000000000000000000000000000081525060200191505060405180910390fd5b505050505050565b600073ffffffffffffffffffffffffffffffffffffffff168173ffffffffffffffffffffffffffffffffffffffff16141562004fdf576040517f08c379a000000000000000000000000000000000000000000000000000000000815260040180806020018281038252602681526020018062006eb36026913960400191505060405180910390fd5b8073ffffffffffffffffffffffffffffffffffffffff166000809054906101000a900473ffffffffffffffffffffffffffffffffffffffff1673ffffffffffffffffffffffffffffffffffffffff167f8be0079c531659141344cd1fd0a4f28419497f9722a3daafe3b4186f6b6457e060405160405180910390a3806000806101000a81548173ffffffffffffffffffffffffffffffffffffffff021916908373ffffffffffffffffffffffffffffffffffffffff16021790555050565b611de580620050ac8339019056fe608060405260405180602001604052806000815250600490805190602001906200002b9291906200025b565b506040518060200160405280600081525060059080519060200190620000539291906200025b565b506012600660006101000a81548160ff021916908360ff1602179055503480156200007d57600080fd5b5060405162001de538038062001de583398181016040526020811015620000a357600080fd5b8101908080516040519392919084640100000000821115620000c457600080fd5b83820191506020820185811115620000db57600080fd5b8251866001820283011164010000000082111715620000f957600080fd5b8083526020830192505050908051906020019080838360005b838110156200012f57808201518184015260208101905062000112565b50505050905090810190601f1680156200015d5780820380516001836020036101000a031916815260200191505b5060405250505033600360006101000a81548173ffffffffffffffffffffffffffffffffffffffff021916908373ffffffffffffffffffffffffffffffffffffffff160217905550600360009054906101000a900473ffffffffffffffffffffffffffffffffffffffff1673ffffffffffffffffffffffffffffffffffffffff16600073ffffffffffffffffffffffffffffffffffffffff167f8be0079c531659141344cd1fd0a4f28419497f9722a3daafe3b4186f6b6457e060405160405180910390a380600490805190602001906200023a9291906200025b565b508060059080519060200190620002539291906200025b565b50506200030a565b828054600181600116156101000203166002900490600052602060002090601f016020900481019282601f106200029e57805160ff1916838001178555620002cf565b82800160010185558215620002cf579182015b82811115620002ce578251825591602001919060010190620002b1565b5b509050620002de9190620002e2565b5090565b6200030791905b8082111562000303576000816000905550600101620002e9565b5090565b90565b611acb806200031a6000396000f3fe608060405234801561001057600080fd5b506004361061010b5760003560e01c8063715018a6116100a25780639dc29fac116100715780639dc29fac146104c6578063a457c2d714610514578063a9059cbb1461057a578063dd62ed3e146105e0578063f2fde38b146106585761010b565b8063715018a6146103cd5780638da5cb5b146103d75780638f32d59b1461042157806395d89b41146104435761010b565b8063313ce567116100de578063313ce5671461029d57806339509351146102c157806340c10f191461032757806370a08231146103755761010b565b806306fdde0314610110578063095ea7b31461019357806318160ddd146101f957806323b872dd14610217575b600080fd5b61011861069c565b6040518080602001828103825283818151815260200191508051906020019080838360005b8381101561015857808201518184015260208101905061013d565b50505050905090810190601f1680156101855780820380516001836020036101000a031916815260200191505b509250505060405180910390f35b6101df600480360360408110156101a957600080fd5b81019080803573ffffffffffffffffffffffffffffffffffffffff1690602001909291908035906020019092919050505061073a565b604051808215151515815260200191505060405180910390f35b610201610751565b6040518082815260200191505060405180910390f35b6102836004803603606081101561022d57600080fd5b81019080803573ffffffffffffffffffffffffffffffffffffffff169060200190929190803573ffffffffffffffffffffffffffffffffffffffff1690602001909291908035906020019092919050505061075b565b604051808215151515815260200191505060405180910390f35b6102a561080c565b604051808260ff1660ff16815260200191505060405180910390f35b61030d600480360360408110156102d757600080fd5b81019080803573ffffffffffffffffffffffffffffffffffffffff1690602001909291908035906020019092919050505061081f565b604051808215151515815260200191505060405180910390f35b6103736004803603604081101561033d57600080fd5b81019080803573ffffffffffffffffffffffffffffffffffffffff169060200190929190803590602001909291905050506108c4565b005b6103b76004803603602081101561038b57600080fd5b81019080803573ffffffffffffffffffffffffffffffffffffffff1690602001909291905050506109eb565b6040518082815260200191505060405180910390f35b6103d5610a33565b005b6103df610b6e565b604051808273ffffffffffffffffffffffffffffffffffffffff1673ffffffffffffffffffffffffffffffffffffffff16815260200191505060405180910390f35b610429610b98565b604051808215151515815260200191505060405180910390f35b61044b610bf0565b6040518080602001828103825283818151815260200191508051906020019080838360005b8381101561048b578082015181840152602081019050610470565b50505050905090810190601f1680156104b85780820380516001836020036101000a031916815260200191505b509250505060405180910390f35b610512600480360360408110156104dc57600080fd5b81019080803573ffffffffffffffffffffffffffffffffffffffff16906020019092919080359060200190929190505050610c8e565b005b6105606004803603604081101561052a57600080fd5b81019080803573ffffffffffffffffffffffffffffffffffffffff16906020019092919080359060200190929190505050610db5565b604051808215151515815260200191505060405180910390f35b6105c66004803603604081101561059057600080fd5b81019080803573ffffffffffffffffffffffffffffffffffffffff16906020019092919080359060200190929190505050610e5a565b604051808215151515815260200191505060405180910390f35b610642600480360360408110156105f657600080fd5b81019080803573ffffffffffffffffffffffffffffffffffffffff169060200190929190803573ffffffffffffffffffffffffffffffffffffffff169060200190929190505050610e71565b6040518082815260200191505060405180910390f35b61069a6004803603602081101561066e57600080fd5b81019080803573ffffffffffffffffffffffffffffffffffffffff169060200190929190505050610ef8565b005b60048054600181600116156101000203166002900480601f0160208091040260200160405190810160405280929190818152602001828054600181600116156101000203166002900480156107325780601f1061070757610100808354040283529160200191610732565b820191906000526020600020905b81548152906001019060200180831161071557829003601f168201915b505050505081565b6000610747338484610f7e565b6001905092915050565b6000600254905090565b6000610768848484611175565b61080184336107fc85600160008a73ffffffffffffffffffffffffffffffffffffffff1673ffffffffffffffffffffffffffffffffffffffff16815260200190815260200160002060003373ffffffffffffffffffffffffffffffffffffffff1673ffffffffffffffffffffffffffffffffffffffff1681526020019081526020016000205461141190919063ffffffff16565b610f7e565b600190509392505050565b600660009054906101000a900460ff1681565b60006108ba33846108b585600160003373ffffffffffffffffffffffffffffffffffffffff1673ffffffffffffffffffffffffffffffffffffffff16815260200190815260200160002060008973ffffffffffffffffffffffffffffffffffffffff1673ffffffffffffffffffffffffffffffffffffffff1681526020019081526020016000205461149a90919063ffffffff16565b610f7e565b6001905092915050565b6108cc610b98565b61093e576040517f08c379a00000000000000000000000000000000000000000000000000000000081526004018080602001828103825260208152602001807f4f776e61626c653a2063616c6c6572206973206e6f7420746865206f776e657281525060200191505060405180910390fd5b6109488282611522565b7fab8530f87dc9b59234c4623bf917212bb2536d647574c8e7e5da92c2ede0c9f8338383604051808473ffffffffffffffffffffffffffffffffffffffff1673ffffffffffffffffffffffffffffffffffffffff1681526020018373ffffffffffffffffffffffffffffffffffffffff1673ffffffffffffffffffffffffffffffffffffffff168152602001828152602001935050505060405180910390a15050565b60008060008373ffffffffffffffffffffffffffffffffffffffff1673ffffffffffffffffffffffffffffffffffffffff168152602001908152602001600020549050919050565b610a3b610b98565b610aad576040517f08c379a00000000000000000000000000000000000000000000000000000000081526004018080602001828103825260208152602001807f4f776e61626c653a2063616c6c6572206973206e6f7420746865206f776e657281525060200191505060405180910390fd5b600073ffffffffffffffffffffffffffffffffffffffff16600360009054906101000a900473ffffffffffffffffffffffffffffffffffffffff1673ffffffffffffffffffffffffffffffffffffffff167f8be0079c531659141344cd1fd0a4f28419497f9722a3daafe3b4186f6b6457e060405160405180910390a36000600360006101000a81548173ffffffffffffffffffffffffffffffffffffffff021916908373ffffffffffffffffffffffffffffffffffffffff160217905550565b6000600360009054906101000a900473ffffffffffffffffffffffffffffffffffffffff16905090565b6000600360009054906101000a900473ffffffffffffffffffffffffffffffffffffffff1673ffffffffffffffffffffffffffffffffffffffff163373ffffffffffffffffffffffffffffffffffffffff1614905090565b60058054600181600116156101000203166002900480601f016020809104026020016040519081016040528092919081815260200182805460018160011615610100020316600290048015610c865780601f10610c5b57610100808354040283529160200191610c86565b820191906000526020600020905b815481529060010190602001808311610c6957829003601f168201915b505050505081565b610c96610b98565b610d08576040517f08c379a00000000000000000000000000000000000000000000000000000000081526004018080602001828103825260208152602001807f4f776e61626c653a2063616c6c6572206973206e6f7420746865206f776e657281525060200191505060405180910390fd5b610d1282826116dd565b7fbac40739b0d4ca32fa2d82fc91630465ba3eddd1598da6fca393b26fb63b9453338383604051808473ffffffffffffffffffffffffffffffffffffffff1673ffffffffffffffffffffffffffffffffffffffff1681526020018373ffffffffffffffffffffffffffffffffffffffff1673ffffffffffffffffffffffffffffffffffffffff168152602001828152602001935050505060405180910390a15050565b6000610e503384610e4b85600160003373ffffffffffffffffffffffffffffffffffffffff1673ffffffffffffffffffffffffffffffffffffffff16815260200190815260200160002060008973ffffffffffffffffffffffffffffffffffffffff1673ffffffffffffffffffffffffffffffffffffffff1681526020019081526020016000205461141190919063ffffffff16565b610f7e565b6001905092915050565b6000610e67338484611175565b6001905092915050565b6000600160008473ffffffffffffffffffffffffffffffffffffffff1673ffffffffffffffffffffffffffffffffffffffff16815260200190815260200160002060008373ffffffffffffffffffffffffffffffffffffffff1673ffffffffffffffffffffffffffffffffffffffff16815260200190815260200160002054905092915050565b610f00610b98565b610f72576040517f08c379a00000000000000000000000000000000000000000000000000000000081526004018080602001828103825260208152602001807f4f776e61626c653a2063616c6c6572206973206e6f7420746865206f776e657281525060200191505060405180910390fd5b610f7b8161187b565b50565b600073ffffffffffffffffffffffffffffffffffffffff168373ffffffffffffffffffffffffffffffffffffffff161415611004576040517f08c379a0000000000000000000000000000000000000000000000000000000008152600401808060200182810382526024815260200180611a736024913960400191505060405180910390fd5b600073ffffffffffffffffffffffffffffffffffffffff168273ffffffffffffffffffffffffffffffffffffffff16141561108a576040517f08c379a0000000000000000000000000000000000000000000000000000000008152600401808060200182810382526022815260200180611a0b6022913960400191505060405180910390fd5b80600160008573ffffffffffffffffffffffffffffffffffffffff1673ffffffffffffffffffffffffffffffffffffffff16815260200190815260200160002060008473ffffffffffffffffffffffffffffffffffffffff1673ffffffffffffffffffffffffffffffffffffffff168152602001908152602001600020819055508173ffffffffffffffffffffffffffffffffffffffff168373ffffffffffffffffffffffffffffffffffffffff167f8c5be1e5ebec7d5bd14f71427d1e84f3dd0314c0f7b2291e5b200ac8c7c3b925836040518082815260200191505060405180910390a3505050565b600073ffffffffffffffffffffffffffffffffffffffff168373ffffffffffffffffffffffffffffffffffffffff1614156111fb576040517f08c379a0000000000000000000000000000000000000000000000000000000008152600401808060200182810382526025815260200180611a4e6025913960400191505060405180910390fd5b600073ffffffffffffffffffffffffffffffffffffffff168273ffffffffffffffffffffffffffffffffffffffff161415611281576040517f08c379a00000000000000000000000000000000000000000000000000000000081526004018080602001828103825260238152602001806119c26023913960400191505060405180910390fd5b6112d2816000808673ffffffffffffffffffffffffffffffffffffffff1673ffffffffffffffffffffffffffffffffffffffff1681526020019081526020016000205461141190919063ffffffff16565b6000808573ffffffffffffffffffffffffffffffffffffffff1673ffffffffffffffffffffffffffffffffffffffff16815260200190815260200160002081905550611365816000808573ffffffffffffffffffffffffffffffffffffffff1673ffffffffffffffffffffffffffffffffffffffff1681526020019081526020016000205461149a90919063ffffffff16565b6000808473ffffffffffffffffffffffffffffffffffffffff1673ffffffffffffffffffffffffffffffffffffffff168152602001908152602001600020819055508173ffffffffffffffffffffffffffffffffffffffff168373ffffffffffffffffffffffffffffffffffffffff167fddf252ad1be2c89b69c2b068fc378daa952ba7f163c4a11628f55a4df523b3ef836040518082815260200191505060405180910390a3505050565b600082821115611489576040517f08c379a000000000000000000000000000000000000000000000000000000000815260040180806020018281038252601e8152602001807f536166654d6174683a207375627472616374696f6e206f766572666c6f77000081525060200191505060405180910390fd5b600082840390508091505092915050565b600080828401905083811015611518576040517f08c379a000000000000000000000000000000000000000000000000000000000815260040180806020018281038252601b8152602001807f536166654d6174683a206164646974696f6e206f766572666c6f77000000000081525060200191505060405180910390fd5b8091505092915050565b600073ffffffffffffffffffffffffffffffffffffffff168273ffffffffffffffffffffffffffffffffffffffff1614156115c5576040517f08c379a000000000000000000000000000000000000000000000000000000000815260040180806020018281038252601f8152602001807f45524332303a206d696e7420746f20746865207a65726f20616464726573730081525060200191505060405180910390fd5b6115da8160025461149a90919063ffffffff16565b600281905550611631816000808573ffffffffffffffffffffffffffffffffffffffff1673ffffffffffffffffffffffffffffffffffffffff1681526020019081526020016000205461149a90919063ffffffff16565b6000808473ffffffffffffffffffffffffffffffffffffffff1673ffffffffffffffffffffffffffffffffffffffff168152602001908152602001600020819055508173ffffffffffffffffffffffffffffffffffffffff16600073ffffffffffffffffffffffffffffffffffffffff167fddf252ad1be2c89b69c2b068fc378daa952ba7f163c4a11628f55a4df523b3ef836040518082815260200191505060405180910390a35050565b600073ffffffffffffffffffffffffffffffffffffffff168273ffffffffffffffffffffffffffffffffffffffff161415611763576040517f08c379a0000000000000000000000000000000000000000000000000000000008152600401808060200182810382526021815260200180611a2d6021913960400191505060405180910390fd5b6117788160025461141190919063ffffffff16565b6002819055506117cf816000808573ffffffffffffffffffffffffffffffffffffffff1673ffffffffffffffffffffffffffffffffffffffff1681526020019081526020016000205461141190919063ffffffff16565b6000808473ffffffffffffffffffffffffffffffffffffffff1673ffffffffffffffffffffffffffffffffffffffff16815260200190815260200160002081905550600073ffffffffffffffffffffffffffffffffffffffff168273ffffffffffffffffffffffffffffffffffffffff167fddf252ad1be2c89b69c2b068fc378daa952ba7f163c4a11628f55a4df523b3ef836040518082815260200191505060405180910390a35050565b600073ffffffffffffffffffffffffffffffffffffffff168173ffffffffffffffffffffffffffffffffffffffff161415611901576040517f08c379a00000000000000000000000000000000000000000000000000000000081526004018080602001828103825260268152602001806119e56026913960400191505060405180910390fd5b8073ffffffffffffffffffffffffffffffffffffffff16600360009054906101000a900473ffffffffffffffffffffffffffffffffffffffff1673ffffffffffffffffffffffffffffffffffffffff167f8be0079c531659141344cd1fd0a4f28419497f9722a3daafe3b4186f6b6457e060405160405180910390a380600360006101000a81548173ffffffffffffffffffffffffffffffffffffffff021916908373ffffffffffffffffffffffffffffffffffffffff1602179055505056fe45524332303a207472616e7366657220746f20746865207a65726f20616464726573734f776e61626c653a206e6577206f776e657220697320746865207a65726f206164647265737345524332303a20617070726f766520746f20746865207a65726f206164647265737345524332303a206275726e2066726f6d20746865207a65726f206164647265737345524332303a207472616e736665722066726f6d20746865207a65726f206164647265737345524332303a20617070726f76652066726f6d20746865207a65726f2061646472657373a265627a7a72315820f320e081f035d3792f985544099f12a447ea9061492284eece48e75dccea27d164736f6c63430005100032546f6b656e206e6f74206578697374206f722063616e6e6f742077697468647261774f776e61626c653a206e6577206f776e657220697320746865207a65726f2061646472657373546f6b656e206e6f74206578697374206f722063616e6e6f74206465706f736974536166654d6174683a206d756c7469706c69636174696f6e206f766572666c6f77696e73756666696369656e7420626f72726f77546f6b656e20696e207468652062616e6ba265627a7a72315820f7f9a79c6dd727f22bfffce7d1b92327c471a6dd14b9960a6b5d6b77fbdd318264736f6c63430005100032",
  "source": "pragma solidity ^0.5.16;\n\nimport \"@openzeppelin/contracts/utils/ReentrancyGuard.sol\";\nimport \"@openzeppelin/contracts/ownership/Ownable.sol\";\nimport \"@openzeppelin/contracts/math/SafeMath.sol\";\nimport \"@openzeppelin/contracts/token/ERC20/IERC20.sol\";\nimport \"@openzeppelin/contracts/math/Math.sol\";\nimport \"./interfaces/IBankConfig.sol\";\nimport \"./interfaces/InterestModel.sol\";\nimport \"./interfaces/Goblin.sol\";\nimport \"./SafeToken.sol\";\nimport \"./PTokenFactory.sol\";\n\ncontract Bank is PTokenFactory, Ownable, ReentrancyGuard {\n    using SafeToken for address;\n    using SafeMath for uint256;\n\n    event OpPosition(uint256 indexed id, uint256 debt, uint back);\n    event Liquidate(uint256 indexed id, address indexed killer, uint256 prize, uint256 left);\n\n    struct TokenBank {\n        address tokenAddr;\n        address pTokenAddr;\n        bool isOpen;\n        bool canDeposit;\n        bool canWithdraw;\n        uint256 totalVal;\n        uint256 totalDebt;\n        uint256 totalDebtShare;\n        uint256 totalReserve;\n        uint256 lastInterestTime;\n    }\n\n    struct Production {\n        address coinToken;\n        address currencyToken;\n        address borrowToken;\n        bool isOpen;\n        bool canBorrow;\n        address goblin;\n        uint256 minDebt;\n        uint256 openFactor;\n        uint256 liquidateFactor;\n    }\n\n    struct Position {\n        address owner;\n        uint256 productionId;\n        uint256 debtShare;\n    }\n\n    IBankConfig config;\n\n    mapping(address => TokenBank) public banks;\n\n    mapping(uint256 => Production) public productions;\n    uint256 public currentPid = 1;\n\n    mapping(uint256 => Position) public positions;\n    uint256 public currentPos = 1;\n\n    modifier onlyEOA() {\n        require(msg.sender == tx.origin, \"not eoa\");\n        _;\n    }\n\n    constructor() public {}\n\n    /// read\n    function positionInfo(uint256 posId) public view returns (uint256, uint256, uint256, address) {\n        Position storage pos = positions[posId];\n        Production storage prod = productions[pos.productionId];\n\n        return (pos.productionId, Goblin(prod.goblin).health(posId, prod.borrowToken),\n            debtShareToVal(prod.borrowToken, pos.debtShare), pos.owner);\n    }\n\n    function totalToken(address token) public view returns (uint256) {\n        TokenBank storage bank = banks[token];\n        require(bank.isOpen, 'token not exists');\n\n        uint balance = token == address(0)? address(this).balance: SafeToken.myBalance(token);\n        balance = bank.totalVal < balance? bank.totalVal: balance;\n\n        return balance.add(bank.totalDebt).sub(bank.totalReserve);\n    }\n\n    function debtShareToVal(address token, uint256 debtShare) public view returns (uint256) {\n        TokenBank storage bank = banks[token];\n        require(bank.isOpen, 'token not exists');\n\n        if (bank.totalDebtShare == 0) return debtShare;\n        return debtShare.mul(bank.totalDebt).div(bank.totalDebtShare);\n    }\n\n    function debtValToShare(address token, uint256 debtVal) public view returns (uint256) {\n        TokenBank storage bank = banks[token];\n        require(bank.isOpen, 'token not exists');\n\n        if (bank.totalDebt == 0) return debtVal;\n        return debtVal.mul(bank.totalDebtShare).div(bank.totalDebt);\n    }\n\n\n    /// write\n    function deposit(address token, uint256 amount) external payable nonReentrant {\n        TokenBank storage bank = banks[token];\n        require(bank.isOpen && bank.canDeposit, 'Token not exist or cannot deposit');\n\n        calInterest(token);\n\n        if (token == address(0)) {//HT\n            amount = msg.value;\n        } else {\n            SafeToken.safeTransferFrom(token, msg.sender, address(this), amount);\n        }\n\n        bank.totalVal = bank.totalVal.add(amount);\n        uint256 total = totalToken(token).sub(amount);\n        uint256 pTotal = PToken(bank.pTokenAddr).totalSupply();\n\n        uint256 pAmount = (total == 0 || pTotal == 0) ? amount: amount.mul(pTotal).div(total);\n        PToken(bank.pTokenAddr).mint(msg.sender, pAmount);\n    }\n\n    function withdraw(address token, uint256 pAmount) external nonReentrant {\n        TokenBank storage bank = banks[token];\n        require(bank.isOpen && bank.canWithdraw, 'Token not exist or cannot withdraw');\n\n        calInterest(token);\n\n        uint256 amount = pAmount.mul(totalToken(token)).div(PToken(bank.pTokenAddr).totalSupply());\n        bank.totalVal = bank.totalVal.sub(amount);\n\n        PToken(bank.pTokenAddr).burn(msg.sender, pAmount);\n\n        if (token == address(0)) {//HT\n            SafeToken.safeTransferETH(msg.sender, amount);\n        } else {\n            SafeToken.safeTransfer(token, msg.sender, amount);\n        }\n    }\n\n    function opPosition(uint256 posId, uint256 pid, uint256 borrow, bytes calldata data)\n    external payable onlyEOA nonReentrant {\n\n        if (posId == 0) {\n            posId = currentPos;\n            currentPos ++;\n            positions[posId].owner = msg.sender;\n            positions[posId].productionId = pid;\n\n        } else {\n            require(posId < currentPos, \"bad position id\");\n            require(positions[posId].owner == msg.sender, \"not position owner\");\n\n            pid = positions[posId].productionId;\n        }\n\n        Production storage production = productions[pid];\n        require(production.isOpen, 'Production not exists');\n\n        require(borrow == 0 || production.canBorrow, \"Production can not borrow\");\n        calInterest(production.borrowToken);\n\n        uint256 debt = _removeDebt(positions[posId], production).add(borrow);\n        bool isBorrowHt = production.borrowToken == address(0);\n\n        uint256 sendHT = msg.value;\n        uint256 beforeToken = 0;\n        if (isBorrowHt) {\n            sendHT = sendHT.add(borrow);\n            require(sendHT <= address(this).balance && debt <= banks[production.borrowToken].totalVal, \"insufficient HT in the bank\");\n            beforeToken = address(this).balance.sub(sendHT);\n\n        } else {\n            beforeToken = SafeToken.myBalance(production.borrowToken);\n            require(borrow <= beforeToken && debt <= banks[production.borrowToken].totalVal, \"insufficient borrowToken in the bank\");\n            beforeToken = beforeToken.sub(borrow);\n            SafeToken.safeApprove(production.borrowToken, production.goblin, borrow);\n        }\n\n        Goblin(production.goblin).work.value(sendHT)(posId, msg.sender, production.borrowToken, borrow, debt, data);\n\n        uint256 backToken = isBorrowHt? (address(this).balance.sub(beforeToken)) :\n            SafeToken.myBalance(production.borrowToken).sub(beforeToken);\n\n        if(backToken > debt) { //, \n            backToken = backToken.sub(debt);\n            debt = 0;\n\n            isBorrowHt? SafeToken.safeTransferETH(msg.sender, backToken):\n                SafeToken.safeTransfer(production.borrowToken, msg.sender, backToken);\n\n        } else if (debt > backToken) { //\n            debt = debt.sub(backToken);\n            backToken = 0;\n\n            require(debt >= production.minDebt, \"too small debt size\");\n            uint256 health = Goblin(production.goblin).health(posId, production.borrowToken);\n            require(health.mul(production.openFactor) >= debt.mul(10000), \"bad work factor\");\n\n            _addDebt(positions[posId], production, debt);\n        }\n        emit OpPosition(posId, debt, backToken);\n    }\n\n    function liquidate(uint256 posId) external payable onlyEOA nonReentrant {\n        Position storage pos = positions[posId];\n        require(pos.debtShare > 0, \"no debt\");\n        Production storage production = productions[pos.productionId];\n\n        uint256 debt = _removeDebt(pos, production);\n\n        uint256 health = Goblin(production.goblin).health(posId, production.borrowToken);\n        require(health.mul(production.liquidateFactor) < debt.mul(10000), \"can't liquidate\");\n\n        bool isHT = production.borrowToken == address(0);\n        uint256 before = isHT? address(this).balance: SafeToken.myBalance(production.borrowToken);\n\n        Goblin(production.goblin).liquidate(posId, pos.owner, production.borrowToken);\n\n        uint256 back = isHT? address(this).balance: SafeToken.myBalance(production.borrowToken);\n        back = back.sub(before);\n\n        uint256 prize = back.mul(config.getLiquidateBps()).div(10000);\n        uint256 rest = back.sub(prize);\n        uint256 left = 0;\n\n        if (prize > 0) {\n            isHT? SafeToken.safeTransferETH(msg.sender, prize): SafeToken.safeTransfer(production.borrowToken, msg.sender, prize);\n        }\n        if (rest > debt) {\n            left = rest.sub(debt);\n            isHT? SafeToken.safeTransferETH(pos.owner, left): SafeToken.safeTransfer(production.borrowToken, pos.owner, left);\n        } else {\n            banks[production.borrowToken].totalVal = banks[production.borrowToken].totalVal.sub(debt).add(rest);\n        }\n        emit Liquidate(posId, msg.sender, prize, left);\n    }\n\n    function _addDebt(Position storage pos, Production storage production, uint256 debtVal) internal {\n        if (debtVal == 0) {\n            return;\n        }\n\n        TokenBank storage bank = banks[production.borrowToken];\n\n        uint256 debtShare = debtValToShare(production.borrowToken, debtVal);\n        pos.debtShare = pos.debtShare.add(debtShare);\n\n        bank.totalVal = bank.totalVal.sub(debtVal);\n        bank.totalDebtShare = bank.totalDebtShare.add(debtShare);\n        bank.totalDebt = bank.totalDebt.add(debtVal);\n    }\n\n    function _removeDebt(Position storage pos, Production storage production) internal returns (uint256) {\n        TokenBank storage bank = banks[production.borrowToken];\n\n        uint256 debtShare = pos.debtShare;\n        if (debtShare > 0) {\n            uint256 debtVal = debtShareToVal(production.borrowToken, debtShare);\n            pos.debtShare = 0;\n\n            bank.totalVal = bank.totalVal.add(debtVal);\n            bank.totalDebtShare = bank.totalDebtShare.sub(debtShare);\n            bank.totalDebt = bank.totalDebt.sub(debtVal);\n            return debtVal;\n        } else {\n            return 0;\n        }\n    }\n\n    function updateConfig(IBankConfig _config) external onlyOwner {\n        config = _config;\n    }\n\n    function addToken(address token, string calldata _symbol) external onlyOwner {\n        TokenBank storage bank = banks[token];\n        require(!bank.isOpen, 'token already exists');\n\n        bank.isOpen = true;\n        address pToken = genPToken(_symbol);\n        bank.tokenAddr = token;\n        bank.pTokenAddr = pToken;\n        bank.canDeposit = true;\n        bank.canWithdraw = true;\n        bank.totalVal = 0;\n        bank.totalDebt = 0;\n        bank.totalDebtShare = 0;\n        bank.totalReserve = 0;\n        bank.lastInterestTime = now;\n    }\n\n    function updateToken(address token, bool canDeposit, bool canWithdraw) external onlyOwner {\n        TokenBank storage bank = banks[token];\n        require(bank.isOpen, 'token not exists');\n\n        bank.canDeposit = canDeposit;\n        bank.canWithdraw = canWithdraw;\n    }\n\n    function opProduction(uint256 pid, bool isOpen, bool canBorrow,\n        address coinToken, address currencyToken, address borrowToken, address goblin,\n        uint256 minDebt, uint256 openFactor, uint256 liquidateFactor) external onlyOwner {\n\n        if(pid == 0){\n            pid = currentPid;\n            currentPid ++;\n        } else {\n            require(pid < currentPid, \"bad production id\");\n        }\n\n        Production storage production = productions[pid];\n        production.isOpen = isOpen;\n        production.canBorrow = canBorrow;\n        // , , !\n        production.coinToken = coinToken;\n        production.currencyToken = currencyToken;\n        production.borrowToken = borrowToken;\n        production.goblin = goblin;\n\n        production.minDebt = minDebt;\n        production.openFactor = openFactor;\n        production.liquidateFactor = liquidateFactor;\n    }\n\n    function calInterest(address token) public {\n        TokenBank storage bank = banks[token];\n        require(bank.isOpen, 'token not exists');\n\n        if (now > bank.lastInterestTime) {\n            uint256 timePast = now.sub(bank.lastInterestTime);\n            uint256 totalDebt = bank.totalDebt;\n            uint256 totalBalance = totalToken(token);\n\n            uint256 ratePerSec = config.getInterestRate(totalDebt, totalBalance);\n            uint256 interest = ratePerSec.mul(timePast).mul(totalDebt).div(1e18);\n\n            uint256 toReserve = interest.mul(config.getReserveBps()).div(10000);\n            bank.totalReserve = bank.totalReserve.add(toReserve);\n            bank.totalDebt = bank.totalDebt.add(interest);\n            bank.lastInterestTime = now;\n        }\n    }\n\n    function withdrawReserve(address token, address to, uint256 value) external onlyOwner nonReentrant {\n        TokenBank storage bank = banks[token];\n        require(bank.isOpen, 'token not exists');\n\n        uint balance = token == address(0)? address(this).balance: SafeToken.myBalance(token);\n        if(balance >= bank.totalVal.add(value)) {\n            //deposit\n        } else {\n            bank.totalReserve = bank.totalReserve.sub(value);\n            bank.totalVal = bank.totalVal.sub(value);\n        }\n\n        if (token == address(0)) {\n            SafeToken.safeTransferETH(to, value);\n        } else {\n            SafeToken.safeTransfer(token, to, value);\n        }\n    }\n\n    function() external payable {}\n}\n",
  "sourcePath": "/Users/yin/projects/homora/pilot/pilot-test/contracts/Bank.sol",
  "compiler": {
    "name": "solc",
    "version": "0.5.16+commit.9c3226ce.Emscripten.clang"
  },
  "schemaVersion": "3.3.4",
  "updatedAt": "2021-04-01T07:12:58.198Z",
  "networkType": "ethereum",
  "devdoc": {
    "methods": {
      "isOwner()": {
        "details": "Returns true if the caller is the current owner."
      },
      "owner()": {
        "details": "Returns the address of the current owner."
      },
      "renounceOwnership()": {
        "details": "Leaves the contract without owner. It will not be possible to call `onlyOwner` functions anymore. Can only be called by the current owner.     * > Note: Renouncing ownership will leave the contract without an owner, thereby removing any functionality that is only available to the owner."
      },
      "transferOwnership(address)": {
        "details": "Transfers ownership of the contract to a new account (`newOwner`). Can only be called by the current owner."
      }
    }
  },
  "userdoc": {
    "methods": {
      "deposit(address,uint256)": {
        "notice": "write"
      },
      "positionInfo(uint256)": {
        "notice": "read"
      }
    }
  }
}