{
  "contractName": "MdxGoblin",
  "abi": [
    {
      "inputs": [
        {
          "internalType": "address",
          "name": "_operator",
          "type": "address"
        },
        {
          "internalType": "contract IStakingRewards",
          "name": "_staking",
          "type": "address"
        },
        {
          "internalType": "contract IMdexRouter",
          "name": "_router",
          "type": "address"
        },
        {
          "internalType": "address",
          "name": "_token0",
          "type": "address"
        },
        {
          "internalType": "address",
          "name": "_token1",
          "type": "address"
        },
        {
          "internalType": "contract Strategy",
          "name": "_liqStrategy",
          "type": "address"
        }
      ],
      "payable": false,
      "stateMutability": "nonpayable",
      "type": "constructor"
    },
    {
      "anonymous": false,
      "inputs": [
        {
          "indexed": true,
          "internalType": "uint256",
          "name": "id",
          "type": "uint256"
        },
        {
          "indexed": false,
          "internalType": "uint256",
          "name": "lpAmount",
          "type": "uint256"
        }
      ],
      "name": "AddPosition",
      "type": "event"
    },
    {
      "anonymous": false,
      "inputs": [
        {
          "indexed": true,
          "internalType": "uint256",
          "name": "id",
          "type": "uint256"
        },
        {
          "indexed": false,
          "internalType": "address",
          "name": "lpTokenAddress",
          "type": "address"
        },
        {
          "indexed": false,
          "internalType": "uint256",
          "name": "lpAmount",
          "type": "uint256"
        },
        {
          "indexed": false,
          "internalType": "address",
          "name": "debtToken",
          "type": "address"
        },
        {
          "indexed": false,
          "internalType": "uint256",
          "name": "liqAmount",
          "type": "uint256"
        }
      ],
      "name": "Liquidate",
      "type": "event"
    },
    {
      "anonymous": false,
      "inputs": [
        {
          "indexed": true,
          "internalType": "address",
          "name": "previousOwner",
          "type": "address"
        },
        {
          "indexed": true,
          "internalType": "address",
          "name": "newOwner",
          "type": "address"
        }
      ],
      "name": "OwnershipTransferred",
      "type": "event"
    },
    {
      "anonymous": false,
      "inputs": [
        {
          "indexed": true,
          "internalType": "uint256",
          "name": "id",
          "type": "uint256"
        },
        {
          "indexed": false,
          "internalType": "uint256",
          "name": "lpAmount",
          "type": "uint256"
        }
      ],
      "name": "RemovePosition",
      "type": "event"
    },
    {
      "payable": true,
      "stateMutability": "payable",
      "type": "fallback"
    },
    {
      "constant": true,
      "inputs": [],
      "name": "factory",
      "outputs": [
        {
          "internalType": "contract IMdexFactory",
          "name": "",
          "type": "address"
        }
      ],
      "payable": false,
      "stateMutability": "view",
      "type": "function"
    },
    {
      "constant": true,
      "inputs": [],
      "name": "isOwner",
      "outputs": [
        {
          "internalType": "bool",
          "name": "",
          "type": "bool"
        }
      ],
      "payable": false,
      "stateMutability": "view",
      "type": "function"
    },
    {
      "constant": true,
      "inputs": [],
      "name": "liqStrategy",
      "outputs": [
        {
          "internalType": "contract Strategy",
          "name": "",
          "type": "address"
        }
      ],
      "payable": false,
      "stateMutability": "view",
      "type": "function"
    },
    {
      "constant": true,
      "inputs": [],
      "name": "lpToken",
      "outputs": [
        {
          "internalType": "contract IMdexPair",
          "name": "",
          "type": "address"
        }
      ],
      "payable": false,
      "stateMutability": "view",
      "type": "function"
    },
    {
      "constant": true,
      "inputs": [
        {
          "internalType": "address",
          "name": "",
          "type": "address"
        }
      ],
      "name": "okStrategies",
      "outputs": [
        {
          "internalType": "bool",
          "name": "",
          "type": "bool"
        }
      ],
      "payable": false,
      "stateMutability": "view",
      "type": "function"
    },
    {
      "constant": true,
      "inputs": [],
      "name": "operator",
      "outputs": [
        {
          "internalType": "address",
          "name": "",
          "type": "address"
        }
      ],
      "payable": false,
      "stateMutability": "view",
      "type": "function"
    },
    {
      "constant": true,
      "inputs": [],
      "name": "owner",
      "outputs": [
        {
          "internalType": "address",
          "name": "",
          "type": "address"
        }
      ],
      "payable": false,
      "stateMutability": "view",
      "type": "function"
    },
    {
      "constant": true,
      "inputs": [
        {
          "internalType": "uint256",
          "name": "",
          "type": "uint256"
        }
      ],
      "name": "posLPAmount",
      "outputs": [
        {
          "internalType": "uint256",
          "name": "",
          "type": "uint256"
        }
      ],
      "payable": false,
      "stateMutability": "view",
      "type": "function"
    },
    {
      "constant": false,
      "inputs": [],
      "name": "renounceOwnership",
      "outputs": [],
      "payable": false,
      "stateMutability": "nonpayable",
      "type": "function"
    },
    {
      "constant": true,
      "inputs": [],
      "name": "router",
      "outputs": [
        {
          "internalType": "contract IMdexRouter",
          "name": "",
          "type": "address"
        }
      ],
      "payable": false,
      "stateMutability": "view",
      "type": "function"
    },
    {
      "constant": true,
      "inputs": [],
      "name": "staking",
      "outputs": [
        {
          "internalType": "contract IStakingRewards",
          "name": "",
          "type": "address"
        }
      ],
      "payable": false,
      "stateMutability": "view",
      "type": "function"
    },
    {
      "constant": true,
      "inputs": [],
      "name": "token0",
      "outputs": [
        {
          "internalType": "address",
          "name": "",
          "type": "address"
        }
      ],
      "payable": false,
      "stateMutability": "view",
      "type": "function"
    },
    {
      "constant": true,
      "inputs": [],
      "name": "token1",
      "outputs": [
        {
          "internalType": "address",
          "name": "",
          "type": "address"
        }
      ],
      "payable": false,
      "stateMutability": "view",
      "type": "function"
    },
    {
      "constant": true,
      "inputs": [],
      "name": "totalLPAmount",
      "outputs": [
        {
          "internalType": "uint256",
          "name": "",
          "type": "uint256"
        }
      ],
      "payable": false,
      "stateMutability": "view",
      "type": "function"
    },
    {
      "constant": false,
      "inputs": [
        {
          "internalType": "address",
          "name": "newOwner",
          "type": "address"
        }
      ],
      "name": "transferOwnership",
      "outputs": [],
      "payable": false,
      "stateMutability": "nonpayable",
      "type": "function"
    },
    {
      "constant": true,
      "inputs": [],
      "name": "wht",
      "outputs": [
        {
          "internalType": "address",
          "name": "",
          "type": "address"
        }
      ],
      "payable": false,
      "stateMutability": "view",
      "type": "function"
    },
    {
      "constant": false,
      "inputs": [
        {
          "internalType": "uint256",
          "name": "id",
          "type": "uint256"
        },
        {
          "internalType": "address",
          "name": "user",
          "type": "address"
        },
        {
          "internalType": "address",
          "name": "borrowToken",
          "type": "address"
        },
        {
          "internalType": "uint256",
          "name": "borrow",
          "type": "uint256"
        },
        {
          "internalType": "uint256",
          "name": "debt",
          "type": "uint256"
        },
        {
          "internalType": "bytes",
          "name": "data",
          "type": "bytes"
        }
      ],
      "name": "work",
      "outputs": [],
      "payable": true,
      "stateMutability": "payable",
      "type": "function"
    },
    {
      "constant": true,
      "inputs": [
        {
          "internalType": "uint256",
          "name": "aIn",
          "type": "uint256"
        },
        {
          "internalType": "uint256",
          "name": "rIn",
          "type": "uint256"
        },
        {
          "internalType": "uint256",
          "name": "rOut",
          "type": "uint256"
        }
      ],
      "name": "getMktSellAmount",
      "outputs": [
        {
          "internalType": "uint256",
          "name": "",
          "type": "uint256"
        }
      ],
      "payable": false,
      "stateMutability": "pure",
      "type": "function"
    },
    {
      "constant": true,
      "inputs": [
        {
          "internalType": "uint256",
          "name": "id",
          "type": "uint256"
        },
        {
          "internalType": "address",
          "name": "borrowToken",
          "type": "address"
        }
      ],
      "name": "health",
      "outputs": [
        {
          "internalType": "uint256",
          "name": "",
          "type": "uint256"
        }
      ],
      "payable": false,
      "stateMutability": "view",
      "type": "function"
    },
    {
      "constant": false,
      "inputs": [
        {
          "internalType": "uint256",
          "name": "id",
          "type": "uint256"
        },
        {
          "internalType": "address",
          "name": "user",
          "type": "address"
        },
        {
          "internalType": "address",
          "name": "borrowToken",
          "type": "address"
        }
      ],
      "name": "liquidate",
      "outputs": [],
      "payable": false,
      "stateMutability": "nonpayable",
      "type": "function"
    },
    {
      "constant": false,
      "inputs": [
        {
          "internalType": "address",
          "name": "token",
          "type": "address"
        },
        {
          "internalType": "address",
          "name": "to",
          "type": "address"
        },
        {
          "internalType": "uint256",
          "name": "value",
          "type": "uint256"
        }
      ],
      "name": "recover",
      "outputs": [],
      "payable": false,
      "stateMutability": "nonpayable",
      "type": "function"
    },
    {
      "constant": false,
      "inputs": [
        {
          "internalType": "address[]",
          "name": "strategies",
          "type": "address[]"
        },
        {
          "internalType": "bool",
          "name": "isOk",
          "type": "bool"
        }
      ],
      "name": "setStrategyOk",
      "outputs": [],
      "payable": false,
      "stateMutability": "nonpayable",
      "type": "function"
    },
    {
      "constant": false,
      "inputs": [
        {
          "internalType": "contract Strategy",
          "name": "_liqStrategy",
          "type": "address"
        }
      ],
      "name": "setCriticalStrategies",
      "outputs": [],
      "payable": false,
      "stateMutability": "nonpayable",
      "type": "function"
    }
  ],
  "bytecode": "0x60806040523480156200001157600080fd5b506040516200404e3803806200404e833981810160405260c08110156200003757600080fd5b81019080805190602001909291908051906020019092919080519060200190929190805190602001909291908051906020019092919080519060200190929190505050336000806101000a81548173ffffffffffffffffffffffffffffffffffffffff021916908373ffffffffffffffffffffffffffffffffffffffff1602179055506000809054906101000a900473ffffffffffffffffffffffffffffffffffffffff1673ffffffffffffffffffffffffffffffffffffffff16600073ffffffffffffffffffffffffffffffffffffffff167f8be0079c531659141344cd1fd0a4f28419497f9722a3daafe3b4186f6b6457e060405160405180910390a36001808190555085600960006101000a81548173ffffffffffffffffffffffffffffffffffffffff021916908373ffffffffffffffffffffffffffffffffffffffff1602179055508373ffffffffffffffffffffffffffffffffffffffff16635cb485926040518163ffffffff1660e01b815260040160206040518083038186803b158015620001c557600080fd5b505afa158015620001da573d6000803e3d6000fd5b505050506040513d6020811015620001f157600080fd5b8101908080519060200190929190505050600660006101000a81548173ffffffffffffffffffffffffffffffffffffffff021916908373ffffffffffffffffffffffffffffffffffffffff16021790555084600260006101000a81548173ffffffffffffffffffffffffffffffffffffffff021916908373ffffffffffffffffffffffffffffffffffffffff16021790555083600460006101000a81548173ffffffffffffffffffffffffffffffffffffffff021916908373ffffffffffffffffffffffffffffffffffffffff1602179055508373ffffffffffffffffffffffffffffffffffffffff1663c45a01556040518163ffffffff1660e01b815260040160206040518083038186803b1580156200030b57600080fd5b505afa15801562000320573d6000803e3d6000fd5b505050506040513d60208110156200033757600080fd5b8101908080519060200190929190505050600360006101000a81548173ffffffffffffffffffffffffffffffffffffffff021916908373ffffffffffffffffffffffffffffffffffffffff160217905550600073ffffffffffffffffffffffffffffffffffffffff168373ffffffffffffffffffffffffffffffffffffffff1614620003c45782620003e8565b600660009054906101000a900473ffffffffffffffffffffffffffffffffffffffff165b9250600073ffffffffffffffffffffffffffffffffffffffff168273ffffffffffffffffffffffffffffffffffffffff16146200042657816200044a565b600660009054906101000a900473ffffffffffffffffffffffffffffffffffffffff165b9150600360009054906101000a900473ffffffffffffffffffffffffffffffffffffffff1673ffffffffffffffffffffffffffffffffffffffff1663e6a4390584846040518363ffffffff1660e01b8152600401808373ffffffffffffffffffffffffffffffffffffffff1673ffffffffffffffffffffffffffffffffffffffff1681526020018273ffffffffffffffffffffffffffffffffffffffff1673ffffffffffffffffffffffffffffffffffffffff1681526020019250505060206040518083038186803b1580156200052057600080fd5b505afa15801562000535573d6000803e3d6000fd5b505050506040513d60208110156200054c57600080fd5b8101908080519060200190929190505050600560006101000a81548173ffffffffffffffffffffffffffffffffffffffff021916908373ffffffffffffffffffffffffffffffffffffffff160217905550600560009054906101000a900473ffffffffffffffffffffffffffffffffffffffff1673ffffffffffffffffffffffffffffffffffffffff16630dfe16816040518163ffffffff1660e01b815260040160206040518083038186803b1580156200060657600080fd5b505afa1580156200061b573d6000803e3d6000fd5b505050506040513d60208110156200063257600080fd5b8101908080519060200190929190505050600760006101000a81548173ffffffffffffffffffffffffffffffffffffffff021916908373ffffffffffffffffffffffffffffffffffffffff160217905550600560009054906101000a900473ffffffffffffffffffffffffffffffffffffffff1673ffffffffffffffffffffffffffffffffffffffff1663d21220a76040518163ffffffff1660e01b815260040160206040518083038186803b158015620006ec57600080fd5b505afa15801562000701573d6000803e3d6000fd5b505050506040513d60208110156200071857600080fd5b8101908080519060200190929190505050600860006101000a81548173ffffffffffffffffffffffffffffffffffffffff021916908373ffffffffffffffffffffffffffffffffffffffff16021790555080600d60006101000a81548173ffffffffffffffffffffffffffffffffffffffff021916908373ffffffffffffffffffffffffffffffffffffffff1602179055506001600b6000600d60009054906101000a900473ffffffffffffffffffffffffffffffffffffffff1673ffffffffffffffffffffffffffffffffffffffff1673ffffffffffffffffffffffffffffffffffffffff16815260200190815260200160002060006101000a81548160ff021916908315150217905550600560009054906101000a900473ffffffffffffffffffffffffffffffffffffffff1673ffffffffffffffffffffffffffffffffffffffff1663095ea7b3867fffffffffffffffffffffffffffffffffffffffffffffffffffffffffffffffff6040518363ffffffff1660e01b8152600401808373ffffffffffffffffffffffffffffffffffffffff1673ffffffffffffffffffffffffffffffffffffffff16815260200182815260200192505050602060405180830381600087803b158015620008ee57600080fd5b505af115801562000903573d6000803e3d6000fd5b505050506040513d60208110156200091a57600080fd5b81019080805190602001909291905050505050505050505061370c80620009426000396000f3fe6080604052600436106101405760003560e01c80638da5cb5b116100b6578063e7956f211161006f578063e7956f211461075b578063ee9e9bc9146107ed578063f204b9c51461085c578063f2fde38b146108ab578063f887ea40146108fc578063f88acf8c1461095357610140565b80638da5cb5b1461055b5780638f32d59b146105b2578063996e3438146105e1578063c45a01551461064a578063d21220a7146106a1578063d75734c8146106f857610140565b8063570ca73511610108578063570ca735146103115780635fcbd2851461036857806362896f1e146103bf578063715018a614610496578063785629b8146104ad578063785f34991461050457610140565b8063060336ec146101425780630dfe1681146101bd5780631ec82cb8146102145780632e4a9f601461028f5780634cf088d9146102ba575b005b34801561014e57600080fd5b506101bb6004803603606081101561016557600080fd5b8101908080359060200190929190803573ffffffffffffffffffffffffffffffffffffffff169060200190929190803573ffffffffffffffffffffffffffffffffffffffff1690602001909291905050506109a4565b005b3480156101c957600080fd5b506101d2611130565b604051808273ffffffffffffffffffffffffffffffffffffffff1673ffffffffffffffffffffffffffffffffffffffff16815260200191505060405180910390f35b34801561022057600080fd5b5061028d6004803603606081101561023757600080fd5b81019080803573ffffffffffffffffffffffffffffffffffffffff169060200190929190803573ffffffffffffffffffffffffffffffffffffffff16906020019092919080359060200190929190505050611156565b005b34801561029b57600080fd5b506102a461128f565b6040518082815260200191505060405180910390f35b3480156102c657600080fd5b506102cf611295565b604051808273ffffffffffffffffffffffffffffffffffffffff1673ffffffffffffffffffffffffffffffffffffffff16815260200191505060405180910390f35b34801561031d57600080fd5b506103266112bb565b604051808273ffffffffffffffffffffffffffffffffffffffff1673ffffffffffffffffffffffffffffffffffffffff16815260200191505060405180910390f35b34801561037457600080fd5b5061037d6112e1565b604051808273ffffffffffffffffffffffffffffffffffffffff1673ffffffffffffffffffffffffffffffffffffffff16815260200191505060405180910390f35b610494600480360360c08110156103d557600080fd5b8101908080359060200190929190803573ffffffffffffffffffffffffffffffffffffffff169060200190929190803573ffffffffffffffffffffffffffffffffffffffff16906020019092919080359060200190929190803590602001909291908035906020019064010000000081111561045057600080fd5b82018360208201111561046257600080fd5b8035906020019184600183028401116401000000008311171561048457600080fd5b9091929391929390505050611307565b005b3480156104a257600080fd5b506104ab611bae565b005b3480156104b957600080fd5b506104c2611ce7565b604051808273ffffffffffffffffffffffffffffffffffffffff1673ffffffffffffffffffffffffffffffffffffffff16815260200191505060405180910390f35b34801561051057600080fd5b50610519611d0d565b604051808273ffffffffffffffffffffffffffffffffffffffff1673ffffffffffffffffffffffffffffffffffffffff16815260200191505060405180910390f35b34801561056757600080fd5b50610570611d33565b604051808273ffffffffffffffffffffffffffffffffffffffff1673ffffffffffffffffffffffffffffffffffffffff16815260200191505060405180910390f35b3480156105be57600080fd5b506105c7611d5c565b604051808215151515815260200191505060405180910390f35b3480156105ed57600080fd5b506106306004803603602081101561060457600080fd5b81019080803573ffffffffffffffffffffffffffffffffffffffff169060200190929190505050611db3565b604051808215151515815260200191505060405180910390f35b34801561065657600080fd5b5061065f611dd3565b604051808273ffffffffffffffffffffffffffffffffffffffff1673ffffffffffffffffffffffffffffffffffffffff16815260200191505060405180910390f35b3480156106ad57600080fd5b506106b6611df9565b604051808273ffffffffffffffffffffffffffffffffffffffff1673ffffffffffffffffffffffffffffffffffffffff16815260200191505060405180910390f35b34801561070457600080fd5b506107456004803603606081101561071b57600080fd5b81019080803590602001909291908035906020019092919080359060200190929190505050611e1f565b6040518082815260200191505060405180910390f35b34801561076757600080fd5b506107eb6004803603604081101561077e57600080fd5b810190808035906020019064010000000081111561079b57600080fd5b8201836020820111156107ad57600080fd5b803590602001918460208302840111640100000000831117156107cf57600080fd5b9091929391929390803515159060200190929190505050611f26565b005b3480156107f957600080fd5b506108466004803603604081101561081057600080fd5b8101908080359060200190929190803573ffffffffffffffffffffffffffffffffffffffff1690602001909291905050506120bf565b6040518082815260200191505060405180910390f35b34801561086857600080fd5b506108956004803603602081101561087f57600080fd5b81019080803590602001909291905050506125ac565b6040518082815260200191505060405180910390f35b3480156108b757600080fd5b506108fa600480360360208110156108ce57600080fd5b81019080803573ffffffffffffffffffffffffffffffffffffffff1690602001909291905050506125c4565b005b34801561090857600080fd5b5061091161264a565b604051808273ffffffffffffffffffffffffffffffffffffffff1673ffffffffffffffffffffffffffffffffffffffff16815260200191505060405180910390f35b34801561095f57600080fd5b506109a26004803603602081101561097657600080fd5b81019080803573ffffffffffffffffffffffffffffffffffffffff169060200190929190505050612670565b005b600960009054906101000a900473ffffffffffffffffffffffffffffffffffffffff1673ffffffffffffffffffffffffffffffffffffffff163373ffffffffffffffffffffffffffffffffffffffff1614610a67576040517f08c379a000000000000000000000000000000000000000000000000000000000815260040180806020018281038252600c8152602001807f6e6f74206f70657261746f72000000000000000000000000000000000000000081525060200191505060405180910390fd5b600180600082825401925050819055506000600154905060008073ffffffffffffffffffffffffffffffffffffffff168373ffffffffffffffffffffffffffffffffffffffff16149050600760009054906101000a900473ffffffffffffffffffffffffffffffffffffffff1673ffffffffffffffffffffffffffffffffffffffff168373ffffffffffffffffffffffffffffffffffffffff161480610b5a5750600860009054906101000a900473ffffffffffffffffffffffffffffffffffffffff1673ffffffffffffffffffffffffffffffffffffffff168373ffffffffffffffffffffffffffffffffffffffff16145b80610b625750805b610bb7576040517f08c379a00000000000000000000000000000000000000000000000000000000081526004018080602001828103825260218152602001806136966021913960400191505060405180910390fd5b610bc1858561272e565b6000600560009054906101000a900473ffffffffffffffffffffffffffffffffffffffff1673ffffffffffffffffffffffffffffffffffffffff166370a08231306040518263ffffffff1660e01b8152600401808273ffffffffffffffffffffffffffffffffffffffff1673ffffffffffffffffffffffffffffffffffffffff16815260200191505060206040518083038186803b158015610c6257600080fd5b505afa158015610c76573d6000803e3d6000fd5b505050506040513d6020811015610c8c57600080fd5b81019080805190602001909291905050509050600560009054906101000a900473ffffffffffffffffffffffffffffffffffffffff1673ffffffffffffffffffffffffffffffffffffffff1663a9059cbb600d60009054906101000a900473ffffffffffffffffffffffffffffffffffffffff16836040518363ffffffff1660e01b8152600401808373ffffffffffffffffffffffffffffffffffffffff1673ffffffffffffffffffffffffffffffffffffffff16815260200182815260200192505050602060405180830381600087803b158015610d6a57600080fd5b505af1158015610d7e573d6000803e3d6000fd5b505050506040513d6020811015610d9457600080fd5b810190808051906020019092919050505050600d60009054906101000a900473ffffffffffffffffffffffffffffffffffffffff1673ffffffffffffffffffffffffffffffffffffffff1663f48221a3600086600080600560009054906101000a900473ffffffffffffffffffffffffffffffffffffffff16604051602001808273ffffffffffffffffffffffffffffffffffffffff1673ffffffffffffffffffffffffffffffffffffffff1681526020019150506040516020818303038152906040526040518663ffffffff1660e01b8152600401808673ffffffffffffffffffffffffffffffffffffffff1673ffffffffffffffffffffffffffffffffffffffff1681526020018573ffffffffffffffffffffffffffffffffffffffff1673ffffffffffffffffffffffffffffffffffffffff16815260200184815260200183815260200180602001828103825283818151815260200191508051906020019080838360005b83811015610f17578082015181840152602081019050610efc565b50505050905090810190601f168015610f445780820380516001836020036101000a031916815260200191505b509650505050505050600060405180830381600087803b158015610f6757600080fd5b505af1158015610f7b573d6000803e3d6000fd5b5050505060008215610f9957479050610f943382612881565b610fe6565b610fb88573ffffffffffffffffffffffffffffffffffffffff166129e6565b9050610fe533828773ffffffffffffffffffffffffffffffffffffffff16612aa79092919063ffffffff16565b5b867f290dd7c4b59375cb1ccc04df55e3ce258f58f1777a03713ecafbd23f8ec864be600560009054906101000a900473ffffffffffffffffffffffffffffffffffffffff16848885604051808573ffffffffffffffffffffffffffffffffffffffff1673ffffffffffffffffffffffffffffffffffffffff1681526020018481526020018373ffffffffffffffffffffffffffffffffffffffff1673ffffffffffffffffffffffffffffffffffffffff16815260200182815260200194505050505060405180910390a2505050600154811461112a576040517f08c379a000000000000000000000000000000000000000000000000000000000815260040180806020018281038252601f8152602001807f5265656e7472616e637947756172643a207265656e7472616e742063616c6c0081525060200191505060405180910390fd5b50505050565b600760009054906101000a900473ffffffffffffffffffffffffffffffffffffffff1681565b61115e611d5c565b6111d0576040517f08c379a00000000000000000000000000000000000000000000000000000000081526004018080602001828103825260208152602001807f4f776e61626c653a2063616c6c6572206973206e6f7420746865206f776e657281525060200191505060405180910390fd5b600180600082825401925050819055506000600154905061121283838673ffffffffffffffffffffffffffffffffffffffff16612aa79092919063ffffffff16565b6001548114611289576040517f08c379a000000000000000000000000000000000000000000000000000000000815260040180806020018281038252601f8152602001807f5265656e7472616e637947756172643a207265656e7472616e742063616c6c0081525060200191505060405180910390fd5b50505050565b600c5481565b600260009054906101000a900473ffffffffffffffffffffffffffffffffffffffff1681565b600960009054906101000a900473ffffffffffffffffffffffffffffffffffffffff1681565b600560009054906101000a900473ffffffffffffffffffffffffffffffffffffffff1681565b600960009054906101000a900473ffffffffffffffffffffffffffffffffffffffff1673ffffffffffffffffffffffffffffffffffffffff163373ffffffffffffffffffffffffffffffffffffffff16146113ca576040517f08c379a000000000000000000000000000000000000000000000000000000000815260040180806020018281038252600c8152602001807f6e6f74206f70657261746f72000000000000000000000000000000000000000081525060200191505060405180910390fd5b6001806000828254019250508190555060006001549050600760009054906101000a900473ffffffffffffffffffffffffffffffffffffffff1673ffffffffffffffffffffffffffffffffffffffff168673ffffffffffffffffffffffffffffffffffffffff16148061148a5750600860009054906101000a900473ffffffffffffffffffffffffffffffffffffffff1673ffffffffffffffffffffffffffffffffffffffff168673ffffffffffffffffffffffffffffffffffffffff16145b806114c15750600073ffffffffffffffffffffffffffffffffffffffff168673ffffffffffffffffffffffffffffffffffffffff16145b611516576040517f08c379a00000000000000000000000000000000000000000000000000000000081526004018080602001828103825260218152602001806136966021913960400191505060405180910390fd5b611520888861272e565b600060608484604081101561153457600080fd5b81019080803573ffffffffffffffffffffffffffffffffffffffff1690602001909291908035906020019064010000000081111561157157600080fd5b82018360208201111561158357600080fd5b803590602001918460018302840111640100000000831117156115a557600080fd5b91908080601f016020809104026020016040519081016040528093929190818152602001838380828437600081840152601f19601f82011690508083019250505050505050919291929050505091509150600b60008373ffffffffffffffffffffffffffffffffffffffff1673ffffffffffffffffffffffffffffffffffffffff16815260200190815260200160002060009054906101000a900460ff166116b5576040517f08c379a00000000000000000000000000000000000000000000000000000000081526004018080602001828103825260188152602001807f756e617070726f76656420776f726b207374726174656779000000000000000081525060200191505060405180910390fd5b600560009054906101000a900473ffffffffffffffffffffffffffffffffffffffff1673ffffffffffffffffffffffffffffffffffffffff1663a9059cbb83600560009054906101000a900473ffffffffffffffffffffffffffffffffffffffff1673ffffffffffffffffffffffffffffffffffffffff166370a08231306040518263ffffffff1660e01b8152600401808273ffffffffffffffffffffffffffffffffffffffff1673ffffffffffffffffffffffffffffffffffffffff16815260200191505060206040518083038186803b15801561179357600080fd5b505afa1580156117a7573d6000803e3d6000fd5b505050506040513d60208110156117bd57600080fd5b81019080805190602001909291905050506040518363ffffffff1660e01b8152600401808373ffffffffffffffffffffffffffffffffffffffff1673ffffffffffffffffffffffffffffffffffffffff16815260200182815260200192505050602060405180830381600087803b15801561183757600080fd5b505af115801561184b573d6000803e3d6000fd5b505050506040513d602081101561186157600080fd5b8101908080519060200190929190505050506000871180156118b05750600073ffffffffffffffffffffffffffffffffffffffff168873ffffffffffffffffffffffffffffffffffffffff1614155b1561195a576118e23330898b73ffffffffffffffffffffffffffffffffffffffff16612ca0909392919063ffffffff16565b61190e8260008a73ffffffffffffffffffffffffffffffffffffffff16612ece9092919063ffffffff16565b611959827fffffffffffffffffffffffffffffffffffffffffffffffffffffffffffffffff8a73ffffffffffffffffffffffffffffffffffffffff16612ece9092919063ffffffff16565b5b8173ffffffffffffffffffffffffffffffffffffffff1663f48221a3348b8b8b8b876040518763ffffffff1660e01b8152600401808673ffffffffffffffffffffffffffffffffffffffff1673ffffffffffffffffffffffffffffffffffffffff1681526020018573ffffffffffffffffffffffffffffffffffffffff1673ffffffffffffffffffffffffffffffffffffffff16815260200184815260200183815260200180602001828103825283818151815260200191508051906020019080838360005b83811015611a3b578082015181840152602081019050611a20565b50505050905090810190601f168015611a685780820380516001836020036101000a031916815260200191505b5096505050505050506000604051808303818588803b158015611a8a57600080fd5b505af1158015611a9e573d6000803e3d6000fd5b5050505050611aad8a8a6130c7565b600073ffffffffffffffffffffffffffffffffffffffff168873ffffffffffffffffffffffffffffffffffffffff161415611af157611aec3347612881565b611b2b565b6000611b128973ffffffffffffffffffffffffffffffffffffffff166129e6565b90506000811115611b2957611b28893383612aa7565b5b505b50506001548114611ba4576040517f08c379a000000000000000000000000000000000000000000000000000000000815260040180806020018281038252601f8152602001807f5265656e7472616e637947756172643a207265656e7472616e742063616c6c0081525060200191505060405180910390fd5b5050505050505050565b611bb6611d5c565b611c28576040517f08c379a00000000000000000000000000000000000000000000000000000000081526004018080602001828103825260208152602001807f4f776e61626c653a2063616c6c6572206973206e6f7420746865206f776e657281525060200191505060405180910390fd5b600073ffffffffffffffffffffffffffffffffffffffff166000809054906101000a900473ffffffffffffffffffffffffffffffffffffffff1673ffffffffffffffffffffffffffffffffffffffff167f8be0079c531659141344cd1fd0a4f28419497f9722a3daafe3b4186f6b6457e060405160405180910390a360008060006101000a81548173ffffffffffffffffffffffffffffffffffffffff021916908373ffffffffffffffffffffffffffffffffffffffff160217905550565b600d60009054906101000a900473ffffffffffffffffffffffffffffffffffffffff1681565b600660009054906101000a900473ffffffffffffffffffffffffffffffffffffffff1681565b60008060009054906101000a900473ffffffffffffffffffffffffffffffffffffffff16905090565b60008060009054906101000a900473ffffffffffffffffffffffffffffffffffffffff1673ffffffffffffffffffffffffffffffffffffffff163373ffffffffffffffffffffffffffffffffffffffff1614905090565b600b6020528060005260406000206000915054906101000a900460ff1681565b600360009054906101000a900473ffffffffffffffffffffffffffffffffffffffff1681565b600860009054906101000a900473ffffffffffffffffffffffffffffffffffffffff1681565b600080841415611e325760009050611f1f565b600083118015611e425750600082115b611eb4576040517f08c379a00000000000000000000000000000000000000000000000000000000081526004018080602001828103825260128152602001807f62616420726573657276652076616c756573000000000000000000000000000081525060200191505060405180910390fd5b6000611ecb6103e58661330590919063ffffffff16565b90506000611ee2848361330590919063ffffffff16565b90506000611f0d83611eff6103e88961330590919063ffffffff16565b61338b90919063ffffffff16565b9050808281611f1857fe5b0493505050505b9392505050565b611f2e611d5c565b611fa0576040517f08c379a00000000000000000000000000000000000000000000000000000000081526004018080602001828103825260208152602001807f4f776e61626c653a2063616c6c6572206973206e6f7420746865206f776e657281525060200191505060405180910390fd5b6000838390509050600a811061201e576040517f08c379a00000000000000000000000000000000000000000000000000000000081526004018080602001828103825260118152602001807f737472617465677920746f6f206d6f726500000000000000000000000000000081525060200191505060405180910390fd5b60008090505b818110156120b85782600b600087878581811061203d57fe5b9050602002013573ffffffffffffffffffffffffffffffffffffffff1673ffffffffffffffffffffffffffffffffffffffff1673ffffffffffffffffffffffffffffffffffffffff16815260200190815260200160002060006101000a81548160ff0219169083151502179055508080600101915050612024565b5050505050565b600080600073ffffffffffffffffffffffffffffffffffffffff168373ffffffffffffffffffffffffffffffffffffffff16149050600760009054906101000a900473ffffffffffffffffffffffffffffffffffffffff1673ffffffffffffffffffffffffffffffffffffffff168373ffffffffffffffffffffffffffffffffffffffff16148061219d5750600860009054906101000a900473ffffffffffffffffffffffffffffffffffffffff1673ffffffffffffffffffffffffffffffffffffffff168373ffffffffffffffffffffffffffffffffffffffff16145b806121a55750805b6121fa576040517f08c379a00000000000000000000000000000000000000000000000000000000081526004018080602001828103825260218152602001806136966021913960400191505060405180910390fd5b6000600a60008681526020019081526020016000205490506000600560009054906101000a900473ffffffffffffffffffffffffffffffffffffffff1673ffffffffffffffffffffffffffffffffffffffff166318160ddd6040518163ffffffff1660e01b815260040160206040518083038186803b15801561227c57600080fd5b505afa158015612290573d6000803e3d6000fd5b505050506040513d60208110156122a657600080fd5b81019080805190602001909291905050509050600080600560009054906101000a900473ffffffffffffffffffffffffffffffffffffffff1673ffffffffffffffffffffffffffffffffffffffff16630902f1ac6040518163ffffffff1660e01b815260040160606040518083038186803b15801561232457600080fd5b505afa158015612338573d6000803e3d6000fd5b505050506040513d606081101561234e57600080fd5b81019080805190602001909291908051906020019092919080519060200190929190505050506dffffffffffffffffffffffffffff1691506dffffffffffffffffffffffffffff16915060006123bf846123b1858861330590919063ffffffff16565b61341390919063ffffffff16565b905060006123e8856123da858961330590919063ffffffff16565b61341390919063ffffffff16565b905086156124b657600660009054906101000a900473ffffffffffffffffffffffffffffffffffffffff1673ffffffffffffffffffffffffffffffffffffffff16600760009054906101000a900473ffffffffffffffffffffffffffffffffffffffff1673ffffffffffffffffffffffffffffffffffffffff161461248f57600860009054906101000a900473ffffffffffffffffffffffffffffffffffffffff166124b3565b600760009054906101000a900473ffffffffffffffffffffffffffffffffffffffff165b98505b600760009054906101000a900473ffffffffffffffffffffffffffffffffffffffff1673ffffffffffffffffffffffffffffffffffffffff168973ffffffffffffffffffffffffffffffffffffffff16141561255b5761254d8261253f8361252785886134a290919063ffffffff16565b61253a878a6134a290919063ffffffff16565b611e1f565b61338b90919063ffffffff16565b9750505050505050506125a6565b61259c8161258e8461257686896134a290919063ffffffff16565b61258986896134a290919063ffffffff16565b611e1f565b61338b90919063ffffffff16565b9750505050505050505b92915050565b600a6020528060005260406000206000915090505481565b6125cc611d5c565b61263e576040517f08c379a00000000000000000000000000000000000000000000000000000000081526004018080602001828103825260208152602001807f4f776e61626c653a2063616c6c6572206973206e6f7420746865206f776e657281525060200191505060405180910390fd5b6126478161352b565b50565b600460009054906101000a900473ffffffffffffffffffffffffffffffffffffffff1681565b612678611d5c565b6126ea576040517f08c379a00000000000000000000000000000000000000000000000000000000081526004018080602001828103825260208152602001807f4f776e61626c653a2063616c6c6572206973206e6f7420746865206f776e657281525060200191505060405180910390fd5b80600d60006101000a81548173ffffffffffffffffffffffffffffffffffffffff021916908373ffffffffffffffffffffffffffffffffffffffff16021790555050565b6000600a6000848152602001908152602001600020549050600081111561287c576000600a60008581526020019081526020016000208190555061277d81600c546134a290919063ffffffff16565b600c81905550600260009054906101000a900473ffffffffffffffffffffffffffffffffffffffff1673ffffffffffffffffffffffffffffffffffffffff1662f714ce82846040518363ffffffff1660e01b8152600401808381526020018273ffffffffffffffffffffffffffffffffffffffff1673ffffffffffffffffffffffffffffffffffffffff16815260200192505050600060405180830381600087803b15801561282b57600080fd5b505af115801561283f573d6000803e3d6000fd5b50505050827fc84a6b5196fc6fb3bc943120255d7f3efee1424717da5bbc24f922ed8426ea2c826040518082815260200191505060405180910390a25b505050565b60008273ffffffffffffffffffffffffffffffffffffffff168260006040519080825280601f01601f1916602001820160405280156128cf5781602001600182028038833980820191505090505b506040518082805190602001908083835b6020831061290357805182526020820191506020810190506020830392506128e0565b6001836020036101000a03801982511681845116808217855250505050505090500191505060006040518083038185875af1925050503d8060008114612965576040519150601f19603f3d011682016040523d82523d6000602084013e61296a565b606091505b50509050806129e1576040517f08c379a00000000000000000000000000000000000000000000000000000000081526004018080602001828103825260108152602001807f21736166655472616e736665724554480000000000000000000000000000000081525060200191505060405180910390fd5b505050565b60008173ffffffffffffffffffffffffffffffffffffffff166370a08231306040518263ffffffff1660e01b8152600401808273ffffffffffffffffffffffffffffffffffffffff1673ffffffffffffffffffffffffffffffffffffffff16815260200191505060206040518083038186803b158015612a6557600080fd5b505afa158015612a79573d6000803e3d6000fd5b505050506040513d6020811015612a8f57600080fd5b81019080805190602001909291905050509050919050565b600060608473ffffffffffffffffffffffffffffffffffffffff1663a9059cbb8585604051602401808373ffffffffffffffffffffffffffffffffffffffff1673ffffffffffffffffffffffffffffffffffffffff168152602001828152602001925050506040516020818303038152906040529060e01b6020820180517bffffffffffffffffffffffffffffffffffffffffffffffffffffffff83818316178352505050506040518082805190602001908083835b60208310612b805780518252602082019150602081019050602083039250612b5d565b6001836020036101000a0380198251168184511680821785525050505050509050019150506000604051808303816000865af19150503d8060008114612be2576040519150601f19603f3d011682016040523d82523d6000602084013e612be7565b606091505b5091509150818015612c275750600081511480612c265750808060200190516020811015612c1457600080fd5b81019080805190602001909291905050505b5b612c99576040517f08c379a000000000000000000000000000000000000000000000000000000000815260040180806020018281038252600d8152602001807f21736166655472616e736665720000000000000000000000000000000000000081525060200191505060405180910390fd5b5050505050565b600060608573ffffffffffffffffffffffffffffffffffffffff166323b872dd868686604051602401808473ffffffffffffffffffffffffffffffffffffffff1673ffffffffffffffffffffffffffffffffffffffff1681526020018373ffffffffffffffffffffffffffffffffffffffff1673ffffffffffffffffffffffffffffffffffffffff16815260200182815260200193505050506040516020818303038152906040529060e01b6020820180517bffffffffffffffffffffffffffffffffffffffffffffffffffffffff83818316178352505050506040518082805190602001908083835b60208310612dad5780518252602082019150602081019050602083039250612d8a565b6001836020036101000a0380198251168184511680821785525050505050509050019150506000604051808303816000865af19150503d8060008114612e0f576040519150601f19603f3d011682016040523d82523d6000602084013e612e14565b606091505b5091509150818015612e545750600081511480612e535750808060200190516020811015612e4157600080fd5b81019080805190602001909291905050505b5b612ec6576040517f08c379a00000000000000000000000000000000000000000000000000000000081526004018080602001828103825260118152602001807f21736166655472616e7366657246726f6d00000000000000000000000000000081525060200191505060405180910390fd5b505050505050565b600060608473ffffffffffffffffffffffffffffffffffffffff1663095ea7b38585604051602401808373ffffffffffffffffffffffffffffffffffffffff1673ffffffffffffffffffffffffffffffffffffffff168152602001828152602001925050506040516020818303038152906040529060e01b6020820180517bffffffffffffffffffffffffffffffffffffffffffffffffffffffff83818316178352505050506040518082805190602001908083835b60208310612fa75780518252602082019150602081019050602083039250612f84565b6001836020036101000a0380198251168184511680821785525050505050509050019150506000604051808303816000865af19150503d8060008114613009576040519150601f19603f3d011682016040523d82523d6000602084013e61300e565b606091505b509150915081801561304e575060008151148061304d575080806020019051602081101561303b57600080fd5b81019080805190602001909291905050505b5b6130c0576040517f08c379a000000000000000000000000000000000000000000000000000000000815260040180806020018281038252600c8152602001807f2173616665417070726f7665000000000000000000000000000000000000000081525060200191505060405180910390fd5b5050505050565b6000600560009054906101000a900473ffffffffffffffffffffffffffffffffffffffff1673ffffffffffffffffffffffffffffffffffffffff166370a08231306040518263ffffffff1660e01b8152600401808273ffffffffffffffffffffffffffffffffffffffff1673ffffffffffffffffffffffffffffffffffffffff16815260200191505060206040518083038186803b15801561316857600080fd5b505afa15801561317c573d6000803e3d6000fd5b505050506040513d602081101561319257600080fd5b81019080805190602001909291905050509050600081111561330057600260009054906101000a900473ffffffffffffffffffffffffffffffffffffffff1673ffffffffffffffffffffffffffffffffffffffff16637acb775782846040518363ffffffff1660e01b8152600401808381526020018273ffffffffffffffffffffffffffffffffffffffff1673ffffffffffffffffffffffffffffffffffffffff16815260200192505050600060405180830381600087803b15801561325757600080fd5b505af115801561326b573d6000803e3d6000fd5b5050505061328481600c5461338b90919063ffffffff16565b600c819055506132b081600a60008681526020019081526020016000205461338b90919063ffffffff16565b600a600085815260200190815260200160002081905550827f575f7e3945a96aca9eb04485edad4d0525b0cf2f686b62c51a4d7e089ac00585826040518082815260200191505060405180910390a25b505050565b6000808314156133185760009050613385565b600082840290508284828161332957fe5b0414613380576040517f08c379a00000000000000000000000000000000000000000000000000000000081526004018080602001828103825260218152602001806136b76021913960400191505060405180910390fd5b809150505b92915050565b600080828401905083811015613409576040517f08c379a000000000000000000000000000000000000000000000000000000000815260040180806020018281038252601b8152602001807f536166654d6174683a206164646974696f6e206f766572666c6f77000000000081525060200191505060405180910390fd5b8091505092915050565b600080821161348a576040517f08c379a000000000000000000000000000000000000000000000000000000000815260040180806020018281038252601a8152602001807f536166654d6174683a206469766973696f6e206279207a65726f00000000000081525060200191505060405180910390fd5b600082848161349557fe5b0490508091505092915050565b60008282111561351a576040517f08c379a000000000000000000000000000000000000000000000000000000000815260040180806020018281038252601e8152602001807f536166654d6174683a207375627472616374696f6e206f766572666c6f77000081525060200191505060405180910390fd5b600082840390508091505092915050565b600073ffffffffffffffffffffffffffffffffffffffff168173ffffffffffffffffffffffffffffffffffffffff1614156135b1576040517f08c379a00000000000000000000000000000000000000000000000000000000081526004018080602001828103825260268152602001806136706026913960400191505060405180910390fd5b8073ffffffffffffffffffffffffffffffffffffffff166000809054906101000a900473ffffffffffffffffffffffffffffffffffffffff1673ffffffffffffffffffffffffffffffffffffffff167f8be0079c531659141344cd1fd0a4f28419497f9722a3daafe3b4186f6b6457e060405160405180910390a3806000806101000a81548173ffffffffffffffffffffffffffffffffffffffff021916908373ffffffffffffffffffffffffffffffffffffffff1602179055505056fe4f776e61626c653a206e6577206f776e657220697320746865207a65726f2061646472657373626f72726f77546f6b656e206e6f7420746f6b656e3020616e6420746f6b656e31536166654d6174683a206d756c7469706c69636174696f6e206f766572666c6f77a265627a7a72315820f87f8f681f16fcba6150c927bc10a8e450a07fb288c3796c01f870637b5ba3c964736f6c63430005100032",
  "source": "pragma solidity ^0.5.16;\n\nimport \"@openzeppelin/contracts/ownership/Ownable.sol\";\nimport \"@openzeppelin/contracts/math/SafeMath.sol\";\nimport \"@openzeppelin/contracts/utils/ReentrancyGuard.sol\";\nimport \"./interfaces/Goblin.sol\";\nimport \"./interfaces/IMdexFactory.sol\";\nimport \"./interfaces/IMdexRouter.sol\";\nimport \"./interfaces/IMdexPair.sol\";\nimport \"./interfaces/ILPStakingRewards.sol\";\nimport \"./SafeToken.sol\";\nimport \"./interfaces/Strategy.sol\";\n\n\ncontract MdxGoblin is Ownable, ReentrancyGuard, Goblin {\n    /// @notice Libraries\n    using SafeToken for address;\n    using SafeMath for uint256;\n\n    /// @notice Events\n    event AddPosition(uint256 indexed id, uint256 lpAmount);\n    event RemovePosition(uint256 indexed id, uint256 lpAmount);\n    event Liquidate(uint256 indexed id, address lpTokenAddress, uint256 lpAmount, address debtToken, uint256 liqAmount);\n\n    /// @notice Immutable variables\n    IStakingRewards public staking;\n    IMdexFactory public factory;\n    IMdexRouter public router;\n    IMdexPair public lpToken;\n    address public wht;\n    address public token0;\n    address public token1;\n    address public operator;\n\n    /// @notice Mutable state variables\n    mapping(uint256 => uint256) public posLPAmount;\n    mapping(address => bool) public okStrategies;\n    uint256 public totalLPAmount;\n    Strategy public liqStrategy;\n\n    constructor(\n        address _operator,\n        IStakingRewards _staking,\n        IMdexRouter _router,\n        address _token0,\n        address _token1,\n        Strategy _liqStrategy\n    ) public {\n        operator = _operator;\n        wht = _router.WHT();\n        staking = _staking;\n        router = _router;\n        factory = IMdexFactory(_router.factory());\n\n        _token0 = _token0 == address(0) ? wht : _token0;\n        _token1 = _token1 == address(0) ? wht : _token1;\n\n        lpToken = IMdexPair(factory.getPair(_token0, _token1));\n        token0 = lpToken.token0();\n        token1 = lpToken.token1();\n\n        liqStrategy = _liqStrategy;\n        okStrategies[address(liqStrategy)] = true;\n\n        // 100% trust in the staking pool\n        lpToken.approve(address(_staking), uint256(-1));\n    }\n\n    /// @dev Require that the caller must be the operator (the bank).\n    modifier onlyOperator() {\n        require(msg.sender == operator, \"not operator\");\n        _;\n    }\n\n    /// @dev Work on the given position. Must be called by the operator.\n    /// @param id The position ID to work on.\n    /// @param user The original user that is interacting with the operator.\n    /// @param borrowToken The token user borrow from bank.\n    /// @param borrow The amount user borrow form bank.\n    /// @param debt The user's debt amount.\n    /// @param data The encoded data, consisting of strategy address and bytes to strategy.\n    function work(uint256 id, address user, address borrowToken, uint256 borrow, uint256 debt, bytes calldata data)\n        external\n        payable\n        onlyOperator\n        nonReentrant\n    {\n        require(borrowToken == token0 || borrowToken == token1 || borrowToken == address(0), \"borrowToken not token0 and token1\");\n\n        // 1. Convert this position back to LP tokens.\n        _removePosition(id, user);\n        // 2. Perform the worker strategy; sending LP tokens + borrowToken; expecting LP tokens.\n        (address strategy, bytes memory ext) = abi.decode(data, (address, bytes));\n        require(okStrategies[strategy], \"unapproved work strategy\");\n\n        lpToken.transfer(strategy, lpToken.balanceOf(address(this)));\n\n        // transfer the borrow token.\n        if (borrow > 0 && borrowToken != address(0)) {\n            borrowToken.safeTransferFrom(msg.sender, address(this), borrow);\n\n            borrowToken.safeApprove(address(strategy), 0);\n            borrowToken.safeApprove(address(strategy), uint256(-1));\n        }\n\n        Strategy(strategy).execute.value(msg.value)(user, borrowToken, borrow, debt, ext);\n\n        // 3. Add LP tokens back to the farming pool.\n        _addPosition(id, user);\n\n        if (borrowToken == address(0)) {\n            SafeToken.safeTransferETH(msg.sender, address(this).balance);\n        } else {\n            uint256 borrowTokenAmount = borrowToken.myBalance();\n            if(borrowTokenAmount > 0){\n                SafeToken.safeTransfer(borrowToken, msg.sender, borrowTokenAmount);\n            }\n        }\n    }\n\n    /// @dev Return maximum output given the input amount and the status of Uniswap reserves.\n    /// @param aIn The amount of asset to market sell.\n    /// @param rIn the amount of asset in reserve for input.\n    /// @param rOut The amount of asset in reserve for output.\n    function getMktSellAmount(uint256 aIn, uint256 rIn, uint256 rOut) public pure returns (uint256) {\n        if (aIn == 0) return 0;\n        require(rIn > 0 && rOut > 0, \"bad reserve values\");\n        uint256 aInWithFee = aIn.mul(997);\n        uint256 numerator = aInWithFee.mul(rOut);\n        uint256 denominator = rIn.mul(1000).add(aInWithFee);\n        return numerator / denominator;\n    }\n\n    /// @dev Return the amount of debt token to receive if we are to liquidate the given position.\n    /// @param id The position ID to perform health check.\n    /// @param borrowToken The token this position had debt.\n    function health(uint256 id, address borrowToken) external view returns (uint256) {\n        bool isDebtHt = borrowToken == address(0);\n        require(borrowToken == token0 || borrowToken == token1 || isDebtHt, \"borrowToken not token0 and token1\");\n\n        // 1. Get the position's LP balance and LP total supply.\n        uint256 lpBalance = posLPAmount[id];\n        uint256 lpSupply = lpToken.totalSupply();\n        // Ignore pending mintFee as it is insignificant\n        // 2. Get the pool's total supply of token0 and token1.\n        (uint256 totalAmount0, uint256 totalAmount1,) = lpToken.getReserves();\n\n        // 3. Convert the position's LP tokens to the underlying assets.\n        uint256 userToken0 = lpBalance.mul(totalAmount0).div(lpSupply);\n        uint256 userToken1 = lpBalance.mul(totalAmount1).div(lpSupply);\n\n        if (isDebtHt) {\n            borrowToken = token0 == wht ? token0 : token1;\n        }\n\n        // 4. Convert all farming tokens to debtToken and return total amount.\n        if (borrowToken == token0) {\n            return getMktSellAmount(\n                userToken1, totalAmount1.sub(userToken1), totalAmount0.sub(userToken0)\n            ).add(userToken0);\n        } else {\n            return getMktSellAmount(\n                userToken0, totalAmount0.sub(userToken0), totalAmount1.sub(userToken1)\n            ).add(userToken1);\n        }\n    }\n\n    /// @dev Liquidate the given position by converting it to debtToken and return back to caller.\n    /// @param id The position ID to perform liquidation.\n    /// @param user The address than this position belong to.\n    /// @param borrowToken The token user borrow from bank.\n    function liquidate(uint256 id, address user, address borrowToken)\n        external\n        onlyOperator\n        nonReentrant\n    {\n        bool isBorrowHt = borrowToken == address(0);\n        require(borrowToken == token0 || borrowToken == token1 || isBorrowHt, \"borrowToken not token0 and token1\");\n\n        // 1. Convert the position back to LP tokens and use liquidate strategy.\n        _removePosition(id, user);\n        uint256 lpTokenAmount = lpToken.balanceOf(address(this));\n        lpToken.transfer(address(liqStrategy), lpTokenAmount);\n        liqStrategy.execute(address(0), borrowToken, uint256(0), uint256(0), abi.encode(address(lpToken)));\n\n        // 2. transfer borrowToken and user want back to goblin.\n        uint256 tokenLiquidate;\n        if (isBorrowHt){\n            tokenLiquidate = address(this).balance;\n            SafeToken.safeTransferETH(msg.sender, tokenLiquidate);\n        } else {\n            tokenLiquidate = borrowToken.myBalance();\n            borrowToken.safeTransfer(msg.sender, tokenLiquidate);\n        }\n\n        emit Liquidate(id, address(lpToken), lpTokenAmount, borrowToken, tokenLiquidate);\n    }\n\n    /// @dev Internal function to stake all outstanding LP tokens to the given position ID.\n    function _addPosition(uint256 id, address user) internal {\n        uint256 lpBalance = lpToken.balanceOf(address(this));\n        if (lpBalance > 0) {\n            // take lpToken to the pool2.\n            staking.stake(lpBalance, user);\n            totalLPAmount = totalLPAmount.add(lpBalance);\n            posLPAmount[id] = posLPAmount[id].add(lpBalance);\n            emit AddPosition(id, lpBalance);\n        }\n    }\n\n    /// @dev Internal function to remove shares of the ID and convert to outstanding LP tokens.\n    function _removePosition(uint256 id, address user) internal {\n        uint256 lpAmount = posLPAmount[id];\n        if (lpAmount > 0) {\n            posLPAmount[id] = 0;\n            totalLPAmount = totalLPAmount.sub(lpAmount);\n            staking.withdraw(lpAmount, user);\n            emit RemovePosition(id, lpAmount);\n        }\n    }\n\n    /// @dev Recover ERC20 tokens that were accidentally sent to this smart contract.\n    /// @param token The token contract. Can be anything. This contract should not hold ERC20 tokens.\n    /// @param to The address to send the tokens to.\n    /// @param value The number of tokens to transfer to `to`.\n    function recover(address token, address to, uint256 value) external onlyOwner nonReentrant {\n        token.safeTransfer(to, value);\n    }\n\n    /// @dev Set the given strategies' approval status.\n    /// @param strategies The strategy addresses.\n    /// @param isOk Whether to approve or unapprove the given strategies.\n    function setStrategyOk(address[] calldata strategies, bool isOk) external onlyOwner {\n        uint256 len = strategies.length;\n        require(len < 10, \"strategy too more\");\n        for (uint256 idx = 0; idx < len; idx++) {\n            okStrategies[strategies[idx]] = isOk;\n        }\n    }\n\n    /// @dev Update critical strategy smart contracts. EMERGENCY ONLY. Bad strategies can steal funds.\n    /// @param _liqStrategy The new liquidate strategy contract.\n    function setCriticalStrategies(Strategy _liqStrategy) external onlyOwner {\n        liqStrategy = _liqStrategy;\n    }\n\n    function() external payable {}\n}",
  "sourcePath": "/Users/yin/projects/homora/pilot/pilot-test/contracts/MdxGoblin.sol",
  "compiler": {
    "name": "solc",
    "version": "0.5.16+commit.9c3226ce.Emscripten.clang"
  },
  "schemaVersion": "3.3.4",
  "updatedAt": "2021-04-01T07:12:56.857Z",
  "devdoc": {
    "methods": {
      "getMktSellAmount(uint256,uint256,uint256)": {
        "details": "Return maximum output given the input amount and the status of Uniswap reserves.",
        "params": {
          "aIn": "The amount of asset to market sell.",
          "rIn": "the amount of asset in reserve for input.",
          "rOut": "The amount of asset in reserve for output."
        }
      },
      "health(uint256,address)": {
        "details": "Return the amount of debt token to receive if we are to liquidate the given position.",
        "params": {
          "borrowToken": "The token this position had debt.",
          "id": "The position ID to perform health check."
        }
      },
      "isOwner()": {
        "details": "Returns true if the caller is the current owner."
      },
      "liquidate(uint256,address,address)": {
        "details": "Liquidate the given position by converting it to debtToken and return back to caller.",
        "params": {
          "borrowToken": "The token user borrow from bank.",
          "id": "The position ID to perform liquidation.",
          "user": "The address than this position belong to."
        }
      },
      "owner()": {
        "details": "Returns the address of the current owner."
      },
      "recover(address,address,uint256)": {
        "details": "Recover ERC20 tokens that were accidentally sent to this smart contract.",
        "params": {
          "to": "The address to send the tokens to.",
          "token": "The token contract. Can be anything. This contract should not hold ERC20 tokens.",
          "value": "The number of tokens to transfer to `to`."
        }
      },
      "renounceOwnership()": {
        "details": "Leaves the contract without owner. It will not be possible to call `onlyOwner` functions anymore. Can only be called by the current owner.     * > Note: Renouncing ownership will leave the contract without an owner, thereby removing any functionality that is only available to the owner."
      },
      "setCriticalStrategies(address)": {
        "details": "Update critical strategy smart contracts. EMERGENCY ONLY. Bad strategies can steal funds.",
        "params": {
          "_liqStrategy": "The new liquidate strategy contract."
        }
      },
      "setStrategyOk(address[],bool)": {
        "details": "Set the given strategies' approval status.",
        "params": {
          "isOk": "Whether to approve or unapprove the given strategies.",
          "strategies": "The strategy addresses."
        }
      },
      "transferOwnership(address)": {
        "details": "Transfers ownership of the contract to a new account (`newOwner`). Can only be called by the current owner."
      },
      "work(uint256,address,address,uint256,uint256,bytes)": {
        "details": "Work on the given position. Must be called by the operator.",
        "params": {
          "borrow": "The amount user borrow form bank.",
          "borrowToken": "The token user borrow from bank.",
          "data": "The encoded data, consisting of strategy address and bytes to strategy.",
          "debt": "The user's debt amount.",
          "id": "The position ID to work on.",
          "user": "The original user that is interacting with the operator."
        }
      }
    }
  },
  "userdoc": {
    "methods": {}
  }
}