{
  "contractName": "MdxStrategyWithdrawMinimizeTrading",
  "abi": [
    {
      "inputs": [
        {
          "internalType": "contract IMdexRouter",
          "name": "_router",
          "type": "address"
        }
      ],
      "payable": false,
      "stateMutability": "nonpayable",
      "type": "constructor"
    },
    {
      "anonymous": false,
      "inputs": [
        {
          "indexed": true,
          "internalType": "address",
          "name": "previousOwner",
          "type": "address"
        },
        {
          "indexed": true,
          "internalType": "address",
          "name": "newOwner",
          "type": "address"
        }
      ],
      "name": "OwnershipTransferred",
      "type": "event"
    },
    {
      "payable": true,
      "stateMutability": "payable",
      "type": "fallback"
    },
    {
      "constant": true,
      "inputs": [],
      "name": "factory",
      "outputs": [
        {
          "internalType": "contract IMdexFactory",
          "name": "",
          "type": "address"
        }
      ],
      "payable": false,
      "stateMutability": "view",
      "type": "function"
    },
    {
      "constant": true,
      "inputs": [],
      "name": "isOwner",
      "outputs": [
        {
          "internalType": "bool",
          "name": "",
          "type": "bool"
        }
      ],
      "payable": false,
      "stateMutability": "view",
      "type": "function"
    },
    {
      "constant": true,
      "inputs": [],
      "name": "owner",
      "outputs": [
        {
          "internalType": "address",
          "name": "",
          "type": "address"
        }
      ],
      "payable": false,
      "stateMutability": "view",
      "type": "function"
    },
    {
      "constant": false,
      "inputs": [],
      "name": "renounceOwnership",
      "outputs": [],
      "payable": false,
      "stateMutability": "nonpayable",
      "type": "function"
    },
    {
      "constant": true,
      "inputs": [],
      "name": "router",
      "outputs": [
        {
          "internalType": "contract IMdexRouter",
          "name": "",
          "type": "address"
        }
      ],
      "payable": false,
      "stateMutability": "view",
      "type": "function"
    },
    {
      "constant": false,
      "inputs": [
        {
          "internalType": "address",
          "name": "newOwner",
          "type": "address"
        }
      ],
      "name": "transferOwnership",
      "outputs": [],
      "payable": false,
      "stateMutability": "nonpayable",
      "type": "function"
    },
    {
      "constant": true,
      "inputs": [],
      "name": "wht",
      "outputs": [
        {
          "internalType": "address",
          "name": "",
          "type": "address"
        }
      ],
      "payable": false,
      "stateMutability": "view",
      "type": "function"
    },
    {
      "constant": false,
      "inputs": [
        {
          "internalType": "address",
          "name": "user",
          "type": "address"
        },
        {
          "internalType": "address",
          "name": "borrowToken",
          "type": "address"
        },
        {
          "internalType": "uint256",
          "name": "",
          "type": "uint256"
        },
        {
          "internalType": "uint256",
          "name": "debt",
          "type": "uint256"
        },
        {
          "internalType": "bytes",
          "name": "data",
          "type": "bytes"
        }
      ],
      "name": "execute",
      "outputs": [],
      "payable": true,
      "stateMutability": "payable",
      "type": "function"
    },
    {
      "constant": false,
      "inputs": [
        {
          "internalType": "address",
          "name": "token",
          "type": "address"
        },
        {
          "internalType": "address",
          "name": "to",
          "type": "address"
        },
        {
          "internalType": "uint256",
          "name": "value",
          "type": "uint256"
        }
      ],
      "name": "recover",
      "outputs": [],
      "payable": false,
      "stateMutability": "nonpayable",
      "type": "function"
    }
  ],
  "bytecode": "0x60806040523480156200001157600080fd5b50604051620025e3380380620025e3833981810160405260208110156200003757600080fd5b8101908080519060200190929190505050336000806101000a81548173ffffffffffffffffffffffffffffffffffffffff021916908373ffffffffffffffffffffffffffffffffffffffff1602179055506000809054906101000a900473ffffffffffffffffffffffffffffffffffffffff1673ffffffffffffffffffffffffffffffffffffffff16600073ffffffffffffffffffffffffffffffffffffffff167f8be0079c531659141344cd1fd0a4f28419497f9722a3daafe3b4186f6b6457e060405160405180910390a3600180819055508073ffffffffffffffffffffffffffffffffffffffff1663c45a01556040518163ffffffff1660e01b815260040160206040518083038186803b1580156200015257600080fd5b505afa15801562000167573d6000803e3d6000fd5b505050506040513d60208110156200017e57600080fd5b8101908080519060200190929190505050600260006101000a81548173ffffffffffffffffffffffffffffffffffffffff021916908373ffffffffffffffffffffffffffffffffffffffff16021790555080600360006101000a81548173ffffffffffffffffffffffffffffffffffffffff021916908373ffffffffffffffffffffffffffffffffffffffff1602179055508073ffffffffffffffffffffffffffffffffffffffff16635cb485926040518163ffffffff1660e01b815260040160206040518083038186803b1580156200025757600080fd5b505afa1580156200026c573d6000803e3d6000fd5b505050506040513d60208110156200028357600080fd5b8101908080519060200190929190505050600460006101000a81548173ffffffffffffffffffffffffffffffffffffffff021916908373ffffffffffffffffffffffffffffffffffffffff160217905550506122fe80620002e56000396000f3fe6080604052600436106100865760003560e01c80638f32d59b116100595780638f32d59b146101c8578063c45a0155146101f7578063f2fde38b1461024e578063f48221a31461029f578063f887ea401461036c57610086565b80631ec82cb814610088578063715018a614610103578063785f34991461011a5780638da5cb5b14610171575b005b34801561009457600080fd5b50610101600480360360608110156100ab57600080fd5b81019080803573ffffffffffffffffffffffffffffffffffffffff169060200190929190803573ffffffffffffffffffffffffffffffffffffffff169060200190929190803590602001909291905050506103c3565b005b34801561010f57600080fd5b506101186104fc565b005b34801561012657600080fd5b5061012f610635565b604051808273ffffffffffffffffffffffffffffffffffffffff1673ffffffffffffffffffffffffffffffffffffffff16815260200191505060405180910390f35b34801561017d57600080fd5b5061018661065b565b604051808273ffffffffffffffffffffffffffffffffffffffff1673ffffffffffffffffffffffffffffffffffffffff16815260200191505060405180910390f35b3480156101d457600080fd5b506101dd610684565b604051808215151515815260200191505060405180910390f35b34801561020357600080fd5b5061020c6106db565b604051808273ffffffffffffffffffffffffffffffffffffffff1673ffffffffffffffffffffffffffffffffffffffff16815260200191505060405180910390f35b34801561025a57600080fd5b5061029d6004803603602081101561027157600080fd5b81019080803573ffffffffffffffffffffffffffffffffffffffff169060200190929190505050610701565b005b61036a600480360360a08110156102b557600080fd5b81019080803573ffffffffffffffffffffffffffffffffffffffff169060200190929190803573ffffffffffffffffffffffffffffffffffffffff16906020019092919080359060200190929190803590602001909291908035906020019064010000000081111561032657600080fd5b82018360208201111561033857600080fd5b8035906020019184600183028401116401000000008311171561035a57600080fd5b9091929391929390505050610787565b005b34801561037857600080fd5b5061038161159c565b604051808273ffffffffffffffffffffffffffffffffffffffff1673ffffffffffffffffffffffffffffffffffffffff16815260200191505060405180910390f35b6103cb610684565b61043d576040517f08c379a00000000000000000000000000000000000000000000000000000000081526004018080602001828103825260208152602001807f4f776e61626c653a2063616c6c6572206973206e6f7420746865206f776e657281525060200191505060405180910390fd5b600180600082825401925050819055506000600154905061047f83838673ffffffffffffffffffffffffffffffffffffffff166115c29092919063ffffffff16565b60015481146104f6576040517f08c379a000000000000000000000000000000000000000000000000000000000815260040180806020018281038252601f8152602001807f5265656e7472616e637947756172643a207265656e7472616e742063616c6c0081525060200191505060405180910390fd5b50505050565b610504610684565b610576576040517f08c379a00000000000000000000000000000000000000000000000000000000081526004018080602001828103825260208152602001807f4f776e61626c653a2063616c6c6572206973206e6f7420746865206f776e657281525060200191505060405180910390fd5b600073ffffffffffffffffffffffffffffffffffffffff166000809054906101000a900473ffffffffffffffffffffffffffffffffffffffff1673ffffffffffffffffffffffffffffffffffffffff167f8be0079c531659141344cd1fd0a4f28419497f9722a3daafe3b4186f6b6457e060405160405180910390a360008060006101000a81548173ffffffffffffffffffffffffffffffffffffffff021916908373ffffffffffffffffffffffffffffffffffffffff160217905550565b600460009054906101000a900473ffffffffffffffffffffffffffffffffffffffff1681565b60008060009054906101000a900473ffffffffffffffffffffffffffffffffffffffff16905090565b60008060009054906101000a900473ffffffffffffffffffffffffffffffffffffffff1673ffffffffffffffffffffffffffffffffffffffff163373ffffffffffffffffffffffffffffffffffffffff1614905090565b600260009054906101000a900473ffffffffffffffffffffffffffffffffffffffff1681565b610709610684565b61077b576040517f08c379a00000000000000000000000000000000000000000000000000000000081526004018080602001828103825260208152602001807f4f776e61626c653a2063616c6c6572206973206e6f7420746865206f776e657281525060200191505060405180910390fd5b610784816117bb565b50565b60018060008282540192505081905550600060015490506000806000858560608110156107b357600080fd5b81019080803573ffffffffffffffffffffffffffffffffffffffff169060200190929190803573ffffffffffffffffffffffffffffffffffffffff1690602001909291908035906020019092919050505092509250925060008073ffffffffffffffffffffffffffffffffffffffff168a73ffffffffffffffffffffffffffffffffffffffff161490508373ffffffffffffffffffffffffffffffffffffffff168a73ffffffffffffffffffffffffffffffffffffffff1614806108a257508273ffffffffffffffffffffffffffffffffffffffff168a73ffffffffffffffffffffffffffffffffffffffff16145b806108aa5750805b6108ff576040517f08c379a00000000000000000000000000000000000000000000000000000000081526004018080602001828103825260218152602001806122a96021913960400191505060405180910390fd5b6000809050600073ffffffffffffffffffffffffffffffffffffffff168573ffffffffffffffffffffffffffffffffffffffff16141561096257600460009054906101000a900473ffffffffffffffffffffffffffffffffffffffff1694508390505b600073ffffffffffffffffffffffffffffffffffffffff168473ffffffffffffffffffffffffffffffffffffffff1614156109c057600460009054906101000a900473ffffffffffffffffffffffffffffffffffffffff1693508490505b60008084146109cf57846109d1565b855b90506000600260009054906101000a900473ffffffffffffffffffffffffffffffffffffffff1673ffffffffffffffffffffffffffffffffffffffff1663e6a4390588886040518363ffffffff1660e01b8152600401808373ffffffffffffffffffffffffffffffffffffffff1673ffffffffffffffffffffffffffffffffffffffff1681526020018273ffffffffffffffffffffffffffffffffffffffff1673ffffffffffffffffffffffffffffffffffffffff1681526020019250505060206040518083038186803b158015610aa857600080fd5b505afa158015610abc573d6000803e3d6000fd5b505050506040513d6020811015610ad257600080fd5b810190808051906020019092919050505090508073ffffffffffffffffffffffffffffffffffffffff16630dfe16816040518163ffffffff1660e01b815260040160206040518083038186803b158015610b2b57600080fd5b505afa158015610b3f573d6000803e3d6000fd5b505050506040513d6020811015610b5557600080fd5b810190808051906020019092919050505096508073ffffffffffffffffffffffffffffffffffffffff1663d21220a76040518163ffffffff1660e01b815260040160206040518083038186803b158015610bae57600080fd5b505afa158015610bc2573d6000803e3d6000fd5b505050506040513d6020811015610bd857600080fd5b810190808051906020019092919050505095508073ffffffffffffffffffffffffffffffffffffffff1663095ea7b3600360009054906101000a900473ffffffffffffffffffffffffffffffffffffffff167fffffffffffffffffffffffffffffffffffffffffffffffffffffffffffffffff6040518363ffffffff1660e01b8152600401808373ffffffffffffffffffffffffffffffffffffffff1673ffffffffffffffffffffffffffffffffffffffff16815260200182815260200192505050602060405180830381600087803b158015610cb457600080fd5b505af1158015610cc8573d6000803e3d6000fd5b505050506040513d6020811015610cde57600080fd5b810190808051906020019092919050505050600360009054906101000a900473ffffffffffffffffffffffffffffffffffffffff1673ffffffffffffffffffffffffffffffffffffffff1663baa2abde88888473ffffffffffffffffffffffffffffffffffffffff166370a08231306040518263ffffffff1660e01b8152600401808273ffffffffffffffffffffffffffffffffffffffff1673ffffffffffffffffffffffffffffffffffffffff16815260200191505060206040518083038186803b158015610dad57600080fd5b505afa158015610dc1573d6000803e3d6000fd5b505050506040513d6020811015610dd757600080fd5b810190808051906020019092919050505060008030426040518863ffffffff1660e01b8152600401808873ffffffffffffffffffffffffffffffffffffffff1673ffffffffffffffffffffffffffffffffffffffff1681526020018773ffffffffffffffffffffffffffffffffffffffff1673ffffffffffffffffffffffffffffffffffffffff1681526020018681526020018581526020018481526020018373ffffffffffffffffffffffffffffffffffffffff1673ffffffffffffffffffffffffffffffffffffffff1681526020018281526020019750505050505050506040805180830381600087803b158015610ed057600080fd5b505af1158015610ee4573d6000803e3d6000fd5b505050506040513d6040811015610efa57600080fd5b810190808051906020019092919080519060200190929190505050505083610f22578c610f46565b600460009054906101000a900473ffffffffffffffffffffffffffffffffffffffff165b9c5060008773ffffffffffffffffffffffffffffffffffffffff168e73ffffffffffffffffffffffffffffffffffffffff1614610f835787610f85565b865b9050610f928e828e6118ff565b841561103457600460009054906101000a900473ffffffffffffffffffffffffffffffffffffffff1673ffffffffffffffffffffffffffffffffffffffff16632e1a7d4d8d6040518263ffffffff1660e01b815260040180828152602001915050600060405180830381600087803b15801561100d57600080fd5b505af1158015611021573d6000803e3d6000fd5b5050505061102f338d611cc0565b611040565b61103f8e338e6115c2565b5b50600285146114125760008773ffffffffffffffffffffffffffffffffffffffff168373ffffffffffffffffffffffffffffffffffffffff16146110845787611086565b865b905060006110a98273ffffffffffffffffffffffffffffffffffffffff16611e25565b9050600081111561140f57611102600360009054906101000a900473ffffffffffffffffffffffffffffffffffffffff1660008473ffffffffffffffffffffffffffffffffffffffff16611ee69092919063ffffffff16565b61116f600360009054906101000a900473ffffffffffffffffffffffffffffffffffffffff167fffffffffffffffffffffffffffffffffffffffffffffffffffffffffffffffff8473ffffffffffffffffffffffffffffffffffffffff16611ee69092919063ffffffff16565b606060026040519080825280602002602001820160405280156111a15781602001602082028038833980820191505090505b50905082816000815181106111b257fe5b602002602001019073ffffffffffffffffffffffffffffffffffffffff16908173ffffffffffffffffffffffffffffffffffffffff168152505084816001815181106111fa57fe5b602002602001019073ffffffffffffffffffffffffffffffffffffffff16908173ffffffffffffffffffffffffffffffffffffffff1681525050600360009054906101000a900473ffffffffffffffffffffffffffffffffffffffff1673ffffffffffffffffffffffffffffffffffffffff166338ed17398360008430426040518663ffffffff1660e01b815260040180868152602001858152602001806020018473ffffffffffffffffffffffffffffffffffffffff1673ffffffffffffffffffffffffffffffffffffffff168152602001838152602001828103825285818151815260200191508051906020019060200280838360005b8381101561130e5780820151818401526020810190506112f3565b505050509050019650505050505050600060405180830381600087803b15801561133757600080fd5b505af115801561134b573d6000803e3d6000fd5b505050506040513d6000823e3d601f19601f82011682018060405250602081101561137557600080fd5b810190808051604051939291908464010000000082111561139557600080fd5b838201915060208201858111156113ab57600080fd5b82518660208202830111640100000000821117156113c857600080fd5b8083526020830192505050908051906020019060200280838360005b838110156113ff5780820151818401526020810190506113e4565b5050505090500160405250505050505b50505b600073ffffffffffffffffffffffffffffffffffffffff168373ffffffffffffffffffffffffffffffffffffffff1614156114de576114908e61146a8973ffffffffffffffffffffffffffffffffffffffff16611e25565b8973ffffffffffffffffffffffffffffffffffffffff166115c29092919063ffffffff16565b6114d98e6114b38873ffffffffffffffffffffffffffffffffffffffff16611e25565b8873ffffffffffffffffffffffffffffffffffffffff166115c29092919063ffffffff16565b611515565b61150a600460009054906101000a900473ffffffffffffffffffffffffffffffffffffffff168f6120df565b611514838f6120df565b5b505050505050506001548114611593576040517f08c379a000000000000000000000000000000000000000000000000000000000815260040180806020018281038252601f8152602001807f5265656e7472616e637947756172643a207265656e7472616e742063616c6c0081525060200191505060405180910390fd5b50505050505050565b600360009054906101000a900473ffffffffffffffffffffffffffffffffffffffff1681565b600060608473ffffffffffffffffffffffffffffffffffffffff1663a9059cbb8585604051602401808373ffffffffffffffffffffffffffffffffffffffff1673ffffffffffffffffffffffffffffffffffffffff168152602001828152602001925050506040516020818303038152906040529060e01b6020820180517bffffffffffffffffffffffffffffffffffffffffffffffffffffffff83818316178352505050506040518082805190602001908083835b6020831061169b5780518252602082019150602081019050602083039250611678565b6001836020036101000a0380198251168184511680821785525050505050509050019150506000604051808303816000865af19150503d80600081146116fd576040519150601f19603f3d011682016040523d82523d6000602084013e611702565b606091505b50915091508180156117425750600081511480611741575080806020019051602081101561172f57600080fd5b81019080805190602001909291905050505b5b6117b4576040517f08c379a000000000000000000000000000000000000000000000000000000000815260040180806020018281038252600d8152602001807f21736166655472616e736665720000000000000000000000000000000000000081525060200191505060405180910390fd5b5050505050565b600073ffffffffffffffffffffffffffffffffffffffff168173ffffffffffffffffffffffffffffffffffffffff161415611841576040517f08c379a00000000000000000000000000000000000000000000000000000000081526004018080602001828103825260268152602001806122836026913960400191505060405180910390fd5b8073ffffffffffffffffffffffffffffffffffffffff166000809054906101000a900473ffffffffffffffffffffffffffffffffffffffff1673ffffffffffffffffffffffffffffffffffffffff167f8be0079c531659141344cd1fd0a4f28419497f9722a3daafe3b4186f6b6457e060405160405180910390a3806000806101000a81548173ffffffffffffffffffffffffffffffffffffffff021916908373ffffffffffffffffffffffffffffffffffffffff16021790555050565b60006119208473ffffffffffffffffffffffffffffffffffffffff16611e25565b905080821115611cba57611978600360009054906101000a900473ffffffffffffffffffffffffffffffffffffffff1660008573ffffffffffffffffffffffffffffffffffffffff16611ee69092919063ffffffff16565b6119e5600360009054906101000a900473ffffffffffffffffffffffffffffffffffffffff167fffffffffffffffffffffffffffffffffffffffffffffffffffffffffffffffff8573ffffffffffffffffffffffffffffffffffffffff16611ee69092919063ffffffff16565b60006119fa82846121f990919063ffffffff16565b905060606002604051908082528060200260200182016040528015611a2e5781602001602082028038833980820191505090505b5090508481600081518110611a3f57fe5b602002602001019073ffffffffffffffffffffffffffffffffffffffff16908173ffffffffffffffffffffffffffffffffffffffff16815250508581600181518110611a8757fe5b602002602001019073ffffffffffffffffffffffffffffffffffffffff16908173ffffffffffffffffffffffffffffffffffffffff1681525050600360009054906101000a900473ffffffffffffffffffffffffffffffffffffffff1673ffffffffffffffffffffffffffffffffffffffff16638803dbee83611b1f8873ffffffffffffffffffffffffffffffffffffffff16611e25565b8430426040518663ffffffff1660e01b815260040180868152602001858152602001806020018473ffffffffffffffffffffffffffffffffffffffff1673ffffffffffffffffffffffffffffffffffffffff168152602001838152602001828103825285818151815260200191508051906020019060200280838360005b83811015611bb8578082015181840152602081019050611b9d565b505050509050019650505050505050600060405180830381600087803b158015611be157600080fd5b505af1158015611bf5573d6000803e3d6000fd5b505050506040513d6000823e3d601f19601f820116820180604052506020811015611c1f57600080fd5b8101908080516040519392919084640100000000821115611c3f57600080fd5b83820191506020820185811115611c5557600080fd5b8251866020820283011164010000000082111715611c7257600080fd5b8083526020830192505050908051906020019060200280838360005b83811015611ca9578082015181840152602081019050611c8e565b505050509050016040525050505050505b50505050565b60008273ffffffffffffffffffffffffffffffffffffffff168260006040519080825280601f01601f191660200182016040528015611d0e5781602001600182028038833980820191505090505b506040518082805190602001908083835b60208310611d425780518252602082019150602081019050602083039250611d1f565b6001836020036101000a03801982511681845116808217855250505050505090500191505060006040518083038185875af1925050503d8060008114611da4576040519150601f19603f3d011682016040523d82523d6000602084013e611da9565b606091505b5050905080611e20576040517f08c379a00000000000000000000000000000000000000000000000000000000081526004018080602001828103825260108152602001807f21736166655472616e736665724554480000000000000000000000000000000081525060200191505060405180910390fd5b505050565b60008173ffffffffffffffffffffffffffffffffffffffff166370a08231306040518263ffffffff1660e01b8152600401808273ffffffffffffffffffffffffffffffffffffffff1673ffffffffffffffffffffffffffffffffffffffff16815260200191505060206040518083038186803b158015611ea457600080fd5b505afa158015611eb8573d6000803e3d6000fd5b505050506040513d6020811015611ece57600080fd5b81019080805190602001909291905050509050919050565b600060608473ffffffffffffffffffffffffffffffffffffffff1663095ea7b38585604051602401808373ffffffffffffffffffffffffffffffffffffffff1673ffffffffffffffffffffffffffffffffffffffff168152602001828152602001925050506040516020818303038152906040529060e01b6020820180517bffffffffffffffffffffffffffffffffffffffffffffffffffffffff83818316178352505050506040518082805190602001908083835b60208310611fbf5780518252602082019150602081019050602083039250611f9c565b6001836020036101000a0380198251168184511680821785525050505050509050019150506000604051808303816000865af19150503d8060008114612021576040519150601f19603f3d011682016040523d82523d6000602084013e612026565b606091505b50915091508180156120665750600081511480612065575080806020019051602081101561205357600080fd5b81019080805190602001909291905050505b5b6120d8576040517f08c379a000000000000000000000000000000000000000000000000000000000815260040180806020018281038252600c8152602001807f2173616665417070726f7665000000000000000000000000000000000000000081525060200191505060405180910390fd5b5050505050565b60006120ea83611e25565b905060008111156121f457600460009054906101000a900473ffffffffffffffffffffffffffffffffffffffff1673ffffffffffffffffffffffffffffffffffffffff168373ffffffffffffffffffffffffffffffffffffffff1614156121e757600460009054906101000a900473ffffffffffffffffffffffffffffffffffffffff1673ffffffffffffffffffffffffffffffffffffffff16632e1a7d4d826040518263ffffffff1660e01b815260040180828152602001915050600060405180830381600087803b1580156121c057600080fd5b505af11580156121d4573d6000803e3d6000fd5b505050506121e28282611cc0565b6121f3565b6121f28383836115c2565b5b5b505050565b600082821115612271576040517f08c379a000000000000000000000000000000000000000000000000000000000815260040180806020018281038252601e8152602001807f536166654d6174683a207375627472616374696f6e206f766572666c6f77000081525060200191505060405180910390fd5b60008284039050809150509291505056fe4f776e61626c653a206e6577206f776e657220697320746865207a65726f2061646472657373626f72726f77546f6b656e206e6f7420746f6b656e3020616e6420746f6b656e31a265627a7a72315820e50ede80a410e9629d0563c7afed5fa296cc3fcf4b48e2497b13679d2be6ab6464736f6c63430005100032",
  "source": "\npragma solidity ^0.5.16;\n\nimport \"@openzeppelin/contracts/ownership/Ownable.sol\";\nimport \"@openzeppelin/contracts/utils/ReentrancyGuard.sol\";\nimport \"@openzeppelin/contracts/math/SafeMath.sol\";\nimport \"./SafeToken.sol\";\nimport \"./interfaces/Strategy.sol\";\nimport \"./interfaces/IWHT.sol\";\nimport \"./interfaces/IMdexPair.sol\";\nimport \"./interfaces/IMdexRouter.sol\";\nimport \"./interfaces/IMdexFactory.sol\";\n\n\ncontract MdxStrategyWithdrawMinimizeTrading is Ownable, ReentrancyGuard, Strategy {\n    using SafeToken for address;\n    using SafeMath for uint256;\n\n    IMdexFactory public factory;\n    IMdexRouter public router;\n    address public wht;\n\n    /// @dev Create a new withdraw minimize trading strategy instance for mdx.\n    /// @param _router The mdx router smart contract.\n    constructor(IMdexRouter _router) public {\n        factory = IMdexFactory(_router.factory());\n        router = _router;\n        wht = _router.WHT();\n    }\n\n    /// @dev Execute worker strategy. Take LP tokens. Return debt token + token want back.\n    /// @param user User address to withdraw liquidity.\n    /// @param borrowToken The token user borrow from bank.\n    /// @param debt User's debt amount.\n    /// @param data Extra calldata information passed along to this strategy.\n    function execute(address user, address borrowToken, uint256 /* borrow */, uint256 debt, bytes calldata data)\n        external\n        payable\n        nonReentrant\n    {\n        // 1. Find out lpToken and liquidity.\n        // whichWantBack: 0:token0;1:token1;2:token what surplus.\n        (address token0, address token1, uint whichWantBack) = abi.decode(data, (address, address, uint));\n\n        // is borrowToken is ht.\n        bool isBorrowHt = borrowToken == address(0);\n        require(borrowToken == token0 || borrowToken == token1 || isBorrowHt, \"borrowToken not token0 and token1\");\n        // the relative token when token0 or token1 is ht.\n        address htRelative = address(0);\n        {\n            if (token0 == address(0)){\n                token0 = wht;\n                htRelative = token1;\n            }\n            if (token1 == address(0)){\n                token1 = wht;\n                htRelative = token0;\n            }\n        }\n        address tokenUserWant = whichWantBack == uint(0) ? token0 : token1;\n\n        IMdexPair lpToken = IMdexPair(factory.getPair(token0, token1));\n        token0 = lpToken.token0();\n        token1 = lpToken.token1();\n\n        {\n            lpToken.approve(address(router), uint256(-1));\n            router.removeLiquidity(token0, token1, lpToken.balanceOf(address(this)), 0, 0, address(this), now);\n        }\n        {\n            borrowToken = isBorrowHt ? wht : borrowToken;\n            address tokenRelative = borrowToken == token0 ? token1 : token0;\n\n            swapIfNeed(borrowToken, tokenRelative, debt);\n\n            if (isBorrowHt) {\n                IWHT(wht).withdraw(debt);\n                SafeToken.safeTransferETH(msg.sender, debt);\n            } else {\n                SafeToken.safeTransfer(borrowToken, msg.sender, debt);\n            }\n        }\n\n        // 2. swap remaining token to what user want.\n        if (whichWantBack != uint(2)) {\n            address tokenAnother = tokenUserWant == token0 ? token1 : token0;\n            uint256 anotherAmount = tokenAnother.myBalance();\n            if(anotherAmount > 0){\n                tokenAnother.safeApprove(address(router), 0);\n                tokenAnother.safeApprove(address(router), uint256(-1));\n\n                address[] memory path = new address[](2);\n                path[0] = tokenAnother;\n                path[1] = tokenUserWant;\n                router.swapExactTokensForTokens(anotherAmount, 0, path, address(this), now);\n            }\n        }\n\n        // 3. send all tokens back.\n        if (htRelative == address(0)) {\n            token0.safeTransfer(user, token0.myBalance());\n            token1.safeTransfer(user, token1.myBalance());\n        } else {\n            safeUnWrapperAndAllSend(wht, user);\n            safeUnWrapperAndAllSend(htRelative, user);\n        }\n    }\n\n    /// swap if need.\n    function swapIfNeed(address borrowToken, address tokenRelative, uint256 debt) internal {\n        uint256 borrowTokenAmount = borrowToken.myBalance();\n        if (debt > borrowTokenAmount) {\n            tokenRelative.safeApprove(address(router), 0);\n            tokenRelative.safeApprove(address(router), uint256(-1));\n\n            uint256 remainingDebt = debt.sub(borrowTokenAmount);\n            address[] memory path = new address[](2);\n            path[0] = tokenRelative;\n            path[1] = borrowToken;\n            router.swapTokensForExactTokens(remainingDebt, tokenRelative.myBalance(), path, address(this), now);\n        }\n    }\n\n    /// get token balance, if is WHT un wrapper to HT and send to 'to'\n    function safeUnWrapperAndAllSend(address token, address to) internal {\n        uint256 total = SafeToken.myBalance(token);\n        if (total > 0) {\n            if (token == wht) {\n                IWHT(wht).withdraw(total);\n                SafeToken.safeTransferETH(to, total);\n            } else {\n                SafeToken.safeTransfer(token, to, total);\n            }\n        }\n    }\n\n    /// @dev Recover ERC20 tokens that were accidentally sent to this smart contract.\n    /// @param token The token contract. Can be anything. This contract should not hold ERC20 tokens.\n    /// @param to The address to send the tokens to.\n    /// @param value The number of tokens to transfer to `to`.\n    function recover(address token, address to, uint256 value) external onlyOwner nonReentrant {\n        token.safeTransfer(to, value);\n    }\n\n    function() external payable {}\n}\n",
  "sourcePath": "/Users/yin/projects/homora/pilot/pilot-test/contracts/MdxStrategyWithdrawMinimizeTrading.sol",
  "compiler": {
    "name": "solc",
    "version": "0.5.16+commit.9c3226ce.Emscripten.clang"
  },
  "schemaVersion": "3.3.4",
  "updatedAt": "2021-03-31T08:41:26.006Z",
  "devdoc": {
    "methods": {
      "constructor": {
        "details": "Create a new withdraw minimize trading strategy instance for mdx.",
        "params": {
          "_router": "The mdx router smart contract."
        }
      },
      "execute(address,address,uint256,uint256,bytes)": {
        "details": "Execute worker strategy. Take LP tokens. Return debt token + token want back.",
        "params": {
          "borrowToken": "The token user borrow from bank.",
          "data": "Extra calldata information passed along to this strategy.",
          "debt": "User's debt amount.",
          "user": "User address to withdraw liquidity."
        }
      },
      "isOwner()": {
        "details": "Returns true if the caller is the current owner."
      },
      "owner()": {
        "details": "Returns the address of the current owner."
      },
      "recover(address,address,uint256)": {
        "details": "Recover ERC20 tokens that were accidentally sent to this smart contract.",
        "params": {
          "to": "The address to send the tokens to.",
          "token": "The token contract. Can be anything. This contract should not hold ERC20 tokens.",
          "value": "The number of tokens to transfer to `to`."
        }
      },
      "renounceOwnership()": {
        "details": "Leaves the contract without owner. It will not be possible to call `onlyOwner` functions anymore. Can only be called by the current owner.     * > Note: Renouncing ownership will leave the contract without an owner, thereby removing any functionality that is only available to the owner."
      },
      "transferOwnership(address)": {
        "details": "Transfers ownership of the contract to a new account (`newOwner`). Can only be called by the current owner."
      }
    }
  },
  "userdoc": {
    "methods": {}
  }
}