{
  "contractName": "MdxStrategyAddTwoSidesOptimal",
  "abi": [
    {
      "inputs": [
        {
          "internalType": "contract IMdexRouter",
          "name": "_router",
          "type": "address"
        },
        {
          "internalType": "address",
          "name": "_goblin",
          "type": "address"
        }
      ],
      "payable": false,
      "stateMutability": "nonpayable",
      "type": "constructor"
    },
    {
      "anonymous": false,
      "inputs": [
        {
          "indexed": true,
          "internalType": "address",
          "name": "previousOwner",
          "type": "address"
        },
        {
          "indexed": true,
          "internalType": "address",
          "name": "newOwner",
          "type": "address"
        }
      ],
      "name": "OwnershipTransferred",
      "type": "event"
    },
    {
      "payable": true,
      "stateMutability": "payable",
      "type": "fallback"
    },
    {
      "constant": true,
      "inputs": [],
      "name": "factory",
      "outputs": [
        {
          "internalType": "contract IMdexFactory",
          "name": "",
          "type": "address"
        }
      ],
      "payable": false,
      "stateMutability": "view",
      "type": "function"
    },
    {
      "constant": true,
      "inputs": [],
      "name": "goblin",
      "outputs": [
        {
          "internalType": "address",
          "name": "",
          "type": "address"
        }
      ],
      "payable": false,
      "stateMutability": "view",
      "type": "function"
    },
    {
      "constant": true,
      "inputs": [],
      "name": "isOwner",
      "outputs": [
        {
          "internalType": "bool",
          "name": "",
          "type": "bool"
        }
      ],
      "payable": false,
      "stateMutability": "view",
      "type": "function"
    },
    {
      "constant": true,
      "inputs": [],
      "name": "owner",
      "outputs": [
        {
          "internalType": "address",
          "name": "",
          "type": "address"
        }
      ],
      "payable": false,
      "stateMutability": "view",
      "type": "function"
    },
    {
      "constant": false,
      "inputs": [],
      "name": "renounceOwnership",
      "outputs": [],
      "payable": false,
      "stateMutability": "nonpayable",
      "type": "function"
    },
    {
      "constant": true,
      "inputs": [],
      "name": "router",
      "outputs": [
        {
          "internalType": "contract IMdexRouter",
          "name": "",
          "type": "address"
        }
      ],
      "payable": false,
      "stateMutability": "view",
      "type": "function"
    },
    {
      "constant": false,
      "inputs": [
        {
          "internalType": "address",
          "name": "newOwner",
          "type": "address"
        }
      ],
      "name": "transferOwnership",
      "outputs": [],
      "payable": false,
      "stateMutability": "nonpayable",
      "type": "function"
    },
    {
      "constant": true,
      "inputs": [],
      "name": "wht",
      "outputs": [
        {
          "internalType": "address",
          "name": "",
          "type": "address"
        }
      ],
      "payable": false,
      "stateMutability": "view",
      "type": "function"
    },
    {
      "constant": true,
      "inputs": [],
      "name": "isGoblin",
      "outputs": [
        {
          "internalType": "bool",
          "name": "",
          "type": "bool"
        }
      ],
      "payable": false,
      "stateMutability": "view",
      "type": "function"
    },
    {
      "constant": false,
      "inputs": [
        {
          "internalType": "address",
          "name": "user",
          "type": "address"
        },
        {
          "internalType": "address",
          "name": "borrowToken",
          "type": "address"
        },
        {
          "internalType": "uint256",
          "name": "borrow",
          "type": "uint256"
        },
        {
          "internalType": "uint256",
          "name": "",
          "type": "uint256"
        },
        {
          "internalType": "bytes",
          "name": "data",
          "type": "bytes"
        }
      ],
      "name": "execute",
      "outputs": [],
      "payable": true,
      "stateMutability": "payable",
      "type": "function"
    },
    {
      "constant": true,
      "inputs": [
        {
          "internalType": "address",
          "name": "minter",
          "type": "address"
        },
        {
          "internalType": "uint256",
          "name": "pid",
          "type": "uint256"
        }
      ],
      "name": "getSwapReward",
      "outputs": [
        {
          "internalType": "uint256",
          "name": "",
          "type": "uint256"
        },
        {
          "internalType": "uint256",
          "name": "",
          "type": "uint256"
        }
      ],
      "payable": false,
      "stateMutability": "view",
      "type": "function"
    },
    {
      "constant": false,
      "inputs": [
        {
          "internalType": "address",
          "name": "minter",
          "type": "address"
        },
        {
          "internalType": "address",
          "name": "token",
          "type": "address"
        }
      ],
      "name": "swapMiningReward",
      "outputs": [],
      "payable": false,
      "stateMutability": "nonpayable",
      "type": "function"
    },
    {
      "constant": false,
      "inputs": [
        {
          "internalType": "address",
          "name": "token",
          "type": "address"
        },
        {
          "internalType": "address",
          "name": "to",
          "type": "address"
        },
        {
          "internalType": "uint256",
          "name": "value",
          "type": "uint256"
        }
      ],
      "name": "recover",
      "outputs": [],
      "payable": false,
      "stateMutability": "nonpayable",
      "type": "function"
    }
  ],
  "bytecode": "0x60806040523480156200001157600080fd5b506040516200316138038062003161833981810160405260408110156200003757600080fd5b810190808051906020019092919080519060200190929190505050336000806101000a81548173ffffffffffffffffffffffffffffffffffffffff021916908373ffffffffffffffffffffffffffffffffffffffff1602179055506000809054906101000a900473ffffffffffffffffffffffffffffffffffffffff1673ffffffffffffffffffffffffffffffffffffffff16600073ffffffffffffffffffffffffffffffffffffffff167f8be0079c531659141344cd1fd0a4f28419497f9722a3daafe3b4186f6b6457e060405160405180910390a3600180819055508173ffffffffffffffffffffffffffffffffffffffff1663c45a01556040518163ffffffff1660e01b815260040160206040518083038186803b1580156200015c57600080fd5b505afa15801562000171573d6000803e3d6000fd5b505050506040513d60208110156200018857600080fd5b8101908080519060200190929190505050600260006101000a81548173ffffffffffffffffffffffffffffffffffffffff021916908373ffffffffffffffffffffffffffffffffffffffff16021790555081600360006101000a81548173ffffffffffffffffffffffffffffffffffffffff021916908373ffffffffffffffffffffffffffffffffffffffff1602179055508173ffffffffffffffffffffffffffffffffffffffff16635cb485926040518163ffffffff1660e01b815260040160206040518083038186803b1580156200026157600080fd5b505afa15801562000276573d6000803e3d6000fd5b505050506040513d60208110156200028d57600080fd5b8101908080519060200190929190505050600460006101000a81548173ffffffffffffffffffffffffffffffffffffffff021916908373ffffffffffffffffffffffffffffffffffffffff16021790555080600560006101000a81548173ffffffffffffffffffffffffffffffffffffffff021916908373ffffffffffffffffffffffffffffffffffffffff1602179055505050612e3080620003316000396000f3fe6080604052600436106100c25760003560e01c80638da5cb5b1161007f578063c45a015511610059578063c45a0155146103a0578063f2fde38b146103f7578063f48221a314610448578063f887ea4014610515576100c2565b80638da5cb5b146102c35780638f32d59b1461031a578063b7156cf914610349576100c2565b80631ec82cb8146100c457806351a618701461013f57806367d935e81461016e578063715018a6146101df5780637822cfc8146101f6578063785f34991461026c575b005b3480156100d057600080fd5b5061013d600480360360608110156100e757600080fd5b81019080803573ffffffffffffffffffffffffffffffffffffffff169060200190929190803573ffffffffffffffffffffffffffffffffffffffff1690602001909291908035906020019092919050505061056c565b005b34801561014b57600080fd5b506101546106a5565b604051808215151515815260200191505060405180910390f35b34801561017a57600080fd5b506101dd6004803603604081101561019157600080fd5b81019080803573ffffffffffffffffffffffffffffffffffffffff169060200190929190803573ffffffffffffffffffffffffffffffffffffffff1690602001909291905050506106fd565b005b3480156101eb57600080fd5b506101f461082a565b005b34801561020257600080fd5b5061024f6004803603604081101561021957600080fd5b81019080803573ffffffffffffffffffffffffffffffffffffffff16906020019092919080359060200190929190505050610963565b604051808381526020018281526020019250505060405180910390f35b34801561027857600080fd5b50610281610a0c565b604051808273ffffffffffffffffffffffffffffffffffffffff1673ffffffffffffffffffffffffffffffffffffffff16815260200191505060405180910390f35b3480156102cf57600080fd5b506102d8610a32565b604051808273ffffffffffffffffffffffffffffffffffffffff1673ffffffffffffffffffffffffffffffffffffffff16815260200191505060405180910390f35b34801561032657600080fd5b5061032f610a5b565b604051808215151515815260200191505060405180910390f35b34801561035557600080fd5b5061035e610ab2565b604051808273ffffffffffffffffffffffffffffffffffffffff1673ffffffffffffffffffffffffffffffffffffffff16815260200191505060405180910390f35b3480156103ac57600080fd5b506103b5610ad8565b604051808273ffffffffffffffffffffffffffffffffffffffff1673ffffffffffffffffffffffffffffffffffffffff16815260200191505060405180910390f35b34801561040357600080fd5b506104466004803603602081101561041a57600080fd5b81019080803573ffffffffffffffffffffffffffffffffffffffff169060200190929190505050610afe565b005b610513600480360360a081101561045e57600080fd5b81019080803573ffffffffffffffffffffffffffffffffffffffff169060200190929190803573ffffffffffffffffffffffffffffffffffffffff1690602001909291908035906020019092919080359060200190929190803590602001906401000000008111156104cf57600080fd5b8201836020820111156104e157600080fd5b8035906020019184600183028401116401000000008311171561050357600080fd5b9091929391929390505050610b84565b005b34801561052157600080fd5b5061052a61195e565b604051808273ffffffffffffffffffffffffffffffffffffffff1673ffffffffffffffffffffffffffffffffffffffff16815260200191505060405180910390f35b610574610a5b565b6105e6576040517f08c379a00000000000000000000000000000000000000000000000000000000081526004018080602001828103825260208152602001807f4f776e61626c653a2063616c6c6572206973206e6f7420746865206f776e657281525060200191505060405180910390fd5b600180600082825401925050819055506000600154905061062883838673ffffffffffffffffffffffffffffffffffffffff166119849092919063ffffffff16565b600154811461069f576040517f08c379a000000000000000000000000000000000000000000000000000000000815260040180806020018281038252601f8152602001807f5265656e7472616e637947756172643a207265656e7472616e742063616c6c0081525060200191505060405180910390fd5b50505050565b6000600560009054906101000a900473ffffffffffffffffffffffffffffffffffffffff1673ffffffffffffffffffffffffffffffffffffffff163373ffffffffffffffffffffffffffffffffffffffff1614905090565b610705610a5b565b610777576040517f08c379a00000000000000000000000000000000000000000000000000000000081526004018080602001828103825260208152602001807f4f776e61626c653a2063616c6c6572206973206e6f7420746865206f776e657281525060200191505060405180910390fd5b60008290508073ffffffffffffffffffffffffffffffffffffffff1663b872dd0e6040518163ffffffff1660e01b8152600401600060405180830381600087803b1580156107c457600080fd5b505af11580156107d8573d6000803e3d6000fd5b50505050610825336107ff8473ffffffffffffffffffffffffffffffffffffffff16611b7d565b8473ffffffffffffffffffffffffffffffffffffffff166119849092919063ffffffff16565b505050565b610832610a5b565b6108a4576040517f08c379a00000000000000000000000000000000000000000000000000000000081526004018080602001828103825260208152602001807f4f776e61626c653a2063616c6c6572206973206e6f7420746865206f776e657281525060200191505060405180910390fd5b600073ffffffffffffffffffffffffffffffffffffffff166000809054906101000a900473ffffffffffffffffffffffffffffffffffffffff1673ffffffffffffffffffffffffffffffffffffffff167f8be0079c531659141344cd1fd0a4f28419497f9722a3daafe3b4186f6b6457e060405160405180910390a360008060006101000a81548173ffffffffffffffffffffffffffffffffffffffff021916908373ffffffffffffffffffffffffffffffffffffffff160217905550565b60008060008490508073ffffffffffffffffffffffffffffffffffffffff16639fb08cb7856040518263ffffffff1660e01b815260040180828152602001915050604080518083038186803b1580156109bb57600080fd5b505afa1580156109cf573d6000803e3d6000fd5b505050506040513d60408110156109e557600080fd5b81019080805190602001909291908051906020019092919050505092509250509250929050565b600460009054906101000a900473ffffffffffffffffffffffffffffffffffffffff1681565b60008060009054906101000a900473ffffffffffffffffffffffffffffffffffffffff16905090565b60008060009054906101000a900473ffffffffffffffffffffffffffffffffffffffff1673ffffffffffffffffffffffffffffffffffffffff163373ffffffffffffffffffffffffffffffffffffffff1614905090565b600560009054906101000a900473ffffffffffffffffffffffffffffffffffffffff1681565b600260009054906101000a900473ffffffffffffffffffffffffffffffffffffffff1681565b610b06610a5b565b610b78576040517f08c379a00000000000000000000000000000000000000000000000000000000081526004018080602001828103825260208152602001807f4f776e61626c653a2063616c6c6572206973206e6f7420746865206f776e657281525060200191505060405180910390fd5b610b8181611c3e565b50565b610b8c6106a5565b610bfe576040517f08c379a00000000000000000000000000000000000000000000000000000000081526004018080602001828103825260188152602001807f63616c6c6572206973206e6f742074686520676f626c696e000000000000000081525060200191505060405180910390fd5b60018060008282540192505081905550600060015490506000806000806000806000808a8a60a0811015610c3157600080fd5b81019080803573ffffffffffffffffffffffffffffffffffffffff169060200190929190803573ffffffffffffffffffffffffffffffffffffffff169060200190929190803590602001909291908035906020019092919080359060200190929190505050945094509450945094508497508396508095508773ffffffffffffffffffffffffffffffffffffffff168e73ffffffffffffffffffffffffffffffffffffffff161480610d0e57508673ffffffffffffffffffffffffffffffffffffffff168e73ffffffffffffffffffffffffffffffffffffffff16145b610d63576040517f08c379a0000000000000000000000000000000000000000000000000000000008152600401808060200182810382526021815260200180612dba6021913960400191505060405180910390fd5b600083118015610da05750600073ffffffffffffffffffffffffffffffffffffffff168573ffffffffffffffffffffffffffffffffffffffff1614155b15610dd357610dd28f30858b73ffffffffffffffffffffffffffffffffffffffff16611d82909392919063ffffffff16565b5b600082118015610e105750600073ffffffffffffffffffffffffffffffffffffffff168773ffffffffffffffffffffffffffffffffffffffff1614155b15610e4357610e428f30848a73ffffffffffffffffffffffffffffffffffffffff16611d82909392919063ffffffff16565b5b50505050506000809050600089118015610e8a5750600073ffffffffffffffffffffffffffffffffffffffff168a73ffffffffffffffffffffffffffffffffffffffff1614155b15610ebd57610ebc33308b8d73ffffffffffffffffffffffffffffffffffffffff16611d82909392919063ffffffff16565b5b600073ffffffffffffffffffffffffffffffffffffffff168473ffffffffffffffffffffffffffffffffffffffff161415610f1b57600460009054906101000a900473ffffffffffffffffffffffffffffffffffffffff1693508290505b600073ffffffffffffffffffffffffffffffffffffffff168373ffffffffffffffffffffffffffffffffffffffff161415610f7957600460009054906101000a900473ffffffffffffffffffffffffffffffffffffffff1692508390505b6000479050600081111561100b57600460009054906101000a900473ffffffffffffffffffffffffffffffffffffffff1673ffffffffffffffffffffffffffffffffffffffff1663d0e30db0826040518263ffffffff1660e01b81526004016000604051808303818588803b158015610ff157600080fd5b505af1158015611005573d6000803e3d6000fd5b50505050505b506000600260009054906101000a900473ffffffffffffffffffffffffffffffffffffffff1673ffffffffffffffffffffffffffffffffffffffff1663e6a4390586866040518363ffffffff1660e01b8152600401808373ffffffffffffffffffffffffffffffffffffffff1673ffffffffffffffffffffffffffffffffffffffff1681526020018273ffffffffffffffffffffffffffffffffffffffff1673ffffffffffffffffffffffffffffffffffffffff1681526020019250505060206040518083038186803b1580156110e157600080fd5b505afa1580156110f5573d6000803e3d6000fd5b505050506040513d602081101561110b57600080fd5b810190808051906020019092919050505090508073ffffffffffffffffffffffffffffffffffffffff16630dfe16816040518163ffffffff1660e01b815260040160206040518083038186803b15801561116457600080fd5b505afa158015611178573d6000803e3d6000fd5b505050506040513d602081101561118e57600080fd5b810190808051906020019092919050505094508073ffffffffffffffffffffffffffffffffffffffff1663d21220a76040518163ffffffff1660e01b815260040160206040518083038186803b1580156111e757600080fd5b505afa1580156111fb573d6000803e3d6000fd5b505050506040513d602081101561121157600080fd5b8101908080519060200190929190505050935060008073ffffffffffffffffffffffffffffffffffffffff168c73ffffffffffffffffffffffffffffffffffffffff161461125f578b611283565b600460009054906101000a900473ffffffffffffffffffffffffffffffffffffffff165b9b508573ffffffffffffffffffffffffffffffffffffffff168c73ffffffffffffffffffffffffffffffffffffffff16146112be57856112c0565b845b9050611310600360009054906101000a900473ffffffffffffffffffffffffffffffffffffffff1660008e73ffffffffffffffffffffffffffffffffffffffff16611fb09092919063ffffffff16565b61137d600360009054906101000a900473ffffffffffffffffffffffffffffffffffffffff167fffffffffffffffffffffffffffffffffffffffffffffffffffffffffffffffff8e73ffffffffffffffffffffffffffffffffffffffff16611fb09092919063ffffffff16565b6113cb600360009054906101000a900473ffffffffffffffffffffffffffffffffffffffff1660008373ffffffffffffffffffffffffffffffffffffffff16611fb09092919063ffffffff16565b611438600360009054906101000a900473ffffffffffffffffffffffffffffffffffffffff167fffffffffffffffffffffffffffffffffffffffffffffffffffffffffffffffff8373ffffffffffffffffffffffffffffffffffffffff16611fb09092919063ffffffff16565b611443828d836121a9565b6000600360009054906101000a900473ffffffffffffffffffffffffffffffffffffffff1673ffffffffffffffffffffffffffffffffffffffff1663e8e3370088886114a48b73ffffffffffffffffffffffffffffffffffffffff16611b7d565b6114c38b73ffffffffffffffffffffffffffffffffffffffff16611b7d565b60008030426040518963ffffffff1660e01b8152600401808973ffffffffffffffffffffffffffffffffffffffff1673ffffffffffffffffffffffffffffffffffffffff1681526020018873ffffffffffffffffffffffffffffffffffffffff1673ffffffffffffffffffffffffffffffffffffffff1681526020018781526020018681526020018581526020018481526020018373ffffffffffffffffffffffffffffffffffffffff1673ffffffffffffffffffffffffffffffffffffffff16815260200182815260200198505050505050505050606060405180830381600087803b1580156115b357600080fd5b505af11580156115c7573d6000803e3d6000fd5b505050506040513d60608110156115dd57600080fd5b81019080805190602001909291908051906020019092919080519060200190929190505050925050508481101561167c576040517f08c379a000000000000000000000000000000000000000000000000000000000815260040180806020018281038252601f8152602001807f696e73756666696369656e74204c5020746f6b656e732072656365697665640081525060200191505060405180910390fd5b508173ffffffffffffffffffffffffffffffffffffffff1663a9059cbb338473ffffffffffffffffffffffffffffffffffffffff166370a08231306040518263ffffffff1660e01b8152600401808273ffffffffffffffffffffffffffffffffffffffff1673ffffffffffffffffffffffffffffffffffffffff16815260200191505060206040518083038186803b15801561171757600080fd5b505afa15801561172b573d6000803e3d6000fd5b505050506040513d602081101561174157600080fd5b81019080805190602001909291905050506040518363ffffffff1660e01b8152600401808373ffffffffffffffffffffffffffffffffffffffff1673ffffffffffffffffffffffffffffffffffffffff16815260200182815260200192505050602060405180830381600087803b1580156117bb57600080fd5b505af11580156117cf573d6000803e3d6000fd5b505050506040513d60208110156117e557600080fd5b810190808051906020019092919050505050600073ffffffffffffffffffffffffffffffffffffffff168373ffffffffffffffffffffffffffffffffffffffff1614156118c3576118753361184f8e73ffffffffffffffffffffffffffffffffffffffff16611b7d565b8e73ffffffffffffffffffffffffffffffffffffffff166119849092919063ffffffff16565b6118be8d6118988373ffffffffffffffffffffffffffffffffffffffff16611b7d565b8373ffffffffffffffffffffffffffffffffffffffff166119849092919063ffffffff16565b6118d8565b6118cd8c33612636565b6118d7818e612636565b5b5050505050506001548114611955576040517f08c379a000000000000000000000000000000000000000000000000000000000815260040180806020018281038252601f8152602001807f5265656e7472616e637947756172643a207265656e7472616e742063616c6c0081525060200191505060405180910390fd5b50505050505050565b600360009054906101000a900473ffffffffffffffffffffffffffffffffffffffff1681565b600060608473ffffffffffffffffffffffffffffffffffffffff1663a9059cbb8585604051602401808373ffffffffffffffffffffffffffffffffffffffff1673ffffffffffffffffffffffffffffffffffffffff168152602001828152602001925050506040516020818303038152906040529060e01b6020820180517bffffffffffffffffffffffffffffffffffffffffffffffffffffffff83818316178352505050506040518082805190602001908083835b60208310611a5d5780518252602082019150602081019050602083039250611a3a565b6001836020036101000a0380198251168184511680821785525050505050509050019150506000604051808303816000865af19150503d8060008114611abf576040519150601f19603f3d011682016040523d82523d6000602084013e611ac4565b606091505b5091509150818015611b045750600081511480611b035750808060200190516020811015611af157600080fd5b81019080805190602001909291905050505b5b611b76576040517f08c379a000000000000000000000000000000000000000000000000000000000815260040180806020018281038252600d8152602001807f21736166655472616e736665720000000000000000000000000000000000000081525060200191505060405180910390fd5b5050505050565b60008173ffffffffffffffffffffffffffffffffffffffff166370a08231306040518263ffffffff1660e01b8152600401808273ffffffffffffffffffffffffffffffffffffffff1673ffffffffffffffffffffffffffffffffffffffff16815260200191505060206040518083038186803b158015611bfc57600080fd5b505afa158015611c10573d6000803e3d6000fd5b505050506040513d6020811015611c2657600080fd5b81019080805190602001909291905050509050919050565b600073ffffffffffffffffffffffffffffffffffffffff168173ffffffffffffffffffffffffffffffffffffffff161415611cc4576040517f08c379a0000000000000000000000000000000000000000000000000000000008152600401808060200182810382526026815260200180612d946026913960400191505060405180910390fd5b8073ffffffffffffffffffffffffffffffffffffffff166000809054906101000a900473ffffffffffffffffffffffffffffffffffffffff1673ffffffffffffffffffffffffffffffffffffffff167f8be0079c531659141344cd1fd0a4f28419497f9722a3daafe3b4186f6b6457e060405160405180910390a3806000806101000a81548173ffffffffffffffffffffffffffffffffffffffff021916908373ffffffffffffffffffffffffffffffffffffffff16021790555050565b600060608573ffffffffffffffffffffffffffffffffffffffff166323b872dd868686604051602401808473ffffffffffffffffffffffffffffffffffffffff1673ffffffffffffffffffffffffffffffffffffffff1681526020018373ffffffffffffffffffffffffffffffffffffffff1673ffffffffffffffffffffffffffffffffffffffff16815260200182815260200193505050506040516020818303038152906040529060e01b6020820180517bffffffffffffffffffffffffffffffffffffffffffffffffffffffff83818316178352505050506040518082805190602001908083835b60208310611e8f5780518252602082019150602081019050602083039250611e6c565b6001836020036101000a0380198251168184511680821785525050505050509050019150506000604051808303816000865af19150503d8060008114611ef1576040519150601f19603f3d011682016040523d82523d6000602084013e611ef6565b606091505b5091509150818015611f365750600081511480611f355750808060200190516020811015611f2357600080fd5b81019080805190602001909291905050505b5b611fa8576040517f08c379a00000000000000000000000000000000000000000000000000000000081526004018080602001828103825260118152602001807f21736166655472616e7366657246726f6d00000000000000000000000000000081525060200191505060405180910390fd5b505050505050565b600060608473ffffffffffffffffffffffffffffffffffffffff1663095ea7b38585604051602401808373ffffffffffffffffffffffffffffffffffffffff1673ffffffffffffffffffffffffffffffffffffffff168152602001828152602001925050506040516020818303038152906040529060e01b6020820180517bffffffffffffffffffffffffffffffffffffffffffffffffffffffff83818316178352505050506040518082805190602001908083835b602083106120895780518252602082019150602081019050602083039250612066565b6001836020036101000a0380198251168184511680821785525050505050509050019150506000604051808303816000865af19150503d80600081146120eb576040519150601f19603f3d011682016040523d82523d6000602084013e6120f0565b606091505b5091509150818015612130575060008151148061212f575080806020019051602081101561211d57600080fd5b81019080805190602001909291905050505b5b6121a2576040517f08c379a000000000000000000000000000000000000000000000000000000000815260040180806020018281038252600c8152602001807f2173616665417070726f7665000000000000000000000000000000000000000081525060200191505060405180910390fd5b5050505050565b6000808473ffffffffffffffffffffffffffffffffffffffff16630902f1ac6040518163ffffffff1660e01b815260040160606040518083038186803b1580156121f257600080fd5b505afa158015612206573d6000803e3d6000fd5b505050506040513d606081101561221c57600080fd5b81019080805190602001909291908051906020019092919080519060200190929190505050506dffffffffffffffffffffffffffff1691506dffffffffffffffffffffffffffff1691506000808673ffffffffffffffffffffffffffffffffffffffff16630dfe16816040518163ffffffff1660e01b815260040160206040518083038186803b1580156122af57600080fd5b505afa1580156122c3573d6000803e3d6000fd5b505050506040513d60208110156122d957600080fd5b810190808051906020019092919050505073ffffffffffffffffffffffffffffffffffffffff168673ffffffffffffffffffffffffffffffffffffffff1614612323578284612326565b83835b9150915060008061237561234f8973ffffffffffffffffffffffffffffffffffffffff16611b7d565b61236e8973ffffffffffffffffffffffffffffffffffffffff16611b7d565b8686612750565b91509150600082111561262b57606060026040519080825280602002602001820160405280156123b45781602001602082028038833980820191505090505b509050816123c35788886123c6565b87895b826000815181106123d357fe5b60200260200101836001815181106123e757fe5b602002602001018273ffffffffffffffffffffffffffffffffffffffff1673ffffffffffffffffffffffffffffffffffffffff168152508273ffffffffffffffffffffffffffffffffffffffff1673ffffffffffffffffffffffffffffffffffffffff168152505050600360009054906101000a900473ffffffffffffffffffffffffffffffffffffffff1673ffffffffffffffffffffffffffffffffffffffff166338ed17398460008430426040518663ffffffff1660e01b815260040180868152602001858152602001806020018473ffffffffffffffffffffffffffffffffffffffff1673ffffffffffffffffffffffffffffffffffffffff168152602001838152602001828103825285818151815260200191508051906020019060200280838360005b8381101561252a57808201518184015260208101905061250f565b505050509050019650505050505050600060405180830381600087803b15801561255357600080fd5b505af1158015612567573d6000803e3d6000fd5b505050506040513d6000823e3d601f19601f82011682018060405250602081101561259157600080fd5b81019080805160405193929190846401000000008211156125b157600080fd5b838201915060208201858111156125c757600080fd5b82518660208202830111640100000000821117156125e457600080fd5b8083526020830192505050908051906020019060200280838360005b8381101561261b578082015181840152602081019050612600565b5050505090500160405250505050505b505050505050505050565b600061264183611b7d565b9050600081111561274b57600460009054906101000a900473ffffffffffffffffffffffffffffffffffffffff1673ffffffffffffffffffffffffffffffffffffffff168373ffffffffffffffffffffffffffffffffffffffff16141561273e57600460009054906101000a900473ffffffffffffffffffffffffffffffffffffffff1673ffffffffffffffffffffffffffffffffffffffff16632e1a7d4d826040518263ffffffff1660e01b815260040180828152602001915050600060405180830381600087803b15801561271757600080fd5b505af115801561272b573d6000803e3d6000fd5b5050505061273982826127b1565b61274a565b612749838383611984565b5b5b505050565b600080612766848661291690919063ffffffff16565b612779848861291690919063ffffffff16565b106127955761278a8686868661299c565b9150600090506127a8565b6127a18587858761299c565b9150600190505b94509492505050565b60008273ffffffffffffffffffffffffffffffffffffffff168260006040519080825280601f01601f1916602001820160405280156127ff5781602001600182028038833980820191505090505b506040518082805190602001908083835b602083106128335780518252602082019150602081019050602083039250612810565b6001836020036101000a03801982511681845116808217855250505050505090500191505060006040518083038185875af1925050503d8060008114612895576040519150601f19603f3d011682016040523d82523d6000602084013e61289a565b606091505b5050905080612911576040517f08c379a00000000000000000000000000000000000000000000000000000000081526004018080602001828103825260108152602001807f21736166655472616e736665724554480000000000000000000000000000000081525060200191505060405180910390fd5b505050565b6000808314156129295760009050612996565b600082840290508284828161293a57fe5b0414612991576040517f08c379a0000000000000000000000000000000000000000000000000000000008152600401808060200182810382526021815260200180612ddb6021913960400191505060405180910390fd5b809150505b92915050565b60006129b1838561291690919063ffffffff16565b6129c4838761291690919063ffffffff16565b1015612a38576040517f08c379a00000000000000000000000000000000000000000000000000000000081526004018080602001828103825260088152602001807f526576657273656400000000000000000000000000000000000000000000000081525060200191505060405180910390fd5b60006103e590506000612a56856107cd61291690919063ffffffff16565b90506000612a91612a70878961291690919063ffffffff16565b612a83878b61291690919063ffffffff16565b612b9190919063ffffffff16565b90506000612ae087612ad2612aaf898c612c1a90919063ffffffff16565b612ac46103e88761291690919063ffffffff16565b612ca290919063ffffffff16565b61291690919063ffffffff16565b90506000612b0a6004612afc848861291690919063ffffffff16565b61291690919063ffffffff16565b90506000612b3b612b3683612b28888961291690919063ffffffff16565b612c1a90919063ffffffff16565b612d31565b90506000612b528683612b9190919063ffffffff16565b90506000612b6a60028961291690919063ffffffff16565b9050612b7f8183612ca290919063ffffffff16565b98505050505050505050949350505050565b600082821115612c09576040517f08c379a000000000000000000000000000000000000000000000000000000000815260040180806020018281038252601e8152602001807f536166654d6174683a207375627472616374696f6e206f766572666c6f77000081525060200191505060405180910390fd5b600082840390508091505092915050565b600080828401905083811015612c98576040517f08c379a000000000000000000000000000000000000000000000000000000000815260040180806020018281038252601b8152602001807f536166654d6174683a206164646974696f6e206f766572666c6f77000000000081525060200191505060405180910390fd5b8091505092915050565b6000808211612d19576040517f08c379a000000000000000000000000000000000000000000000000000000000815260040180806020018281038252601a8152602001807f536166654d6174683a206469766973696f6e206279207a65726f00000000000081525060200191505060405180910390fd5b6000828481612d2457fe5b0490508091505092915050565b60006003821115612d80578190506000600160028481612d4d57fe5b040190505b81811015612d7a57809150600281828581612d6957fe5b040181612d7257fe5b049050612d52565b50612d8e565b60008214612d8d57600190505b5b91905056fe4f776e61626c653a206e6577206f776e657220697320746865207a65726f2061646472657373626f72726f77546f6b656e206e6f7420746f6b656e3020616e6420746f6b656e31536166654d6174683a206d756c7469706c69636174696f6e206f766572666c6f77a265627a7a723158204b233189cf82b1edab8540f49e2cea52095b5afa5a74a0530442ac5850c1349564736f6c63430005100032",
  "source": "pragma solidity 0.5.16;\n\nimport \"@openzeppelin/contracts/ownership/Ownable.sol\";\nimport \"@openzeppelin/contracts/math/SafeMath.sol\";\nimport \"@openzeppelin/contracts/utils/ReentrancyGuard.sol\";\nimport \"@uniswap/v2-core/contracts/libraries/Math.sol\";\nimport \"./SafeToken.sol\";\nimport \"./interfaces/Strategy.sol\";\nimport \"./interfaces/IWHT.sol\";\nimport \"./interfaces/IMdexPair.sol\";\nimport \"./interfaces/IMdexRouter.sol\";\nimport \"./interfaces/IMdexFactory.sol\";\nimport \"./interfaces/ISwapMining.sol\";\n\ncontract MdxStrategyAddTwoSidesOptimal is Ownable, ReentrancyGuard, Strategy {\n    using SafeToken for address;\n    using SafeMath for uint256;\n\n    IMdexFactory public factory;\n    IMdexRouter public router;\n    address public wht;\n    address public goblin;\n\n    /// @dev Create a new add two-side optimal strategy instance for mdx.\n    /// @param _router The mdx router smart contract.\n    /// @param _goblin The goblin can execute the smart contract.\n    constructor(IMdexRouter _router, address _goblin) public {\n        factory = IMdexFactory(_router.factory());\n        router = _router;\n\n        wht = _router.WHT();\n        goblin = _goblin;\n    }\n\n    /// @dev Throws if called by any account other than the goblin.\n    modifier onlyGoblin() {\n        require(isGoblin(), \"caller is not the goblin\");\n        _;\n    }\n\n    /// @dev Returns true if the caller is the current goblin.\n    function isGoblin() public view returns (bool) {\n        return msg.sender == goblin;\n    }\n\n    /// @dev Compute optimal deposit amount\n    /// @param amtA amount of token A desired to deposit\n    /// @param amtB amonut of token B desired to deposit\n    /// @param resA amount of token A in reserve\n    /// @param resB amount of token B in reserve\n    function optimalDeposit(\n        uint256 amtA,\n        uint256 amtB,\n        uint256 resA,\n        uint256 resB\n    ) internal pure returns (uint256 swapAmt, bool isReversed) {\n        if (amtA.mul(resB) >= amtB.mul(resA)) {\n            swapAmt = _optimalDepositA(amtA, amtB, resA, resB);\n            isReversed = false;\n        } else {\n            swapAmt = _optimalDepositA(amtB, amtA, resB, resA);\n            isReversed = true;\n        }\n    }\n\n    /// @dev Compute optimal deposit amount helper\n    /// @param amtA amount of token A desired to deposit\n    /// @param amtB amonut of token B desired to deposit\n    /// @param resA amount of token A in reserve\n    /// @param resB amount of token B in reserve\n    function _optimalDepositA(\n        uint256 amtA,\n        uint256 amtB,\n        uint256 resA,\n        uint256 resB\n    ) internal pure returns (uint256) {\n        require(amtA.mul(resB) >= amtB.mul(resA), \"Reversed\");\n\n        uint256 a = 997;\n        uint256 b = uint256(1997).mul(resA);\n        uint256 _c = (amtA.mul(resB)).sub(amtB.mul(resA));\n        uint256 c = _c.mul(1000).div(amtB.add(resB)).mul(resA);\n\n        uint256 d = a.mul(c).mul(4);\n        uint256 e = Math.sqrt(b.mul(b).add(d));\n\n        uint256 numerator = e.sub(b);\n        uint256 denominator = a.mul(2);\n\n        return numerator.div(denominator);\n    }\n\n    /// @dev Execute worker strategy. Take LP tokens + debtToken. Return LP tokens.\n    /// @param user User address\n    /// @param borrowToken The token user borrow from bank.\n    /// @param borrow The amount user borrow from bank.\n    /// @param data Extra calldata information passed along to this strategy.\n    function execute(address user, address borrowToken, uint256 borrow, uint256 /* debt */, bytes calldata data)\n        external\n        payable\n        onlyGoblin\n        nonReentrant\n    {\n        address token0;\n        address token1;\n        uint256 minLPAmount;\n        {\n            // 1. decode token and amount info, and transfer to contract.\n            (address _token0, address _token1, uint256 token0Amount, uint256 token1Amount, uint256 _minLPAmount) =\n                abi.decode(data, (address, address, uint256, uint256, uint256));\n            token0 = _token0;\n            token1 = _token1;\n            minLPAmount = _minLPAmount;\n\n            require(borrowToken == token0 || borrowToken == token1, \"borrowToken not token0 and token1\");\n            if (token0Amount > 0 && _token0 != address(0)) {\n                token0.safeTransferFrom(user, address(this), token0Amount);\n            }\n            if (token1Amount > 0 && token1 != address(0)) {\n                token1.safeTransferFrom(user, address(this), token1Amount);\n            }\n        }\n\n        address htRelative = address(0);\n        {\n            if (borrow > 0 && borrowToken != address(0)) {\n                borrowToken.safeTransferFrom(msg.sender, address(this), borrow);\n            }\n            if (token0 == address(0)){\n                token0 = wht;\n                htRelative = token1;\n            }\n            if (token1 == address(0)){\n                token1 = wht;\n                htRelative = token0;\n            }\n\n            // change all ht to WHT if need.\n            uint256 htBalance = address(this).balance;\n            if (htBalance > 0) {\n                IWHT(wht).deposit.value(htBalance)();\n            }\n        }\n        // tokens are all ERC20 token now.\n\n        IMdexPair lpToken = IMdexPair(factory.getPair(token0, token1));\n        token0 = lpToken.token0();\n        token1 = lpToken.token1();\n        // 2. Compute the optimal amount of token0 and token1 to be converted.\n        address tokenRelative;\n        {\n            borrowToken = borrowToken == address(0) ? wht : borrowToken;\n            tokenRelative = borrowToken == token0 ? token1 : token0;\n\n            borrowToken.safeApprove(address(router), 0);\n            borrowToken.safeApprove(address(router), uint256(-1));\n\n            tokenRelative.safeApprove(address(router), 0);\n            tokenRelative.safeApprove(address(router), uint256(-1));\n\n            // 3. swap and mint LP tokens.\n            calAndSwap(lpToken, borrowToken, tokenRelative);\n\n            (,, uint256 moreLPAmount) = router.addLiquidity(token0, token1, token0.myBalance(), token1.myBalance(), 0, 0, address(this), now);\n            require(moreLPAmount >= minLPAmount, \"insufficient LP tokens received\");\n        }\n\n        // 4. send lpToken and borrowToken back to the sender.\n        lpToken.transfer(msg.sender, lpToken.balanceOf(address(this)));\n\n        if (htRelative == address(0)) {\n            borrowToken.safeTransfer(msg.sender, borrowToken.myBalance());\n            tokenRelative.safeTransfer(user, tokenRelative.myBalance());\n        } else {\n            safeUnWrapperAndAllSend(borrowToken, msg.sender);\n            safeUnWrapperAndAllSend(tokenRelative, user);\n        }\n    }\n\n    /// get token balance, if is WHT un wrapper to HT and send to 'to'\n    function safeUnWrapperAndAllSend(address token, address to) internal {\n        uint256 total = SafeToken.myBalance(token);\n        if (total > 0) {\n            if (token == wht) {\n                IWHT(wht).withdraw(total);\n                SafeToken.safeTransferETH(to, total);\n            } else {\n                SafeToken.safeTransfer(token, to, total);\n            }\n        }\n    }\n\n    /// Compute amount and swap between borrowToken and tokenRelative.\n    function calAndSwap(IMdexPair lpToken, address borrowToken, address tokenRelative) internal {\n        (uint256 token0Reserve, uint256 token1Reserve,) = lpToken.getReserves();\n        (uint256 debtReserve, uint256 relativeReserve) = borrowToken ==\n            lpToken.token0() ? (token0Reserve, token1Reserve) : (token1Reserve, token0Reserve);\n        (uint256 swapAmt, bool isReversed) = optimalDeposit(borrowToken.myBalance(), tokenRelative.myBalance(),\n            debtReserve, relativeReserve);\n\n        if (swapAmt > 0){\n            address[] memory path = new address[](2);\n            (path[0], path[1]) = isReversed ? (tokenRelative, borrowToken) : (borrowToken, tokenRelative);\n            router.swapExactTokensForTokens(swapAmt, 0, path, address(this), now);\n        }\n    }\n\n    /// @param minter The address of MDex SwapMining contract.\n    /// @param pid pid of pair in SwapMining config.\n    function getSwapReward(address minter, uint256 pid) public view returns (uint256, uint256) {\n        ISwapMining swapMining = ISwapMining(minter);\n        return swapMining.getUserReward(pid);\n    }\n\n    /// @param minter The address of MDex SwapMining contract.\n    /// @param token Token of reward. Result of pairOfPid(lpTokenAddress)\n    function swapMiningReward(address minter, address token) external onlyOwner{\n        ISwapMining swapMining = ISwapMining(minter);\n        swapMining.takerWithdraw();\n        token.safeTransfer(msg.sender, token.myBalance());\n    }\n\n    /// @dev Recover ERC20 tokens that were accidentally sent to this smart contract.\n    /// @param token The token contract. Can be anything. This contract should not hold ERC20 tokens.\n    /// @param to The address to send the tokens to.\n    /// @param value The number of tokens to transfer to `to`.\n    function recover(address token, address to, uint256 value) external onlyOwner nonReentrant {\n        token.safeTransfer(to, value);\n    }\n\n    function() external payable {}\n}\n",
  "sourcePath": "/Users/yin/projects/homora/pilot/pilot-test/contracts/MdxStrategyAddTwoSidesOptimal.sol",
  "compiler": {
    "name": "solc",
    "version": "0.5.16+commit.9c3226ce.Emscripten.clang"
  },
  "schemaVersion": "3.3.4",
  "updatedAt": "2021-04-01T03:22:56.597Z",
  "devdoc": {
    "methods": {
      "constructor": {
        "details": "Create a new add two-side optimal strategy instance for mdx.",
        "params": {
          "_goblin": "The goblin can execute the smart contract.",
          "_router": "The mdx router smart contract."
        }
      },
      "execute(address,address,uint256,uint256,bytes)": {
        "details": "Execute worker strategy. Take LP tokens + debtToken. Return LP tokens.",
        "params": {
          "borrow": "The amount user borrow from bank.",
          "borrowToken": "The token user borrow from bank.",
          "data": "Extra calldata information passed along to this strategy.",
          "user": "User address"
        }
      },
      "getSwapReward(address,uint256)": {
        "params": {
          "minter": "The address of MDex SwapMining contract.",
          "pid": "pid of pair in SwapMining config."
        }
      },
      "isGoblin()": {
        "details": "Returns true if the caller is the current goblin."
      },
      "isOwner()": {
        "details": "Returns true if the caller is the current owner."
      },
      "owner()": {
        "details": "Returns the address of the current owner."
      },
      "recover(address,address,uint256)": {
        "details": "Recover ERC20 tokens that were accidentally sent to this smart contract.",
        "params": {
          "to": "The address to send the tokens to.",
          "token": "The token contract. Can be anything. This contract should not hold ERC20 tokens.",
          "value": "The number of tokens to transfer to `to`."
        }
      },
      "renounceOwnership()": {
        "details": "Leaves the contract without owner. It will not be possible to call `onlyOwner` functions anymore. Can only be called by the current owner.     * > Note: Renouncing ownership will leave the contract without an owner, thereby removing any functionality that is only available to the owner."
      },
      "swapMiningReward(address,address)": {
        "params": {
          "minter": "The address of MDex SwapMining contract.",
          "token": "Token of reward. Result of pairOfPid(lpTokenAddress)"
        }
      },
      "transferOwnership(address)": {
        "details": "Transfers ownership of the contract to a new account (`newOwner`). Can only be called by the current owner."
      }
    }
  },
  "userdoc": {
    "methods": {}
  }
}