{
  "contractName": "StakingRewards",
  "abi": [
    {
      "inputs": [
        {
          "internalType": "address",
          "name": "_rewardsDistribution",
          "type": "address"
        },
        {
          "internalType": "address",
          "name": "_rewardsToken",
          "type": "address"
        },
        {
          "internalType": "address",
          "name": "_stakingToken",
          "type": "address"
        },
        {
          "internalType": "uint256",
          "name": "_rewardAmount",
          "type": "uint256"
        },
        {
          "internalType": "uint256",
          "name": "_startTime",
          "type": "uint256"
        }
      ],
      "payable": false,
      "stateMutability": "nonpayable",
      "type": "constructor"
    },
    {
      "anonymous": false,
      "inputs": [
        {
          "indexed": false,
          "internalType": "uint256",
          "name": "amount",
          "type": "uint256"
        }
      ],
      "name": "Burn",
      "type": "event"
    },
    {
      "anonymous": false,
      "inputs": [
        {
          "indexed": false,
          "internalType": "uint256",
          "name": "reward",
          "type": "uint256"
        }
      ],
      "name": "RewardAdded",
      "type": "event"
    },
    {
      "anonymous": false,
      "inputs": [
        {
          "indexed": true,
          "internalType": "address",
          "name": "user",
          "type": "address"
        },
        {
          "indexed": false,
          "internalType": "uint256",
          "name": "reward",
          "type": "uint256"
        }
      ],
      "name": "RewardPaid",
      "type": "event"
    },
    {
      "anonymous": false,
      "inputs": [
        {
          "indexed": true,
          "internalType": "address",
          "name": "user",
          "type": "address"
        },
        {
          "indexed": false,
          "internalType": "uint256",
          "name": "amount",
          "type": "uint256"
        }
      ],
      "name": "Staked",
      "type": "event"
    },
    {
      "anonymous": false,
      "inputs": [
        {
          "indexed": true,
          "internalType": "address",
          "name": "user",
          "type": "address"
        },
        {
          "indexed": false,
          "internalType": "uint256",
          "name": "amount",
          "type": "uint256"
        }
      ],
      "name": "Withdrawn",
      "type": "event"
    },
    {
      "constant": true,
      "inputs": [],
      "name": "lastUpdateTime",
      "outputs": [
        {
          "internalType": "uint256",
          "name": "",
          "type": "uint256"
        }
      ],
      "payable": false,
      "stateMutability": "view",
      "type": "function"
    },
    {
      "constant": true,
      "inputs": [],
      "name": "periodFinish",
      "outputs": [
        {
          "internalType": "uint256",
          "name": "",
          "type": "uint256"
        }
      ],
      "payable": false,
      "stateMutability": "view",
      "type": "function"
    },
    {
      "constant": true,
      "inputs": [],
      "name": "rewardPerTokenStored",
      "outputs": [
        {
          "internalType": "uint256",
          "name": "",
          "type": "uint256"
        }
      ],
      "payable": false,
      "stateMutability": "view",
      "type": "function"
    },
    {
      "constant": true,
      "inputs": [],
      "name": "rewardRate",
      "outputs": [
        {
          "internalType": "uint256",
          "name": "",
          "type": "uint256"
        }
      ],
      "payable": false,
      "stateMutability": "view",
      "type": "function"
    },
    {
      "constant": true,
      "inputs": [
        {
          "internalType": "address",
          "name": "",
          "type": "address"
        }
      ],
      "name": "rewards",
      "outputs": [
        {
          "internalType": "uint256",
          "name": "",
          "type": "uint256"
        }
      ],
      "payable": false,
      "stateMutability": "view",
      "type": "function"
    },
    {
      "constant": true,
      "inputs": [],
      "name": "rewardsDistribution",
      "outputs": [
        {
          "internalType": "address",
          "name": "",
          "type": "address"
        }
      ],
      "payable": false,
      "stateMutability": "view",
      "type": "function"
    },
    {
      "constant": true,
      "inputs": [],
      "name": "rewardsDuration",
      "outputs": [
        {
          "internalType": "uint256",
          "name": "",
          "type": "uint256"
        }
      ],
      "payable": false,
      "stateMutability": "view",
      "type": "function"
    },
    {
      "constant": true,
      "inputs": [],
      "name": "rewardsPaid",
      "outputs": [
        {
          "internalType": "uint256",
          "name": "",
          "type": "uint256"
        }
      ],
      "payable": false,
      "stateMutability": "view",
      "type": "function"
    },
    {
      "constant": true,
      "inputs": [],
      "name": "rewardsToken",
      "outputs": [
        {
          "internalType": "contract IERC20",
          "name": "",
          "type": "address"
        }
      ],
      "payable": false,
      "stateMutability": "view",
      "type": "function"
    },
    {
      "constant": true,
      "inputs": [],
      "name": "rewardsed",
      "outputs": [
        {
          "internalType": "uint256",
          "name": "",
          "type": "uint256"
        }
      ],
      "payable": false,
      "stateMutability": "view",
      "type": "function"
    },
    {
      "constant": true,
      "inputs": [],
      "name": "stakingToken",
      "outputs": [
        {
          "internalType": "contract IERC20",
          "name": "",
          "type": "address"
        }
      ],
      "payable": false,
      "stateMutability": "view",
      "type": "function"
    },
    {
      "constant": true,
      "inputs": [],
      "name": "startTime",
      "outputs": [
        {
          "internalType": "uint256",
          "name": "",
          "type": "uint256"
        }
      ],
      "payable": false,
      "stateMutability": "view",
      "type": "function"
    },
    {
      "constant": true,
      "inputs": [],
      "name": "totalRewards",
      "outputs": [
        {
          "internalType": "uint256",
          "name": "",
          "type": "uint256"
        }
      ],
      "payable": false,
      "stateMutability": "view",
      "type": "function"
    },
    {
      "constant": true,
      "inputs": [
        {
          "internalType": "address",
          "name": "",
          "type": "address"
        }
      ],
      "name": "userRewardPerTokenPaid",
      "outputs": [
        {
          "internalType": "uint256",
          "name": "",
          "type": "uint256"
        }
      ],
      "payable": false,
      "stateMutability": "view",
      "type": "function"
    },
    {
      "constant": true,
      "inputs": [],
      "name": "totalSupply",
      "outputs": [
        {
          "internalType": "uint256",
          "name": "",
          "type": "uint256"
        }
      ],
      "payable": false,
      "stateMutability": "view",
      "type": "function"
    },
    {
      "constant": true,
      "inputs": [
        {
          "internalType": "address",
          "name": "account",
          "type": "address"
        }
      ],
      "name": "balanceOf",
      "outputs": [
        {
          "internalType": "uint256",
          "name": "",
          "type": "uint256"
        }
      ],
      "payable": false,
      "stateMutability": "view",
      "type": "function"
    },
    {
      "constant": true,
      "inputs": [],
      "name": "lastTimeRewardApplicable",
      "outputs": [
        {
          "internalType": "uint256",
          "name": "",
          "type": "uint256"
        }
      ],
      "payable": false,
      "stateMutability": "view",
      "type": "function"
    },
    {
      "constant": true,
      "inputs": [],
      "name": "rewardPerToken",
      "outputs": [
        {
          "internalType": "uint256",
          "name": "",
          "type": "uint256"
        }
      ],
      "payable": false,
      "stateMutability": "view",
      "type": "function"
    },
    {
      "constant": true,
      "inputs": [
        {
          "internalType": "address",
          "name": "account",
          "type": "address"
        }
      ],
      "name": "earned",
      "outputs": [
        {
          "internalType": "uint256",
          "name": "",
          "type": "uint256"
        }
      ],
      "payable": false,
      "stateMutability": "view",
      "type": "function"
    },
    {
      "constant": true,
      "inputs": [],
      "name": "getRewardForDuration",
      "outputs": [
        {
          "internalType": "uint256",
          "name": "",
          "type": "uint256"
        }
      ],
      "payable": false,
      "stateMutability": "view",
      "type": "function"
    },
    {
      "constant": false,
      "inputs": [
        {
          "internalType": "uint256",
          "name": "amount",
          "type": "uint256"
        }
      ],
      "name": "stake",
      "outputs": [],
      "payable": false,
      "stateMutability": "nonpayable",
      "type": "function"
    },
    {
      "constant": false,
      "inputs": [
        {
          "internalType": "uint256",
          "name": "amount",
          "type": "uint256"
        }
      ],
      "name": "withdraw",
      "outputs": [],
      "payable": false,
      "stateMutability": "nonpayable",
      "type": "function"
    },
    {
      "constant": false,
      "inputs": [],
      "name": "getReward",
      "outputs": [],
      "payable": false,
      "stateMutability": "nonpayable",
      "type": "function"
    },
    {
      "constant": false,
      "inputs": [
        {
          "internalType": "uint256",
          "name": "amount",
          "type": "uint256"
        }
      ],
      "name": "burn",
      "outputs": [],
      "payable": false,
      "stateMutability": "nonpayable",
      "type": "function"
    },
    {
      "constant": false,
      "inputs": [
        {
          "internalType": "uint256",
          "name": "reward",
          "type": "uint256"
        }
      ],
      "name": "notifyRewardAmount",
      "outputs": [],
      "payable": false,
      "stateMutability": "nonpayable",
      "type": "function"
    }
  ],
  "bytecode": "0x60806040526000600455600060055562093a8060065560006009556000600a556000600b556000600c556000600d55600c600e5534801561003f57600080fd5b5060405161277f38038061277f833981810160405260a081101561006257600080fd5b8101908080519060200190929190805190602001909291908051906020019092919080519060200190929190805190602001909291905050506001808190555083600260006101000a81548173ffffffffffffffffffffffffffffffffffffffff021916908373ffffffffffffffffffffffffffffffffffffffff16021790555082600360006101000a81548173ffffffffffffffffffffffffffffffffffffffff021916908373ffffffffffffffffffffffffffffffffffffffff160217905550846000806101000a81548173ffffffffffffffffffffffffffffffffffffffff021916908373ffffffffffffffffffffffffffffffffffffffff1602179055508160098190555080600c8190555050505050506125f9806101866000396000f3fe608060405234801561001057600080fd5b50600436106101725760003560e01c806370a08231116100de578063a694fc3a11610097578063d1af0c7d11610071578063d1af0c7d14610559578063df136d65146105a3578063e32d2a74146105c1578063ebe2b12b146105df57610172565b8063a694fc3a146104ef578063c8f33c911461051d578063cd3daf9d1461053b57610172565b806370a082311461039b57806372f702f3146103f357806378e979251461043d5780637b0a47ee1461045b57806380faa57d146104795780638b8763471461049757610172565b8063386a952511610130578063386a9525146102af5780633c6b16ab146102cd5780633d18b912146102fb5780633fc6df6e1461030557806342966c681461034f57806369d8d6d21461037d57610172565b80628cc262146101775780630700037d146101cf5780630e15561a1461022757806318160ddd146102455780631c1f78eb146102635780632e1a7d4d14610281575b600080fd5b6101b96004803603602081101561018d57600080fd5b81019080803573ffffffffffffffffffffffffffffffffffffffff1690602001909291905050506105fd565b6040518082815260200191505060405180910390f35b610211600480360360208110156101e557600080fd5b81019080803573ffffffffffffffffffffffffffffffffffffffff16906020019092919050505061071b565b6040518082815260200191505060405180910390f35b61022f610733565b6040518082815260200191505060405180910390f35b61024d610739565b6040518082815260200191505060405180910390f35b61026b610743565b6040518082815260200191505060405180910390f35b6102ad6004803603602081101561029757600080fd5b8101908080359060200190929190505050610761565b005b6102b7610cfe565b6040518082815260200191505060405180910390f35b6102f9600480360360208110156102e357600080fd5b8101908080359060200190929190505050610d04565b005b610303611101565b005b61030d611626565b604051808273ffffffffffffffffffffffffffffffffffffffff1673ffffffffffffffffffffffffffffffffffffffff16815260200191505060405180910390f35b61037b6004803603602081101561036557600080fd5b810190808035906020019092919050505061164b565b005b6103856117c4565b6040518082815260200191505060405180910390f35b6103dd600480360360208110156103b157600080fd5b81019080803573ffffffffffffffffffffffffffffffffffffffff1690602001909291905050506117ca565b6040518082815260200191505060405180910390f35b6103fb611813565b604051808273ffffffffffffffffffffffffffffffffffffffff1673ffffffffffffffffffffffffffffffffffffffff16815260200191505060405180910390f35b610445611839565b6040518082815260200191505060405180910390f35b61046361183f565b6040518082815260200191505060405180910390f35b610481611845565b6040518082815260200191505060405180910390f35b6104d9600480360360208110156104ad57600080fd5b81019080803573ffffffffffffffffffffffffffffffffffffffff169060200190929190505050611858565b6040518082815260200191505060405180910390f35b61051b6004803603602081101561050557600080fd5b8101908080359060200190929190505050611870565b005b610525611e0f565b6040518082815260200191505060405180910390f35b610543611e15565b6040518082815260200191505060405180910390f35b610561611ea3565b604051808273ffffffffffffffffffffffffffffffffffffffff1673ffffffffffffffffffffffffffffffffffffffff16815260200191505060405180910390f35b6105ab611ec9565b6040518082815260200191505060405180910390f35b6105c9611ecf565b6040518082815260200191505060405180910390f35b6105e7611ed5565b6040518082815260200191505060405180910390f35b6000610714601060008473ffffffffffffffffffffffffffffffffffffffff1673ffffffffffffffffffffffffffffffffffffffff16815260200190815260200160002054610706670de0b6b3a76400006106f86106aa600f60008973ffffffffffffffffffffffffffffffffffffffff1673ffffffffffffffffffffffffffffffffffffffff1681526020019081526020016000205461069c611e15565b611edb90919063ffffffff16565b601260008973ffffffffffffffffffffffffffffffffffffffff1673ffffffffffffffffffffffffffffffffffffffff16815260200190815260200160002054611f6490919063ffffffff16565b611fea90919063ffffffff16565b61207990919063ffffffff16565b9050919050565b60106020528060005260406000206000915090505481565b60095481565b6000601154905090565b600061075c600654600554611f6490919063ffffffff16565b905090565b600180600082825401925050819055506000600154905033610781611e15565b60088190555061078f611845565b600781905550600073ffffffffffffffffffffffffffffffffffffffff168173ffffffffffffffffffffffffffffffffffffffff161461085c576107d2816105fd565b601060008373ffffffffffffffffffffffffffffffffffffffff1673ffffffffffffffffffffffffffffffffffffffff16815260200190815260200160002081905550600854600f60008373ffffffffffffffffffffffffffffffffffffffff1673ffffffffffffffffffffffffffffffffffffffff168152602001908152602001600020819055505b600454421015801561087057506000600e54115b15610a4a5761088b6001600e54611edb90919063ffffffff16565b600e81905550600080600e54146108a457600a546108bc565b6108bb600d54600954611edb90919063ffffffff16565b5b9050600260009054906101000a900473ffffffffffffffffffffffffffffffffffffffff1673ffffffffffffffffffffffffffffffffffffffff166340c10f1930836040518363ffffffff1660e01b8152600401808373ffffffffffffffffffffffffffffffffffffffff1673ffffffffffffffffffffffffffffffffffffffff16815260200182815260200192505050600060405180830381600087803b15801561096757600080fd5b505af115801561097b573d6000803e3d6000fd5b5050505061099481600d5461207990919063ffffffff16565b600d819055506109af60065482611fea90919063ffffffff16565b6005819055506109ca6006544261207990919063ffffffff16565b6004819055506000600e54116109e1576000610a0b565b610a0a60646109fc6046600a54611f6490919063ffffffff16565b611fea90919063ffffffff16565b5b600a819055507fde88a922e0d3b88b24e9623efeb464919c6bf9f66857a65e2bfcf2ce87a9433d816040518082815260200191505060405180910390a1505b600c544211610ac1576040517f08c379a00000000000000000000000000000000000000000000000000000000081526004018080602001828103825260098152602001807f6e6f74207374617274000000000000000000000000000000000000000000000081525060200191505060405180910390fd5b60008311610b37576040517f08c379a00000000000000000000000000000000000000000000000000000000081526004018080602001828103825260118152602001807f43616e6e6f74207769746864726177203000000000000000000000000000000081525060200191505060405180910390fd5b610b4c83601154611edb90919063ffffffff16565b601181905550610ba483601260003373ffffffffffffffffffffffffffffffffffffffff1673ffffffffffffffffffffffffffffffffffffffff16815260200190815260200160002054611edb90919063ffffffff16565b601260003373ffffffffffffffffffffffffffffffffffffffff1673ffffffffffffffffffffffffffffffffffffffff16815260200190815260200160002081905550610c343384600360009054906101000a900473ffffffffffffffffffffffffffffffffffffffff1673ffffffffffffffffffffffffffffffffffffffff166121019092919063ffffffff16565b3373ffffffffffffffffffffffffffffffffffffffff167f7084f5476618d8e60b11ef0d7d3f06914655adb8793e28ff7f018d4c76d505d5846040518082815260200191505060405180910390a2506001548114610cfa576040517f08c379a000000000000000000000000000000000000000000000000000000000815260040180806020018281038252601f8152602001807f5265656e7472616e637947756172643a207265656e7472616e742063616c6c0081525060200191505060405180910390fd5b5050565b60065481565b6000809054906101000a900473ffffffffffffffffffffffffffffffffffffffff1673ffffffffffffffffffffffffffffffffffffffff163373ffffffffffffffffffffffffffffffffffffffff1614610da9576040517f08c379a000000000000000000000000000000000000000000000000000000000815260040180806020018281038252602a815260200180612571602a913960400191505060405180910390fd5b6000610db3611e15565b600881905550610dc1611845565b600781905550600073ffffffffffffffffffffffffffffffffffffffff168173ffffffffffffffffffffffffffffffffffffffff1614610e8e57610e04816105fd565b601060008373ffffffffffffffffffffffffffffffffffffffff1673ffffffffffffffffffffffffffffffffffffffff16815260200190815260200160002081905550600854600f60008373ffffffffffffffffffffffffffffffffffffffff1673ffffffffffffffffffffffffffffffffffffffff168152602001908152602001600020819055505b6000600d5414610f06576040517f08c379a00000000000000000000000000000000000000000000000000000000081526004018080602001828103825260158152602001807f72657761726420616c726561647920696e69746564000000000000000000000081525060200191505060405180910390fd5b6004544210610f2f57610f2460065483611fea90919063ffffffff16565b600581905550610f91565b6000610f4642600454611edb90919063ffffffff16565b90506000610f5f60055483611f6490919063ffffffff16565b9050610f88600654610f7a838761207990919063ffffffff16565b611fea90919063ffffffff16565b60058190555050505b600260009054906101000a900473ffffffffffffffffffffffffffffffffffffffff1673ffffffffffffffffffffffffffffffffffffffff166340c10f1930846040518363ffffffff1660e01b8152600401808373ffffffffffffffffffffffffffffffffffffffff1673ffffffffffffffffffffffffffffffffffffffff16815260200182815260200192505050600060405180830381600087803b15801561103a57600080fd5b505af115801561104e573d6000803e3d6000fd5b5050505081600d8190555061108260646110746046600d54611f6490919063ffffffff16565b611fea90919063ffffffff16565b600a8190555061109e6001600e54611edb90919063ffffffff16565b600e81905550426007819055506110c06006544261207990919063ffffffff16565b6004819055507fde88a922e0d3b88b24e9623efeb464919c6bf9f66857a65e2bfcf2ce87a9433d826040518082815260200191505060405180910390a15050565b600180600082825401925050819055506000600154905033611121611e15565b60088190555061112f611845565b600781905550600073ffffffffffffffffffffffffffffffffffffffff168173ffffffffffffffffffffffffffffffffffffffff16146111fc57611172816105fd565b601060008373ffffffffffffffffffffffffffffffffffffffff1673ffffffffffffffffffffffffffffffffffffffff16815260200190815260200160002081905550600854600f60008373ffffffffffffffffffffffffffffffffffffffff1673ffffffffffffffffffffffffffffffffffffffff168152602001908152602001600020819055505b600454421015801561121057506000600e54115b156113ea5761122b6001600e54611edb90919063ffffffff16565b600e81905550600080600e541461124457600a5461125c565b61125b600d54600954611edb90919063ffffffff16565b5b9050600260009054906101000a900473ffffffffffffffffffffffffffffffffffffffff1673ffffffffffffffffffffffffffffffffffffffff166340c10f1930836040518363ffffffff1660e01b8152600401808373ffffffffffffffffffffffffffffffffffffffff1673ffffffffffffffffffffffffffffffffffffffff16815260200182815260200192505050600060405180830381600087803b15801561130757600080fd5b505af115801561131b573d6000803e3d6000fd5b5050505061133481600d5461207990919063ffffffff16565b600d8190555061134f60065482611fea90919063ffffffff16565b60058190555061136a6006544261207990919063ffffffff16565b6004819055506000600e54116113815760006113ab565b6113aa606461139c6046600a54611f6490919063ffffffff16565b611fea90919063ffffffff16565b5b600a819055507fde88a922e0d3b88b24e9623efeb464919c6bf9f66857a65e2bfcf2ce87a9433d816040518082815260200191505060405180910390a1505b600c544211611461576040517f08c379a00000000000000000000000000000000000000000000000000000000081526004018080602001828103825260098152602001807f6e6f74207374617274000000000000000000000000000000000000000000000081525060200191505060405180910390fd5b6000601060003373ffffffffffffffffffffffffffffffffffffffff1673ffffffffffffffffffffffffffffffffffffffff16815260200190815260200160002054905060008111156115aa576000601060003373ffffffffffffffffffffffffffffffffffffffff1673ffffffffffffffffffffffffffffffffffffffff168152602001908152602001600020819055506115403382600260009054906101000a900473ffffffffffffffffffffffffffffffffffffffff1673ffffffffffffffffffffffffffffffffffffffff166121019092919063ffffffff16565b61155581600b5461207990919063ffffffff16565b600b819055503373ffffffffffffffffffffffffffffffffffffffff167fe2403640ba68fed3a2f88b7557551d1993f84b99bb10ff833f0cf8db0c5e0486826040518082815260200191505060405180910390a25b50506001548114611623576040517f08c379a000000000000000000000000000000000000000000000000000000000815260040180806020018281038252601f8152602001807f5265656e7472616e637947756172643a207265656e7472616e742063616c6c0081525060200191505060405180910390fd5b50565b6000809054906101000a900473ffffffffffffffffffffffffffffffffffffffff1681565b6000809054906101000a900473ffffffffffffffffffffffffffffffffffffffff1673ffffffffffffffffffffffffffffffffffffffff163373ffffffffffffffffffffffffffffffffffffffff16146116f0576040517f08c379a000000000000000000000000000000000000000000000000000000000815260040180806020018281038252602a815260200180612571602a913960400191505060405180910390fd5b6000600e819055506000600a81905550600260009054906101000a900473ffffffffffffffffffffffffffffffffffffffff1673ffffffffffffffffffffffffffffffffffffffff16639dc29fac30836040518363ffffffff1660e01b8152600401808373ffffffffffffffffffffffffffffffffffffffff1673ffffffffffffffffffffffffffffffffffffffff16815260200182815260200192505050600060405180830381600087803b1580156117a957600080fd5b505af11580156117bd573d6000803e3d6000fd5b5050505050565b600b5481565b6000601260008373ffffffffffffffffffffffffffffffffffffffff1673ffffffffffffffffffffffffffffffffffffffff168152602001908152602001600020549050919050565b600360009054906101000a900473ffffffffffffffffffffffffffffffffffffffff1681565b600c5481565b60055481565b6000611853426004546121d2565b905090565b600f6020528060005260406000206000915090505481565b600180600082825401925050819055506000600154905033611890611e15565b60088190555061189e611845565b600781905550600073ffffffffffffffffffffffffffffffffffffffff168173ffffffffffffffffffffffffffffffffffffffff161461196b576118e1816105fd565b601060008373ffffffffffffffffffffffffffffffffffffffff1673ffffffffffffffffffffffffffffffffffffffff16815260200190815260200160002081905550600854600f60008373ffffffffffffffffffffffffffffffffffffffff1673ffffffffffffffffffffffffffffffffffffffff168152602001908152602001600020819055505b600454421015801561197f57506000600e54115b15611b595761199a6001600e54611edb90919063ffffffff16565b600e81905550600080600e54146119b357600a546119cb565b6119ca600d54600954611edb90919063ffffffff16565b5b9050600260009054906101000a900473ffffffffffffffffffffffffffffffffffffffff1673ffffffffffffffffffffffffffffffffffffffff166340c10f1930836040518363ffffffff1660e01b8152600401808373ffffffffffffffffffffffffffffffffffffffff1673ffffffffffffffffffffffffffffffffffffffff16815260200182815260200192505050600060405180830381600087803b158015611a7657600080fd5b505af1158015611a8a573d6000803e3d6000fd5b50505050611aa381600d5461207990919063ffffffff16565b600d81905550611abe60065482611fea90919063ffffffff16565b600581905550611ad96006544261207990919063ffffffff16565b6004819055506000600e5411611af0576000611b1a565b611b196064611b0b6046600a54611f6490919063ffffffff16565b611fea90919063ffffffff16565b5b600a819055507fde88a922e0d3b88b24e9623efeb464919c6bf9f66857a65e2bfcf2ce87a9433d816040518082815260200191505060405180910390a1505b600c544211611bd0576040517f08c379a00000000000000000000000000000000000000000000000000000000081526004018080602001828103825260098152602001807f6e6f74207374617274000000000000000000000000000000000000000000000081525060200191505060405180910390fd5b60008311611c46576040517f08c379a000000000000000000000000000000000000000000000000000000000815260040180806020018281038252600e8152602001807f43616e6e6f74207374616b65203000000000000000000000000000000000000081525060200191505060405180910390fd5b611c5b8360115461207990919063ffffffff16565b601181905550611cb383601260003373ffffffffffffffffffffffffffffffffffffffff1673ffffffffffffffffffffffffffffffffffffffff1681526020019081526020016000205461207990919063ffffffff16565b601260003373ffffffffffffffffffffffffffffffffffffffff1673ffffffffffffffffffffffffffffffffffffffff16815260200190815260200160002081905550611d45333085600360009054906101000a900473ffffffffffffffffffffffffffffffffffffffff1673ffffffffffffffffffffffffffffffffffffffff166121eb909392919063ffffffff16565b3373ffffffffffffffffffffffffffffffffffffffff167f9e71bc8eea02a63969f509818f2dafb9254532904319f9dbda79b67bd34a5f3d846040518082815260200191505060405180910390a2506001548114611e0b576040517f08c379a000000000000000000000000000000000000000000000000000000000815260040180806020018281038252601f8152602001807f5265656e7472616e637947756172643a207265656e7472616e742063616c6c0081525060200191505060405180910390fd5b5050565b60075481565b6000806011541415611e2b576008549050611ea0565b611e9d611e8c601154611e7e670de0b6b3a7640000611e70600554611e62600754611e54611845565b611edb90919063ffffffff16565b611f6490919063ffffffff16565b611f6490919063ffffffff16565b611fea90919063ffffffff16565b60085461207990919063ffffffff16565b90505b90565b600260009054906101000a900473ffffffffffffffffffffffffffffffffffffffff1681565b60085481565b600d5481565b60045481565b600082821115611f53576040517f08c379a000000000000000000000000000000000000000000000000000000000815260040180806020018281038252601e8152602001807f536166654d6174683a207375627472616374696f6e206f766572666c6f77000081525060200191505060405180910390fd5b600082840390508091505092915050565b600080831415611f775760009050611fe4565b6000828402905082848281611f8857fe5b0414611fdf576040517f08c379a00000000000000000000000000000000000000000000000000000000081526004018080602001828103825260218152602001806125506021913960400191505060405180910390fd5b809150505b92915050565b6000808211612061576040517f08c379a000000000000000000000000000000000000000000000000000000000815260040180806020018281038252601a8152602001807f536166654d6174683a206469766973696f6e206279207a65726f00000000000081525060200191505060405180910390fd5b600082848161206c57fe5b0490508091505092915050565b6000808284019050838110156120f7576040517f08c379a000000000000000000000000000000000000000000000000000000000815260040180806020018281038252601b8152602001807f536166654d6174683a206164646974696f6e206f766572666c6f77000000000081525060200191505060405180910390fd5b8091505092915050565b6121cd838473ffffffffffffffffffffffffffffffffffffffff1663a9059cbb905060e01b8484604051602401808373ffffffffffffffffffffffffffffffffffffffff1673ffffffffffffffffffffffffffffffffffffffff16815260200182815260200192505050604051602081830303815290604052907bffffffffffffffffffffffffffffffffffffffffffffffffffffffff19166020820180517bffffffffffffffffffffffffffffffffffffffffffffffffffffffff83818316178352505050506122f1565b505050565b60008183106121e157816121e3565b825b905092915050565b6122eb848573ffffffffffffffffffffffffffffffffffffffff166323b872dd905060e01b858585604051602401808473ffffffffffffffffffffffffffffffffffffffff1673ffffffffffffffffffffffffffffffffffffffff1681526020018373ffffffffffffffffffffffffffffffffffffffff1673ffffffffffffffffffffffffffffffffffffffff1681526020018281526020019350505050604051602081830303815290604052907bffffffffffffffffffffffffffffffffffffffffffffffffffffffff19166020820180517bffffffffffffffffffffffffffffffffffffffffffffffffffffffff83818316178352505050506122f1565b50505050565b6123108273ffffffffffffffffffffffffffffffffffffffff1661253c565b612382576040517f08c379a000000000000000000000000000000000000000000000000000000000815260040180806020018281038252601f8152602001807f5361666545524332303a2063616c6c20746f206e6f6e2d636f6e74726163740081525060200191505060405180910390fd5b600060608373ffffffffffffffffffffffffffffffffffffffff16836040518082805190602001908083835b602083106123d157805182526020820191506020810190506020830392506123ae565b6001836020036101000a0380198251168184511680821785525050505050509050019150506000604051808303816000865af19150503d8060008114612433576040519150601f19603f3d011682016040523d82523d6000602084013e612438565b606091505b5091509150816124b0576040517f08c379a00000000000000000000000000000000000000000000000000000000081526004018080602001828103825260208152602001807f5361666545524332303a206c6f772d6c6576656c2063616c6c206661696c656481525060200191505060405180910390fd5b600081511115612536578080602001905160208110156124cf57600080fd5b8101908080519060200190929190505050612535576040517f08c379a000000000000000000000000000000000000000000000000000000000815260040180806020018281038252602a81526020018061259b602a913960400191505060405180910390fd5b5b50505050565b600080823b90506000811191505091905056fe536166654d6174683a206d756c7469706c69636174696f6e206f766572666c6f7743616c6c6572206973206e6f742052657761726473446973747269627574696f6e20636f6e74726163745361666545524332303a204552433230206f7065726174696f6e20646964206e6f742073756363656564a265627a7a723158201a0428a211c13520e750f52f64d77a5330b878cc73e13b2be4e32067b8d2798e64736f6c63430005100032",
  "source": "pragma solidity ^0.5.16;\n\nimport \"@openzeppelin/contracts/token/ERC20/IERC20.sol\";\nimport \"@openzeppelin/contracts/token/ERC20/ERC20Detailed.sol\";\nimport \"@openzeppelin/contracts/ownership/Ownable.sol\";\nimport \"@openzeppelin/contracts/math/SafeMath.sol\";\nimport \"@openzeppelin/contracts/math/Math.sol\";\nimport \"@openzeppelin/contracts/token/ERC20/SafeERC20.sol\";\nimport \"@openzeppelin/contracts/utils/ReentrancyGuard.sol\";\n\nimport \"./interfaces/IStakingRewards.sol\";\nimport \"./interfaces/IHecoPool.sol\";\nimport \"./RewardsDistributionRecipient.sol\";\n\ncontract StakingRewards is IStakingRewards, RewardsDistributionRecipient, ReentrancyGuard {\n    using SafeMath for uint256;\n    using SafeERC20 for IERC20;\n\n    /* ========== STATE VARIABLES ========== */\n\n    IERC20 public rewardsToken;\n    IERC20 public stakingToken;\n    uint256 public periodFinish = 0;\n    uint256 public rewardRate = 0;\n    uint256 public rewardsDuration = 7 days;\n    uint256 public lastUpdateTime;\n    uint256 public rewardPerTokenStored;\n    uint256 public totalRewards = 0;\n    uint256 private rewardsNext = 0;\n    uint256 public rewardsPaid = 0;\n    uint256 public startTime = 0;\n    uint256 public rewardsed = 0;\n    uint256 private leftRewardTimes = 12;\n\n    mapping(address => uint256) public userRewardPerTokenPaid;\n    mapping(address => uint256) public rewards;\n\n    uint256 private _totalSupply;\n    mapping(address => uint256) private _balances;\n\n    /* ========== CONSTRUCTOR ========== */\n\n    constructor(\n        address _rewardsDistribution,\n        address _rewardsToken,\n        address _stakingToken,\n        uint256 _rewardAmount,\n        uint256 _startTime\n    ) public {\n        rewardsToken = IERC20(_rewardsToken);\n        stakingToken = IERC20(_stakingToken);\n        rewardsDistribution = _rewardsDistribution;\n        totalRewards = _rewardAmount;\n        startTime = _startTime;\n    }\n\n    /* ========== VIEWS ========== */\n\n    function totalSupply() external view returns (uint256) {\n        return _totalSupply;\n    }\n\n    function balanceOf(address account) external view returns (uint256) {\n        return _balances[account];\n    }\n\n    function lastTimeRewardApplicable() public view returns (uint256) {\n        return Math.min(block.timestamp, periodFinish);\n    }\n\n    function rewardPerToken() public view returns (uint256) {\n        if (_totalSupply == 0) {\n            return rewardPerTokenStored;\n        }\n        return\n            rewardPerTokenStored.add(\n                lastTimeRewardApplicable().sub(lastUpdateTime).mul(rewardRate).mul(1e18).div(_totalSupply)\n            );\n    }\n\n    function earned(address account) public view returns (uint256) {\n        return _balances[account].mul(rewardPerToken().sub(userRewardPerTokenPaid[account])).div(1e18).add(rewards[account]);\n    }\n\n    function getRewardForDuration() external view returns (uint256) {\n        return rewardRate.mul(rewardsDuration);\n    }\n\n    /* ========== MUTATIVE FUNCTIONS ========== */\n\n    function stake(uint256 amount) external nonReentrant updateReward(msg.sender) checkhalve checkStart {\n        require(amount > 0, \"Cannot stake 0\");\n        _totalSupply = _totalSupply.add(amount);\n        _balances[msg.sender] = _balances[msg.sender].add(amount);\n        stakingToken.safeTransferFrom(msg.sender, address(this), amount);\n        emit Staked(msg.sender, amount);\n    }\n\n    function withdraw(uint256 amount) public nonReentrant updateReward(msg.sender) checkhalve checkStart {\n        require(amount > 0, \"Cannot withdraw 0\");\n        _totalSupply = _totalSupply.sub(amount);\n        _balances[msg.sender] = _balances[msg.sender].sub(amount);\n        stakingToken.safeTransfer(msg.sender, amount);\n        emit Withdrawn(msg.sender, amount);\n    }\n\n    function getReward() public nonReentrant updateReward(msg.sender) checkhalve checkStart {\n        uint256 reward = rewards[msg.sender];\n        if (reward > 0) {\n            rewards[msg.sender] = 0;\n            rewardsToken.safeTransfer(msg.sender, reward);\n            rewardsPaid = rewardsPaid.add(reward);\n            emit RewardPaid(msg.sender, reward);\n        }\n    }\n\n    function burn(uint256 amount) external onlyRewardsDistribution {\n        leftRewardTimes = 0;\n        rewardsNext = 0;\n        rewardsToken.burn(address(this), amount);\n    }\n\n    /* ========== RESTRICTED FUNCTIONS ========== */\n\n    function notifyRewardAmount(uint256 reward) external onlyRewardsDistribution updateReward(address(0)) {\n        require(rewardsed == 0, \"reward already inited\");\n        if (block.timestamp >= periodFinish) {\n            rewardRate = reward.div(rewardsDuration);\n        } else {\n            uint256 remaining = periodFinish.sub(block.timestamp);\n            uint256 leftover = remaining.mul(rewardRate);\n            rewardRate = reward.add(leftover).div(rewardsDuration);\n        }\n        rewardsToken.mint(address(this),reward);\n        rewardsed = reward;\n        rewardsNext = rewardsed.mul(70).div(100);\n        leftRewardTimes = leftRewardTimes.sub(1);\n        lastUpdateTime = block.timestamp;\n        periodFinish = block.timestamp.add(rewardsDuration);\n        emit RewardAdded(reward);\n    }\n\n    /* ========== MODIFIERS ========== */\n\n    modifier updateReward(address account) {\n        rewardPerTokenStored = rewardPerToken();\n        lastUpdateTime = lastTimeRewardApplicable();\n        if (account != address(0)) {\n            rewards[account] = earned(account);\n            userRewardPerTokenPaid[account] = rewardPerTokenStored;\n        }\n        _;\n    }\n\n    modifier checkhalve(){\n        if (block.timestamp >= periodFinish && leftRewardTimes > 0) {\n            leftRewardTimes = leftRewardTimes.sub(1);\n            uint256 reward = leftRewardTimes == 0 ? totalRewards.sub(rewardsed) : rewardsNext;\n            rewardsToken.mint(address(this), reward);\n            rewardsed = rewardsed.add(reward);\n            rewardRate = reward.div(rewardsDuration);\n            periodFinish = block.timestamp.add(rewardsDuration);\n            rewardsNext = leftRewardTimes > 0 ? rewardsNext.mul(70).div(100) : 0;\n            emit RewardAdded(reward);\n        }\n        _;\n    }\n\n    modifier checkStart(){\n        require(block.timestamp > startTime,\"not start\");\n        _;\n    }\n\n    /* ========== EVENTS ========== */\n\n    event RewardAdded(uint256 reward);\n    event Staked(address indexed user, uint256 amount);\n    event Withdrawn(address indexed user, uint256 amount);\n    event RewardPaid(address indexed user, uint256 reward);\n    event Burn(uint256 amount);\n}",
  "sourcePath": "/Users/yin/projects/homora/pilot/pilot-test/contracts/StakingRewards.sol",
  "compiler": {
    "name": "solc",
    "version": "0.5.16+commit.9c3226ce.Emscripten.clang"
  },
  "schemaVersion": "3.3.4",
  "updatedAt": "2021-04-01T07:07:41.660Z",
  "devdoc": {
    "methods": {}
  },
  "userdoc": {
    "methods": {}
  }
}