{
  "contractName": "TripleSlopeModel",
  "abi": [
    {
      "constant": true,
      "inputs": [
        {
          "internalType": "uint256",
          "name": "debt",
          "type": "uint256"
        },
        {
          "internalType": "uint256",
          "name": "floating",
          "type": "uint256"
        }
      ],
      "name": "getInterestRate",
      "outputs": [
        {
          "internalType": "uint256",
          "name": "",
          "type": "uint256"
        }
      ],
      "payable": false,
      "stateMutability": "pure",
      "type": "function"
    }
  ],
  "bytecode": "0x608060405234801561001057600080fd5b5061046e806100206000396000f3fe608060405234801561001057600080fd5b506004361061002b5760003560e01c8063c6dfa13f14610030575b600080fd5b6100666004803603604081101561004657600080fd5b81019080803590602001909291908035906020019092919050505061007c565b6040518082815260200191505060405180910390f35b60008061009283856101f290919063ffffffff16565b905060008082146100c9576100c4826100b66127108861027a90919063ffffffff16565b61030090919063ffffffff16565b6100cc565b60005b90506113888110156100f7576301e1338067016345785d8a0000816100ed57fe5b04925050506101ec565b61251c811015610164576301e1338061014961271061013b670214e8348c4f000061012d6113888761038f90919063ffffffff16565b61027a90919063ffffffff16565b61030090919063ffffffff16565b67016345785d8a0000018161015a57fe5b04925050506101ec565b6127108110156101d1576301e133806101b66127106101a8670a688906bd8b000061019a611d4c8761038f90919063ffffffff16565b61027a90919063ffffffff16565b61030090919063ffffffff16565b6703782dace9d9000001816101c757fe5b04925050506101ec565b6301e13380670de0b6b3a7640000816101e657fe5b04925050505b92915050565b600080828401905083811015610270576040517f08c379a000000000000000000000000000000000000000000000000000000000815260040180806020018281038252601b8152602001807f536166654d6174683a206164646974696f6e206f766572666c6f77000000000081525060200191505060405180910390fd5b8091505092915050565b60008083141561028d57600090506102fa565b600082840290508284828161029e57fe5b04146102f5576040517f08c379a00000000000000000000000000000000000000000000000000000000081526004018080602001828103825260218152602001806104196021913960400191505060405180910390fd5b809150505b92915050565b6000808211610377576040517f08c379a000000000000000000000000000000000000000000000000000000000815260040180806020018281038252601a8152602001807f536166654d6174683a206469766973696f6e206279207a65726f00000000000081525060200191505060405180910390fd5b600082848161038257fe5b0490508091505092915050565b600082821115610407576040517f08c379a000000000000000000000000000000000000000000000000000000000815260040180806020018281038252601e8152602001807f536166654d6174683a207375627472616374696f6e206f766572666c6f77000081525060200191505060405180910390fd5b60008284039050809150509291505056fe536166654d6174683a206d756c7469706c69636174696f6e206f766572666c6f77a265627a7a72315820b32e9b64db2f3d973e01709fa0bb169517492c8ebe4b4ff1843d50d197f0467a64736f6c63430005100032",
  "source": "\n\npragma solidity ^0.5.16;\n\nimport \"@openzeppelin/contracts/math/SafeMath.sol\";\n\ncontract TripleSlopeModel {\n    using SafeMath for uint256;\n\n    function getInterestRate(uint256 debt, uint256 floating) external pure returns (uint256) {\n        uint256 total = debt.add(floating);\n        uint256 utilization = total == 0? 0: debt.mul(10000).div(total);\n        if (utilization < 5000) {\n            // Less than 50% utilization - 10% APY\n            return uint256(10e16) / 365 days;\n        } else if (utilization < 9500) {\n            // Between 50% and 95% - 10%-25% APY\n            return (10e16 + utilization.sub(5000).mul(15e16).div(10000)) / 365 days;\n        } else if (utilization < 10000) {\n            // Between 95% and 100% - 25%-100% APY\n            return (25e16 + utilization.sub(7500).mul(75e16).div(10000)) / 365 days;\n        } else {\n            // Not possible, but just in case - 100% APY\n            return uint256(100e16) / 365 days;\n        }\n    }\n}",
  "sourcePath": "/Users/yin/projects/homora/pilot/pilot-test/contracts/TripleSlopeModel.sol",
  "compiler": {
    "name": "solc",
    "version": "0.5.16+commit.9c3226ce.Emscripten.clang"
  },
  "schemaVersion": "3.3.4",
  "updatedAt": "2021-03-31T08:38:07.138Z",
  "devdoc": {
    "methods": {}
  },
  "userdoc": {
    "methods": {}
  }
}